:020000040800F2
:1000000018370020CD020008EF4900080B45000812
:10001000ED49000829290008615800080000000087
:100020000000000000000000000000003502000891
:100030001531000800000000790200083D52000858
:10004000E7020008E7020008E7020008E7020008EC
:10005000E7020008E7020008473100084D310008B8
:10006000E7020008E7020008E7020008E7020008CC
:10007000E7020008E7020008E7020008E7020008BC
:10008000E7020008E7020008E7020008E7020008AC
:10009000E7020008E7020008E7020008E70200089C
:1000A000E7020008ED520008E7020008E702000836
:1000B000E7020008E7020008E7020008E70200087C
:1000C000E7020008E7020008E7020008E70200086C
:1000D000E7020008E7020008E7020008F9550008F7
:1000E000E7020008E7020008E702000800F002F853
:1000F00000F090F80AA090E8000C82448344AAF132
:100100000107DA4501D100F085F8AFF2090EBAE82F
:100110000F0013F0010F18BFFB1A43F0010318473B
:10012000FC8900001C8A0000103A24BF78C878C1FE
:10013000FAD8520724BF30C830C144BF04680C60ED
:10014000704700000023002400250026103A28BF35
:1001500078C1FBD8520728BF30C148BF0B60704739
:100160006E2900F01B87702900F0F581662907F0E1
:10017000DA86652907F0D786672907F0D4866129D2
:1001800007F0D38603681B0A28BF41F08001692964
:1001900000F06681642900F06381752900F06081B8
:1001A0006F2901F02282782900F0C181E92901F04C
:1001B000BD81E42901F0BA81F52901F0B781EF2969
:1001C00001F01F82F82900F0C0810368DB0928BF15
:1001D00041F08001632901F02C81732901F0318104
:1001E000E32901F07784F32901F07C840020704733
:1001F0001FB501F055FA04000020002107F048FB6C
:10020000401C60600020002107F02CFBE0601FBD57
:1002100010B510BD01F0BEFE1146FFF7E9FF05F075
:10022000CAFD01F0E5FE03B4FFF7F2FF03BC05F0E1
:1002300043FB0000224B19680868B0E8F00F80F318
:100240000988BFF36F8F4FF0000080F311884EF0E4
:100250000D0E70470000000006480068006880F33B
:10026000088862B661B6BFF34F8FBFF36F8F00DFB0
:1002700000BF00BF08ED00E0EFF30980BFF36F8F10
:100280000F4B1A6820E9F00F106008B54FF05000CE
:1002900080F31188BFF34F8FBFF36F8F06F00AFE14
:1002A0004FF0000080F31188BDE808401968086825
:1002B000B0E8F00F80F30988BFF36F8F704700BF7D
:1002C00034000020EFF305807047000009488047A4
:1002D00009480047FEE7FEE7FEE7FEE7FEE7FEE728
:1002E000FEE7FEE7FEE7FEE704480549054A064B40
:1002F00070470000EB520008ED00000818310020A4
:10030000183700201833002018330020704710B52C
:100310004C1084EA530404D54042C1F1000138BFB7
:10032000491E1B4204D55242C3F1000338BF5B1E75
:1003300000F052FD14F0804F04D04042C1F10001A2
:1003400038BF491E14F0004F04D05242C3F10003DD
:1003500038BF5B1E10BD00001CB50C46064B7B442D
:1003600069460090204601F042F8044600206946A4
:1003700001F050F820461CBDB31000000FB4044932
:1003800010B503AA029801F061F810BC5DF814FBE7
:100390009C0000200FB41CB5084B06AA7B4469469C
:1003A0000090059801F023F804460020694601F00A
:1003B00031F820461CBC5DF814FB000075100000ED
:1003C00070B5044685690068C10601D5302600E095
:1003D0002026C00707D070BDD4E9012130469047E0
:1003E000206A401C20626D1EF6D570BD70B50446B3
:1003F00085690078C00707D170BDD4E901212020AC
:100400009047206A401C20626D1EF6D570BD70B505
:100410000C460546012A05D02878800600D5EA69F1
:10042000002302E0012305E05B1C934202D2E05C62
:100430000028F9D1A869E618C01AA861286A1844EA
:1004400028622846FFF7BCFF04E0D5E9012114F833
:10045000010B9047B442F8D32846FFF7C7FF70BDA1
:100460002DE9F0410646002410687529314616A58D
:1004700010D000F028FD002802DA404213A507E062
:1004800031688A0701D512A502E0490704D511A5F4
:10049000012401E000F020FD00210A2206F12407DA
:1004A00009E0B0FBF2FCB0FBF2F302FB1C003030C1
:1004B00078541846491C0028F3D123462A46304672
:1004C000BDE8F04100F011BD000000002D0000006B
:1004D0002B00000020000000F0B40D460188090543
:1004E00002D5214C7C4402E01F4C7C440E34002198
:1004F00000F1240608E002F00F071209E75D42EA66
:1005000003721B097754491C52EA0307F3D102789E
:100510000023120704D5702D06D009B1022311342F
:100520002246F0BC00F0E1BC01231034F8E770B5BE
:1005300004460D462146106800F0CEFC02462946CE
:100540002046BDE870400023C6E7D21D22F0070315
:10055000D3E90023C0E70368126843F02003036077
:100560000823C3610023B7E7B38400002DE9F05FDF
:10057000894604464FF0000ADFF874B1FB44C0F826
:1005800020A02046E1688847002874D0252806D09E
:10059000D4E901219047206A401C2062F1E700263F
:1005A0005F462046E16888472028054607DB312D55
:1005B00005D2781910F8200C08B10643F1E7B0070E
:1005C00001D526F00406C4F81CA00027C4F818A022
:1005D0002A2D09D0284605F068F938B304EB8708BE
:1005E000303DC8F8185019E059F8041B204604EBB8
:1005F00087029161E1688847012F054618D1E069BB
:10060000002820DA26F020061DE0D8F8180000EBBC
:10061000800005EB40003038C8F818002046E1683B
:100620008847054605F041F90028EED1012F0AD090
:100630002E2D08D12046E16888477F1C0546022FF1
:1006400046F02006C4DBA069002803DA404246F0E9
:100650000106A061F00701D026F010066C2D0BD02A
:10066000682D09D04C2D39D06A2D35D0742D35D058
:100670007A2D33D016E038E0E1682F4620468847CF
:10068000B842054609D16C2F26D04FF48060E1684E
:10069000064320468847054604E06C2F1AD04FF4E5
:1006A000807006430DB3A5F14100192802D820350A
:1006B00046F400664A462946204626604E46FFF725
:1006C0004FFD80B101280BD0F61D26F0070000F188
:1006D000080956E74020E4E78020D8E70020D6E765
:1006E00006F104094DE7284652E7206ABDE8F09F6D
:1006F000438400000FB400B58DB010A9099000919B
:100700000B904FF0FF300A9000200C900648784480
:100710000690064878446A4607900F9909A800F0A9
:100720008FFF0DB05DF814FB4F0F0000670F000046
:100730002DE9FF5F1D464FF0FF3B91464FF000084B
:100740005F46D5E90146A96901987F1C8847296A57
:10075000824688470028F6D1BAF1FF3F0CD0002E20
:1007600024F4C06419DD600614D5BAF12B0F09D04A
:10077000BAF12D0F0ED103E0584604B0BDE8F09F4A
:1007800044F48064A96901987F1C8847761E8246DC
:10079000002E02DDBAF1300F03D0B9F1000F26D0E0
:1007A00032E0A969761E01987F1C44F400748847E2
:1007B000002E824605DDBAF1780F06D0BAF1580F47
:1007C00003D0B9F1000F10D01EE0B9F1000F02D034
:1007D000B9F1100F18D1A969761E01987F1C24F475
:1007E000007488478246102002E0082000E00A20BA
:1007F000814609E0A96908FB0908761E01987F1C5B
:1008000044F4007488478246002E05DD4946504670
:1008100000F002FF0028EDDAE96901988847A00599
:1008200002D46FF00100A8E7E00725D1600613D5D8
:10083000600502D5C8F1000000E0404629680A1DA5
:100840002A600968220501D5087015E0220701D544
:10085000088011E008600FE02868011D2960006829
:10086000210502D580F8008006E0210702D5A0F816
:10087000008001E0C0F8008038467EE72DE9FF5F88
:100880004FF000089946144646469169D2E901A7FF
:10089000DDF838B001988847054659EA0B0005D0C5
:1008A00009E0A1690198761C88470546216A284617
:1008B00088470028F5D1681C03D05FEACA7005D0CC
:1008C00015E04FF0FF3004B0BDE8F09F2068011D37
:1008D0002160D0F800800AE05FEACA7001D108F810
:1008E000015BA169761C01987F1E88470546002F91
:1008F0001ADD681C18D0B9F1000F0DD0E81705EB10
:10090000D060421120F01F0059F822102A1A01204D
:1009100090400142E0D107E0BBF1000FDCD1284656
:10092000216A88470028D7D0E16901988847BBF140
:10093000000F07D1002E05DD5FEACA7002D1002149
:1009400088F80010A068B84203DDBBF1000F03D0A7
:1009500017B16FF00100B6E73046B4E730B5054691
:100960000B462A4613F8014B12F8010B08B1A042BE
:10097000F8D01CB1002802D06D1CF1E7284630BD2C
:1009800010B5431C02E010F8011B71B18107FAD1C8
:100990004FF0013202C88C1A8C4314EAC211F9D00C
:1009A000C01A0A0603D0C01E10BDC01A10BD0A042A
:1009B00001D0801E10BD0902FCD0401E10BD032ACC
:1009C00040F2308010F0030C00F0158011F8013B6C
:1009D000BCF1020F624498BF11F801CB00F8013B53
:1009E00038BF11F8013BA2F1040298BF00F801CB17
:1009F00038BF00F8013B11F0030300F02580083AEE
:100A0000C0F0088051F8043B083A51F804CBA0E844
:100A10000810F5E7121D5CBF51F8043B40F8043B99
:100A2000AFF30080D20724BF11F8013B11F801CBCE
:100A300048BF11F8012B24BF00F8013B00F801CB9F
:100A400048BF00F8012B704710B5203AC0F00B806A
:100A5000B1E81850203AA0E81850B1E81850A0E8C2
:100A60001850BFF4F5AF5FEA027C24BFB1E818501C
:100A7000A0E8185044BF18C918C0BDE810405FEA8C
:100A8000827C24BF51F8043B40F8043B08BF704708
:100A9000D20728BF31F8023B48BF11F8012B28BF0D
:100AA00020F8023B48BF00F8012B704702F0FF031B
:100AB00043EA032242EA024200F002B84FF0000289
:100AC0000429C0F0128010F0030C00F01B80CCF160
:100AD000040CBCF1020F18BF00F8012BA8BF20F8CE
:100AE000022BA1EB0C0100F00DB85FEAC17C24BF22
:100AF00000F8012B00F8012B48BF00F8012B7047CC
:100B00004FF0000200B5134694469646203922BFA6
:100B1000A0E80C50A0E80C50B1F12001BFF4F7AFF1
:100B2000090728BFA0E80C5048BF0CC05DF804EBD3
:100B3000890028BF40F8042B08BF704748BF20F841
:100B4000022B11F0804F18BF00F8012B704710B531
:100B5000044610F0030F08BF11F0030F40F015809A
:100B60004FF0013E121FC0F20E8051F8043BA3EB80
:100B70000E0C2CEA030C1CEACE1C08BF40F8043B08
:100B8000F0D0A1F1040102F10402521E08DB11F8B9
:100B9000013B002B00F8013BF7D11146FFF78EFF18
:100BA000204610BD4FF0013C50F8042B51F8043B97
:100BB0009A4221D1A2EB0C03934313EACC1317D131
:100BC00050F8042B51F8043B9A4215D1A2EB0C03C8
:100BD000934313EACC130BD150F8042B51F8043B88
:100BE0009A4209D1A2EB0C03934313EACC13DBD056
:100BF0004FF00000704700BFD01A01BAB1FA81F17E
:100C000001F0180122FA01F0CB40C1F12001DBB262
:100C1000C0B2C01A2CFA01F3D11A914311EAC311E0
:100C2000E6D1704710B503681C1404EB21449BB255
:100C300089B2194494FBF2F302FB134394FBF2F4E0
:100C400001EB034393FBF2F102FB113193FBF2F34F
:100C500001E05B1E11440029FBDB016003EB044053
:100C600010BDF0B504464FF0FF3585B00068049024
:100C700060680290A0680390E0680190206900908D
:100C8000666906F18040B0F1004F7CD83C2200211B
:100C900004A8FFF7C7FF3C22014602A8FFF7C2FFE6
:100CA0001822014603A8FFF7BDFF411E40F2B552CE
:100CB00001A8FFF7B7FF0C22074668460021FFF79F
:100CC000B1FF414B00EB8700304400267B4411E02C
:100CD000511A01910099491C0229009102D00C2956
:100CE00008D105E0810705D00199491C019101E077
:100CF000401C00960099019A595C9142E8DD0099E8
:100D0000012906D11C2A04D1810702D00221CDE994
:100D10000016A0F146018B293CD2DDE900610022DA
:100D200002E09F5C521C3944B242FADB012E02DD24
:100D3000820700D0491E40F2B55340F26D16C2172B
:100D400000EB927292105A4300F0030303FB062259
:100D500083070A4400D1521E039E02EB4203049F04
:100D600006EBC303029EC3EB031306EB8303174E8C
:100D700033441E149BB2C6EB0616C3EB0313B60036
:100D800007EB830300E005E006EB134666F31F4321
:100D9000360C02D0284605B0F0BD80C4029E40C487
:100DA000039E40C4019E761C44F80C6B009E44E9EF
:100DB00002600720521C92FBF0F600FB162084E82C
:100DC00023001846E7E700000C7D0000A039CEFDA7
:100DD000704770477047704753EA020C00F0698013
:100DE0002DE9F04B4FF00006002B1FBFB3FA83F53F
:100DF00003FA05F424FA05F65E4012BF1643B2FA70
:100E000082F502FA05F4C5F120051EBF22FA05FCA1
:100E100044EA0C04203556EA044C4FEA144418BF47
:100E2000641C4FF000084FF00009904271EB030C76
:100E300039D3002919BFB1FA81F701FA07F6B0FAE0
:100E400080F700FA07F6C7F120071EBF20FA07FC5B
:100E500046EA0C062037B6FBF4FCA7EB0507103F6B
:100E600007F01F0BCBF120060CFA0BFB2CFA06F651
:100E700044BFB3460026202FA4BF5E464FF0000BB0
:100E80005BEA060C08BF4FF0010B19EB0B09ABFB3B
:100E9000027C48EB0608C01B06FB02CC0BFB03CC14
:100EA00071EB0C01C1E70B46024641464846BDE8DE
:100EB000F08B13B54FF000004FF00001AFF300804E
:100EC000BDE81C40704709684A0501D540B270472B
:100ED000C905FCD500B2704709684A0501D5C0B202
:100EE0007047C905FCD580B270472DE9F0470D4623
:100EF00099469246044600F124080168880604D504
:100F0000E06921F01001216000E00120A84201DD2C
:100F1000471B00E00027A1697A1902EB0900081AB3
:100F2000A0612078C00602D42046FFF749FA0026C7
:100F300008E0D4E901211AF806009047206A401C15
:100F4000761C20624E45F4DB2078C0060AD5204688
:100F5000FFF736FA06E0D4E9012130209047206AF5
:100F6000401C2062381EA7F10107F4DC07E0D4E939
:100F7000012118F805009047206A401C2062281EB5
:100F8000A5F10105F3DC2046FFF730FA20780006D2
:100F900002D50220BDE8F0870120FBE71168026856
:100FA000006A530501D508700AE0D30501D5088011
:100FB00006E0130603D5C217C1E9000200E008608D
:100FC0000120704770472DE9FF4F0C461E464FF039
:100FD000FF378BB0D2E90001DDF860800A908A46C5
:100FE000C1F30A5505B93D46002108464FF00000FF
:100FF000BAF1000F00F4400005DA00EB80004FF476
:10100000400101EA50004FEA9059B9F1010F00DDAB
:10101000B9460A9850EA4A000ED044F61050A5F29C
:10102000FF3545432F14B8F1000F1ED07542291E1D
:101030001EDDC9F100021CE0B8F1010F4FF0000005
:1010400001D0302103E0F24305E02154401CB042BE
:10105000FBDB30460022002121540B99C1F80880A7
:10106000C1E900200FB0BDE8F08FBD1B6D1CDEE7AD
:101070004A4600DA694206A800F0F2FE06AB93E8A1
:10108000070003AB83E8070050460A9900F0B9FF58
:101090008DE80700A0F500501F3800900398002D40
:1010A0000ADD42F21F014A460844002303A90390C7
:1010B000684601F022FA09E0A0F500504A461F38C0
:1010C000002303A90390684601F02CFA8DE807007D
:1010D0000004000C03D04FF0FF30410800E0104640
:1010E000B8F1000F03D00022009215461EE0751ED5
:1010F00005D400F0D9FA303262556D1EF9D5B346E9
:101100000122084302D000227F1C04E0207830280E
:1011100001D100227F1E002A099784D01DE0112DE5
:1011200007DA00F0C1FA303262556D1C50EA010254
:10113000F5D1084302D00098C8B10EE00021681E26
:1011400005E0235C625C63542254401E491C8142CA
:10115000F7DBAB46A81B401E0990002004F80B00EB
:101160000B98099AC0F80880C0E9002B7AE711268D
:101170004FF0000857E72DE9F04F88460446D21D8E
:1011800022F0070191B0D1E90001CDE90A0104F094
:1011900068FB02460B98C00F01D02D2007E02068A5
:1011A000810701D52B2002E0202101EAC000032A9B
:1011B000099001D0072A05DB03464146204600F08E
:1011C0003FFC0BE12078800601D5E06900E00620B5
:1011D000B8F1650F814606D0B8F1660F18D0B8F1A6
:1011E000670F70D131E00020B9F1110F009001DBE1
:1011F000112301E009F101030AAA01A90CA8FFF7D4
:10120000E2FEDDE90C70002609F10105834647E0A6
:1012100001204B4600904FF000470AAA01A90CA8F4
:10122000FFF7D1FEDDE90DB00C995D46002610B93F
:1012300009F101000D18B9EB050003D4C0F1FF3628
:1012400009F10105A5EB09002BE0B9F1010F01DA65
:101250004FF001090020B9F1110F0090484601DD5F
:10126000112300E003460AAA01A90CA8FFF7ABFE70
:10127000DDE90C704D4600268346207800070AD42D
:10128000AB4500DA5D4601A8012D04DD411911F8D6
:10129000011C302907D04F4502DA17F1040F04DA98
:1012A000012082460FE06D1EEEE7002F02DCED1BF1
:1012B0003E4403E0781CA84200DD7D1CB81B00F111
:1012C000010A4FF000472078000703D4AA4501DB4C
:1012D0004FF0FF3A0021B7F1004F0DF143088DF8B0
:1012E000431024D002202B23002F01DA7F422D232C
:1012F0000A21021EA0F1010000DC5FB197FBF1FCA6
:1013000097FBF1F201FB1C7C17460CF1300C08F83E
:1013100001CDEEE7A8F1010003702188090501D590
:10132000452100E06521A0F1010800F8011C0998A1
:101330000FA9A1EB0807FF1D00B10120411901EB26
:10134000EA70A1693844081A401EA0612078C006DE
:1013500002D42046FFF734F8099828B1D4E90121D6
:101360009047206A401C20622078C00622D5204683
:10137000FFF726F81EE0002E04DBB34502DD01A8CE
:10138000805D00E03020D4E901219047206A401CB4
:101390002062761CAAF101005FEA000A0AD100F07F
:1013A0007FF9C0680168405CD4E901219047206A58
:1013B000401C2062281EA5F10105DCDC07E0D4E911
:1013C000012118F8010B9047206A401C2062381E4A
:1013D000A7F10107F3DC2046FFF708F8032011B05E
:1013E00041E6000001694A1C02610878704700B5B7
:1013F0008FB0CDE901310021059105497944CDE94E
:10140000031011466846FFF7B1F80FB000BD0000A9
:10141000E5FFFFFF0A6802F8010B0A60704710B58C
:10142000436913B1AFF3008001E0FEF7F0FF012044
:1014300010BD127800F124010A7000224A700122C6
:10144000EDE711684FF0FF32E9E70000074B70B598
:101450000D467B44FFF7CBFF0446284600F072FDA3
:1014600010B14FF0FF3070BD204670BDAB4500009D
:101470002DE9FF5F15468A460446DFF8AC80F84444
:101480000027D8E900103E46CDE9001010E03AF8F8
:1014900016106A4602A800F059FD411C07D02178B9
:1014A000890603D5E269391891420DD80744761CA4
:1014B0002078800602D5E069B84205DDAE42E6DB61
:1014C0003AF816000028E2D1A069C01BA0612046AE
:1014D000FEF776FFD8E90010CDE90010002017E0F4
:1014E0003AF818106A4602A800F030FDB0F1FF3F4C
:1014F00081460BD000250DF1080B05E0D4E9012150
:101500001BF8050090476D1C4D45F7D308F101000D
:10151000B0428046E4DB206A384420622046FEF771
:1015200065FFBDE8FF9F0000527500002DE9F04106
:101530008046D21D22F007020025D2E90002F529DB
:1015400015A614D0011E72F1000106DA0023D0EBBB
:10155000030063EB020211A608E0D8F800108B0725
:1015600001D50FA602E0490701D50EA601251146B7
:10157000002408F1240704E000F096F830323A55D0
:10158000641C50EA0102F7D12B4632462146404600
:10159000BDE8F041FFF7A9BC000000002D000000ED
:1015A0002B0000002000000030B4002100F12404D2
:1015B00008E002F00705D208303542EA4372DB0842
:1015C0006554491C52EA0305F3D10468002310A2B4
:1015D000250707D5A40600D421B1C46901230DA2B3
:1015E000641EC46130BCFFF780BC10B504462146C0
:1015F0001068FFF771FC02462046BDE8104000234A
:10160000D2E7D21D22F00701D1E90023CCE7000088
:1016100000000000300000003A2800D2303820F0EE
:101620002002412A01D3A2F13700884201D34FF0B2
:10163000FF30704702681144137801601846704704
:10164000D16005497944516104497944116200210E
:101650001161114600F04ABAEDFFFFFFE5000000FE
:10166000426842B1016811F8013B23B1521EC0E942
:101670000012184670470121C160881E70474268F9
:101680005AB1C368016843B983688B4205D0491ECB
:10169000521CC0E90012002070474FF0FF30704725
:1016A00000487047D430002030B5B0F10A024FEA4C
:1016B000900E71F100034EEA817EB0EB0E0061EBFB
:1016C00091014FEA101E4EEA017E10EB0E0041EB35
:1016D00011114FEA102E4EEA016E10EB0E0041EB95
:1016E00011214FEA104E4EEA014E10EB0E0041EB75
:1016F0001141401841F100014FEAD00040EA417029
:101700004FEAD10110EB80054FEA810444EA90745E
:1017100044EB01046D1944EB0404521BA3414FF048
:10172000000348BF0A3200D530BD401C41F1000122
:1017300030BD10B5044600F053FC0068005D00F0B9
:10174000010010BD2DE9F04F04460D46D21D22F0D8
:10175000070089B0D0E900974846394604F081F87F
:101760000246F80F01D02D2307E02068810701D53C
:101770002B2302E0202101EAC0038DF820300BB1B9
:10178000012000E00020032A824601D0072A04DB62
:101790002946204600F054F93FE12078800601D424
:1017A0000D2500E0E569C7F30A560D2D49DA002141
:1017B0004FEA175B08464FF00000002F00F440008E
:1017C00007DA00EB80004FF4400100EBD07001EA33
:1017D00060008115012901DD4FF0FF3100224FEA41
:1017E000850CBCF1180F06D31346ACF118004FF06E
:1017F0008052C24003E04FF4801323FA0CF30CF143
:101800000C0CBCF1200F04D3ACF1200C09FA0CF045
:1018100001E007FA0CF000294FF0004801DD18B98B
:101820000FE00ED140450CD319EB02095F4121B9FD
:10183000404502D19F4329EA0209BBEB175F00D064
:10184000761C2088000502D57B48784402E07A485F
:101850007844193808AA302302F80A30037C0AF1C8
:101860000101002E0AF1020A53546A4602DC4FF0CD
:10187000300101E04FF031014FF001088DF8001008
:1018800002D0A6F2FF3603E059EA470100D06B4EC2
:10189000002D02DC2178090704D54FF002082E2123
:1018A0008DF80110C44600210BE0C7F303433F014C
:1018B000C35C491C6D1E02F80830052908F10108B7
:1018C00001DA002DF1DC00210CE000EB1973491C5A
:1018D0001B786D1E082902F808304FEA091908F133
:1018E000010801DA002DF0DC21688B0602D516E034
:1018F000A8F10108E04505DD02EB080313F8013CFF
:10190000302BF5D0B8F1000F09DD02EB080313F816
:10191000013C2E2B03D1090701D4A8F10108002DA9
:1019200005DD3E2102F808106D1E08F10108407C1B
:10193000002E02F8080008F1010804DA2D20764292
:1019400002F8080002E02B2002F808000A214FF4F8
:101950007A70864208F101080BDB96FBF0F3303316
:1019600002F8083096FBF0F308F1010800FB13665B
:1019700001E0642E0CDB642096FBF0F3303302F8B8
:10198000083096FBF0F308F1010800FB136601E054
:101990000A2E06DB96FBF1F0303002F8080008F161
:1019A000010896FBF1F001FB1060303002F80800EE
:1019B000A16908F1010808EB050202EB0A00081A08
:1019C000A0612078C00602D42046FEF7F9FC216A07
:1019D00008AE01EB0A00206204E0D4E9012116F808
:1019E000010B9047BAF1010AF7D22078C00602D560
:1019F0002046FEF7E5FC6E4609E016F8010B3E288E
:101A00000FD0D4E901219047206A401C2062B8F130
:101A10000108F2D22046FEF7E9FC09B00320BDE838
:101A2000F08F206A2844206203E0D4E901213020AD
:101A300090476D1EEBD3F8E7AD71000002FCFFFF8D
:101A40002DE9F0411F46044603260168072A01F4E8
:101A5000006004DB08B116A505E016A503E008B197
:101A600015A500E015A521F010002060A069C01E9A
:101A7000A0610FB1401EA0612046FEF7A1FC4FB14E
:101A8000D4E9012138469047206A401C2062C01CDE
:101A9000206206E0206AFAE7D4E9012115F8010B7B
:101AA0009047761EF8D22046FEF7A0FCBDE8F081F4
:101AB0004E414E006E616E00494E4600696E6600F2
:101AC00010B5436913B1AFF3008001E0FFF7D0FC1C
:101AD000012010BD128800F1240182840022C284FA
:101AE0000122EDE711684FF0FF32E9E72DE9F34FEE
:101AF0004FF0000A0C4656468DB001200C9001F1C3
:101B00000C000B9062690B9801219047051E2DD0A7
:101B1000252D2CD0216A8847C0B162690B9801211C
:101B20009047216A88470028F7D16269411E0B98C7
:101B3000904700E0761CA1690D988847216A884784
:101B40000028F7D1E1690D988847DBE7A1690D9876
:101B50008847A842074601D1761CD3E7E1690D9872
:101B600088477F1C02D1BAF1000F6FD06BE1626928
:101B70000B9800273D46394690472A2804D16269D0
:101B80000B98012190470125DFF8D08262690B98FC
:101B900001219047A0F130010A290AD24745E5DC2E
:101BA00007EB870100EB4107303FDFD445F010051C
:101BB000ECE7E90601D46FF000476C280AD04C2806
:101BC00014D0682815D06A280DD074281CD07A2823
:101BD0001AD01DE062690B98012190476C2802D051
:101BE00045F0040514E045F002050DE045F0200540
:101BF0000AE062690B9801219047682802D045F0FD
:101C0000080505E045F4006562690B9801219047DD
:101C1000C4E9015765283DD019DC58287AD00CDC7E
:101C2000452837D004DC252826D041289ED131E034
:101C300046282FD0472899D12CE05B2877D06128FF
:101C400028D063287CD0642823D15AE0F6E06F289E
:101C500048D008DC66281DD067281BD0692821D011
:101C60006E2816D127E0702845D0732868D07528D3
:101C700047D078280DD14DE0A1690D9888472528D7
:101C800005463FF469AFE1690D9888476D1C3FF444
:101C90006AAFD8E00D9923466A466FF00100AFF3B2
:101CA0000080C5E045F0400023464FF00002606030
:101CB000A80736D43EE0E8077FF447AF2068011D4F
:101CC00021600068290501D506701BE7290701D5A9
:101CD000068017E7A90703D5F117C0E9006111E7EE
:101CE00006600FE745F0400023464FF008026060B1
:101CF000A80716D41EE040F60E0125EA0100606038
:101D000016E045F0400023464FF00A026060A80745
:101D100007D40FE045F040006060A80708D52346CF
:101D200010220D996FF00100AFF3008080E007E012
:101D3000102223460D996FF00100FEF7F9FC77E0C1
:101D40004FF0000963284F46C8464B46CB4602D0A9
:101D50005B2806D038E0E80601D40120A060012706
:101D600032E06269D4F80CB00B98012190475E28EC
:101D700007D14FF0010949466269D4F80CB00B98BD
:101D80009047216939B900210A4603AB43F8212065
:101D9000491C0829FADBD8B3216949B308F10108C5
:101DA00062690B98012190475D28F4D1B9F1000FC9
:101DB00009D0002003A951F82020D24341F8202067
:101DC000401C0828F7DB03AB2069002820794FEA84
:101DD00040701ED05B462246CDF80080CDE90197C9
:101DE0000D9900286FF0010020DAAFF300801FE0AA
:101DF000C11703AA00EBD1614B1121F01F0102EBC7
:101E00008302411A13680120884003431360C7E727
:101E100019E00D99224600286FF00100009702DAC0
:101E2000AFF3008004E0FEF729FD01E0AFF300808E
:101E300000280ADA401C06D10C9820B14FF0FF3080
:101E40000FB0BDE8F08F5046FAE7E90701D10AF17B
:101E5000010A064400200C9054E60000CCCCCC0CC7
:101E60002DE9F047814616468AB0354878440DC8BA
:101E70008DE80D0032487844801C03AC0DC884E81E
:101E80000D0041F69B300844372190FBF1F290FBA6
:101E9000F1F5A5F1800501FB12041B3C02D564425B
:101EA000012000E00020DFF898A080460027FA44D7
:101EB000AAF1BE0A0EE0E0070AD03246684607EBF8
:101EC000470101230AEB810100F02CFB8DE807009C
:101ED00064107F1C002CEED1194F7F44AE3F19E0F7
:101EE000E80715D007EB04100DF1180A90E80E0072
:101EF0008AE80E00C068F04201D198190890324675
:101F0000012306A903A800F00DFB03AB83E807003B
:101F10006D10641C002DE3D14FF001033246694679
:101F2000B8F1000F03A802D000F0E7FA01E000F0DA
:101F3000F9FAC9E90001C9F808200AB0BDE8F0873C
:101F40001C6C0000007B00F08000704770B51646E6
:101F50000C46054600F044F8036893F80101012897
:101F600006D0FF2C0FD8185D68B101202C7070BD11
:101F7000D3F807013246214603F2071303442846EB
:101F8000BDE8704018474FF0FF3070BD0048704703
:101F9000B43000207546FFF7F9FFAE4605006946EC
:101FA000534620F00700854618B020B5FEF79CF98F
:101FB000BDE820404FF000064FF000074FF000084A
:101FC0004FF0000B21F00701AC46ACE8C009ACE8CB
:101FD000C009ACE8C009ACE8C0098D4670470000F4
:101FE00010B5FFF75DFB001D10BD00BFA558000038
:101FF00010B50446AFF300802046BDE81040FEF760
:1020000012B95FEA400C08BF91F0000F4FEA8C2331
:102010004FEAC12243EA51514FEA1C5018BF00F564
:10202000F0404FEA300018BF41F000415FEA6C5CBD
:1020300000F02980BCF1FF3F08BF40F080407047AE
:10204000130C06BF12044FF0100C4FF0000C130ECF
:1020500004BF12020CF1080C130F04BF12010CF1A3
:10206000040C930F04BF92000CF1020CD30F04BFB9
:1020700052000CF1010C11464FF00002A0F11F00BC
:10208000A0EB0C00704711F0004F08BF704731F013
:1020900000413FF4D5AF0B0C06BF09044FF0100C04
:1020A0004FF0000C0B0E04BF09020CF1080C0B0FD3
:1020B00004BF09010CF1040C8B0F04BF89000CF163
:1020C000020CCB0F04BF49000CF1010CCCF1200332
:1020D000A0EB0C0022FA03F302FA0CF241EA03012E
:1020E00000F10100704720F07F4C80EA030023F0EC
:1020F0007F47ACEB070303F57C5300F0004003F18E
:10210000FF032DE980494FEA154B09B44FEA144308
:1021100025EA0B4E24EA03480FF2042606EB1327A8
:1021200049083E785FEA320203FB0667C7F50007FD
:1021300007FB06F64FEA54374FEAD64606F1020689
:1021400007FB066CCCF1005C4FEA1C472CEA074CFD
:1021500007FB06F40CFB06F504EB15464FEA961652
:1021600034BF00204FF000404FEAD13706FB07FC98
:102170004FEA1C4C0CFB0BF7D21B03FB0CF761EB7B
:1021800007010CFB0EF7B0EB074072EB17420CFB9C
:1021900008F734BFA2EB0742B2EB074261EB1741ED
:1021A0004FEA0C444FEA910706FB07FC4FEA1C4C30
:1021B0000CFB0BF7B0EBC74072EB573203FB0CF78D
:1021C00034BFA2EBC742B2EBC74261EB57310CFB05
:1021D0000EF7B0EBC70072EB57720CFB08F734BF79
:1021E000A2EBC702B2EBC70261EB5771039F4FEA44
:1021F000816141EA921104EBCC044FEAD1374FEAF6
:10220000826206FB07FC42EA90124FEA80604FEAC6
:102210001C4C0CFB0BF7D21B03FB0CF761EB07010B
:102220000CFB0EF7B0EB074072EB17420CFB08F704
:1022300034BFA2EB0742B2EB074261EB17414FEA12
:102240008C554FEA910704EB9C2406FB07FC4FEAF0
:102250001C4C0CFB0BF7B0EBC74072EB573203FB87
:102260000CF734BFA2EBC742B2EBC74261EB573168
:102270000CFB0EF7B0EBC70072EB57720CFB08F7C4
:1022800034BFA2EBC702B2EBC70261EB577115EB8B
:102290004C254FEA816141EA92114FEA82624FEA8E
:1022A000D13742EA901206FB07FC44F100044FEAE2
:1022B00080604FEA1C4C0CFB0BF7D21B03FB0CF7A6
:1022C00061EB07010CFB0EF7B0EB074072EB174216
:1022D0000CFB08F734BFA2EB0742B2EB074261EBFD
:1022E000174115EB1C154FEA813141EA92414FEA43
:1022F000823242EA90424FEA80304FEA0C7644F153
:10230000000448EA03434EEA0B484FF0000EB2EBDC
:10231000080C71EB030724BF624639464EEB0E0EE4
:102320004FF0000B0018524149414BEB0B0BB2EB45
:10233000080C71EB03077BF1000B24BF62463946A2
:102340004EEB0E0E4FF0000B0018524149414BEB83
:102350000B0BB2EB080C71EB03077BF1000B24BFF6
:10236000624639464EEB0E0E51EA020718BF46F0A0
:10237000010616EB0E7655F1000254F1000103D56B
:10238000BDE88901BDE80088BDE88901BDE80048D5
:10239000B619524141EB0101A3F10103704780805E
:1023A0007F7E7D7C7B7A79787776767574737271AF
:1023B00071706F6E6E6D6C6C6B6A6A696868676667
:1023C00066656464636362616160605F5F5E5E5DF9
:1023D0005D5C5C5B5B5A5A5959585857575656556D
:1023E00055555454535352525251515050504F4FCF
:1023F0004F4E4E4D4D4D4C4C4C4B4B4B4A4A4A491F
:102400004949484848474747474646464545454461
:102410004444444343434342424242414141002BEE
:102420009C4630D477002BD01CB54FEA370703B455
:102430004FF010004FF01001BAF1000F06D0BCF1C0
:10244000000FDCBF40F0080040F008014FF0000032
:102450000FBCBDE810400BF1010BBBF1010F08BF31
:102460005FEA170722BF12F1010211F101014FF0DB
:10247000004143F1000300F0004043EA00007047D0
:10248000F9D35708D0E746EA064613F1400F4FEA62
:1024900016461FDD13F1200FDFBF16430A46002149
:1024A00020335B42BED0C3F1200746EA064602FA5B
:1024B00007F74FEA164646EA0706C3F1200722FA55
:1024C00003F201FA07F721FA03F14FF0000342EAA1
:1024D0000702A7E746EA020646EA06464FEA16461C
:1024E00046EA0106BCBF46EA0646360C4FF000033A
:1024F0004FF000024FF0000194E72DE9804C9A461E
:10250000934670B491E8380007C831EA400C48BFE0
:1025100034EA430C03D5FFF7E6FDFFF780FFF0BC7C
:10252000BDE8008C2DE9804C9A46934670B491E842
:10253000380007C810F0804F08BF13F0804F03D158
:1025400000F005F8FFF76BFFF0BCBDE8008C20F051
:102550007F4780EA030023F07F4C07EB0C03A3F5D1
:102560007C5300F00040A3F1FE0392F0000F00F056
:10257000B38095F0000F00F077802DE901494FEA14
:1025800011404FEA144621EA004800FB06FC24EA09
:10259000064708FB06F607FB08F800FB07F718EBF1
:1025A00006484CEB164C4FEA124B18EB07484FEA23
:1025B00015464CEB174022EA0B4E0BFB06FC25EAB6
:1025C00006470EFB06F607FB0EFE0BFB07F71EEB9E
:1025D000064E4CEB164C4FF000061EEB074E4CEB34
:1025E000174B18EB0B0840F1000018EB0E0B58EBE3
:1025F000000840F100008F1A4FF000013CBFC943B2
:10260000661B14BFB5EB040C00213CBFC943F61B8D
:102610004FEA17444EEA8E0E27EA04454FEA1C475C
:1026200004FB07622CEA074C05FB07F70CFB05F6D9
:1026300004FB0CFC16EB074642EB174216EB0C466C
:1026400042EB1C421BEB060658EB0202414146EAF4
:102650009E0601D5BDE80189B619524141EB010141
:10266000A3F10103BDE801894FEA14454FEA114780
:1026700024EA054621EA074C05FB07F406FB07F7A9
:102680000CFB06F105FB0CFC11EB074144EB174476
:102690004FEA124711EB0C4144EB1C4422EA074C71
:1026A00005FB07F206FB07F70CFB06F605FB0CFC27
:1026B00016EB074642EB174216EB0C4642EB1C4565
:1026C0006A1854F1000148BF7047B619524141EBF6
:1026D0000101A3F10103704795F0000F37D04FEAD5
:1026E00011424FEA144721EA024624EA074C02FB52
:1026F00007F106FB07F70CFB06F402FB0CFC14EBDE
:10270000074441EB17414FEA154714EB0C4441EBEA
:102710001C4125EA074C02FB07F506FB07F70CFBFB
:1027200006F602FB0CFC16EB074645EB174516EBCD
:102730000C4645EB1C42121951F1000148BF70478D
:10274000B619524141EB0101A3F1010370474FEA71
:1027500014454FEA114724EA054621EA074C05FBD8
:1027600007F106FB07F70CFB06F24FF0000605FB2E
:102770000CFC12EB074241EB174112EB0C4251EB00
:102780001C4148BF7047921841EB0101A3F10103BE
:10279000704730B591B0FF2240216846FEF786F9B8
:1027A00000244FF4804540226946204600F087F817
:1027B000052003F092F84034A4B2AC42F3D311B038
:1027C00030BD2DE9F04114000E4605462DD0B5F57B
:1027D000804F2AD203F074FAA02003F054FA03F0D9
:1027E0009CFA280A03F04FFA03F097FAE8B203F0D4
:1027F0004AFA03F092FA03F063FAA12003F043FAD5
:1028000003F08BFA0025671E09E0BD4201D00120CC
:1028100000E0002003F014FA70556D1CADB2A54223
:10282000F3D3BDE8F04103F063BABDE8F08110B521
:102830000446B0F5804F01D3FF2010BD03F040FAED
:10284000A02003F020FA03F068FA200A03F01BFA34
:1028500003F063FAE0B203F016FA03F05EFA03F055
:102860002FFAA12003F00FFA03F057FA002003F02B
:10287000E7F9044603F03CFA204610BD70B50D465A
:102880000446B0F5804F19D203F01AFAA02003F0E5
:10289000FAF903F042FA200A03F0F5F903F03DFAE1
:1028A000E0B203F0F0F903F038FA284603F0EBF950
:1028B00003F033FABDE8704003F01ABA70BD70B58A
:1028C00015000E4604462ED0402D2CD8B4F5804F6E
:1028D00029D224F03F00403080B26119814201D9F1
:1028E000001B85B203F0ECF9A02003F0CCF903F053
:1028F00014FA200A03F0C7F903F00FFAE0B203F06C
:10290000C2F903F00AFA002407E0305D03F0BBF9D6
:1029100003F003FA18B9641CA4B2AC42F5D3BDE8C5
:10292000704003F0E5B970BDFEE7000001490020EA
:1029300008607047C000002010B580210348FEF7F2
:10294000BDF803490020488010BD0000B42B0020D2
:10295000AC0000202DE9F04798B000252C462C2132
:1029600005A8FEF7CDF806E0642004F01BFA6D1C04
:10297000EDB2022D77D843A143A000F0F7FA00286A
:10298000F2D1C82004F00EFA0026B24642F21079C5
:1029900001E0012419E03DA70FF2E808FFF7CCFFA2
:1029A00000253846FDF7ECFF82B20A2339463A4843
:1029B00001F05AFD4F461435ADB200F099FB68B9ED
:1029C00041463648FDF7CAFF40B1642004F0EAF9F9
:1029D00033A13248FDF7C2FF68B10DE0142004F0C6
:1029E000E1F9BD42E7D3642004F0DCF9761CF6B2CD
:1029F000022ED0D9CDE7012412AD15AB14AA13A92C
:102A00008DE82E0016AB10AA27A1801DFDF772FEDF
:102A1000062800D001241098B0F5FD6F00DC0124D9
:102A2000A0F26C710A911699A0F2E970491E099101
:102A30001399089114990791159906911299CDF857
:102A400034A00591102801D3012402E005A802F06A
:102A50001EFB00250BE006E0642004F0A3F96D1CCA
:102A6000EDB2022D03D9012018B0BDE8F08705A111
:102A700012A000F07BFA0028EED1322004F092F987
:102A80002046F1E74F4B00002B2B2B0041542B43EA
:102A9000434C4B3F0D0A000038010020B42B0020AE
:102AA0002B43434C4B3A000025642F25642F2564AB
:102AB0002C25643A25643A256400000041542B45D6
:102AC0004E544D0D0A00000070B5002400F032FA9B
:102AD00001226349634801F099FC4FF47A75284656
:102AE00004F060F960A0FDF749FC05E004F05AF934
:102AF000641CE4B2022C71D860A161A000F036FA27
:102B000000284FF06400F1D104F04CF95DA0FDF70E
:102B100035FC05E004F046F9641CE4B2022CEAD866
:102B200056A15CA000F022FA00284FF06400F1D119
:102B300004F038F959A0FDF721FC05E004F032F962
:102B4000641CE4B2022C7AD84CA159A000F00EFA11
:102B500000284FF06400F1D104F024F959A0FDF7EA
:102B60000DFC05E004F01EF9641CE4B2022C66D8EA
:102B700042A15AA000F0FAF900284FF06400F1D108
:102B800004F010F95AA0FDF7F9FB05E004F00AF98A
:102B9000641CE4B2022C52D838A15FA000F0E6F920
:102BA00000284FF06400F1D104F0FCF862A0FDF7BA
:102BB000E5FB05E004F0F6F8641CE4B2022C3ED814
:102BC0002EA16BA000F0D2F900284FF06400F1D1E3
:102BD00004F0E8F872A0FDF7D1FB07E02FE000BF9A
:102BE00004F0E0F8641CE4B2022C28D823A175A0FC
:102BF00000F0BCF900284FF06400F1D104F0D2F8E5
:102C000077A0FDF7BBFB05E004F0CCF8641CE4B250
:102C1000022C14D819A17BA000F0A8F900284FF0CD
:102C20006400F1D104F0BEF87EA0FDF7A7FB08E038
:102C3000642004F0B7F8641CE4B2022C01D901202E
:102C400070BD0EA17BA000F091F90028F0D12846BC
:102C500004F0A8F879A0FDF791FB002070BD0000FA
:102C6000AC00002038010020312E20BDF8C8EBD682
:102C7000B8C1EEC4A3CABD0D0A0000004F4B00004E
:102C80002B2B2B00322E20B2E2CAD44154D6B8C12D
:102C9000EE0D0A0041540D0A00000000322E20C93A
:102CA000E8D6C3B2BBBBBAB4E6CAFDBEDD0D0A00AE
:102CB00041542B4341434845454E3D4F46460D0A3E
:102CC00000000000332E2041542B574B4D4F443110
:102CD0003D4D5154542E2E2E0D0A000041542B57B9
:102CE0004B4D4F44313D4D5154540D0A00000000EE
:102CF000342E2041542B4D5154545356313D382ECF
:102D00003133372E3132342E3232302C31383833A1
:102D10002E2E2E0D0A00000041542B4D51545453B9
:102D200056313D382E3133372E3132342E32323057
:102D30002C313838330D0A00352E2041542B4D519B
:102D40005454434F4E4E3D65737038323636436CA3
:102D500069656E742C746573742C31323334353676
:102D600037382C36302C312E2E2E0D0A0000000064
:102D700041542B4D515454434F4E4E3D6573703862
:102D8000323636436C69656E742C746573742C31FD
:102D9000323334353637382C3132302C310D0A008D
:102DA000362E2041542B4D515454535542313D2F12
:102DB0006675656C2F646174612C302E2E2E0D0AA1
:102DC0000000000041542B4D515454535542313DA5
:102DD0002F6675656C2F646174612C300D0A0000DC
:102DE000372E2041542B4D515454505542313D2FD4
:102DF0006675656C2F646174612C302C302E2E2E1C
:102E00000D0A000041542B4D515454505542313D50
:102E10002F6675656C2F646174612C302C300D0A3F
:102E200000000000382E2041542B532E2E2E0D0A68
:102E30000000000041542B530D0A0000392E20449D
:102E400054555F496E6974204F4B0D0A0000000015
:102E500070B50024254605E003F0A4FF641CE4B22D
:102E6000022C25D819A11AA000F080F800284FF0F4
:102E70006400F1D103F096FF09E0642003F092FFB3
:102E8000641CE4B2022C02D90024012505E011A142
:102E900013A000F06BF80028EFD1642003F082FF4C
:102EA00008E000BF03F07EFF641CE4B2022C01D9ED
:102EB000012070BD05A10EA000F058F800284FF0C9
:102EC0006400EFD103F06EFF284670BD4F4B000049
:102ED0002B2B2B00436F6E6E6563746564000000DE
:102EE00041542B534F434B4C4B313F0D0A000000D4
:102EF00041542B454E544D0D0A00000010B50122DF
:102F00001103024800F0BBFA002010BD000C014084
:102F100010B500224FF48051054800F0B0FA4FF48C
:102F2000FA6003F03FFFFFF707FD002010BD00002F
:102F3000000C014070B501220B4D140321462846B8
:102F400000F09DFA4FF4967003F02CFF002221460A
:102F5000284600F094FA4FF4FA6003F023FFFFF7DD
:102F6000EBFC002070BD0000000C014070B50E4667
:102F70000546FFF7E1FC00242846FDF701FD82B27B
:102F80000A2329460C4801F06FFA42F210751434F6
:102F9000A4B200F0ADF840B931460848FDF7DEFCB8
:102FA00018B1FFF7C9FC002070BD142003F0FAFE31
:102FB000AC42ECD3012070BD38010020B42B0020BE
:102FC00010B500F005F8012800D0002010BD000069
:102FD0001FB50446006804F0B3FD62680092024623
:102FE0000B4619A0FDF7CAF9206804F0A9FD0422D8
:102FF0008DE807001EA12B486268FDF7CBF929492F
:1030000029A0FDF7BBF927490846FFF7AFFF88B9AC
:1030100028A0FDF7B3F92D4800231A4603A900683C
:1030200004F04AF8012805D029A0FDF7A7F90120EE
:1030300004B010BD322003F0B5FE80211948FDF721
:103040003DFD0020F4E70000D2D1BDD3CAD5C9CFE1
:10305000B4ABCAFDBEDD3A20252E3366204C2C20B1
:10306000CAB1BCE4B4C1A3BA256C6420530D0A00F4
:103070007B2274696D657374616D70223A256C648E
:103080003030302C226675656C5F746F74616C2211
:103090003A25662C226E756D626572223A25647D32
:1030A0000D0A0000342C0020B7A2CBCDD4D8BAC969
:1030B00025730000CAFDBEDDC9CFB4ABB3C9B9A644
:1030C000A3A1A3A1A3A10D0A0000000020000020DD
:1030D000B4EDCEF3A3BACEDEB7A8B7A2CBCDB5BDC3
:1030E000C7EBC7F3C9BEB3FDB6D3C1D00D0A00000C
:1030F0000748418839B141888288914205D1002131
:103100004180084670470120704741888180FAE776
:10311000AC000020704770B54FF0E02300215C69DF
:1031200000EBC0009A69C50098699042FCD002D2B9
:10313000A2EB000202E0A4EB000632441144024676
:10314000A942F1D370BD012000F090B8022000F038
:103150008DB872B6FEE7000010B5054C206804F08B
:10316000DEFBD4E90223BDE8104004F0EBBB000015
:10317000C000002010B590F821100022022905D0CF
:103180000421816380F82020012010BD01680B68B4
:1031900023F00E030B6001680B6823F001030B6042
:1031A00090F84030C46B012101FA03F3636080F8AA
:1031B000211080F82020104610BD000010B590F8B6
:1031C00021100024022903D00421816301243DE061
:1031D00001680A6822F00E020A6001680A6822F09B
:1031E00001020A601A4A0168914201D1012121E0DD
:1031F000174A1432914201D110211BE0144A28329F
:10320000914201D1891515E0114A3C32914201D118
:1032100089140FE00E4A5032914202D14FF48031AE
:1032200008E00B4A6432914202D14FF4801101E070
:103230004FF08071064A083A5160012180F8211050
:10324000002180F82010416B01B18847204610BD55
:10325000080002400449012801D0022802D1086870
:10326000401C086070470000C0000020044910B5F1
:103270000A68024202D00860FFF7ECFF10BD0000B0
:10328000140401402DE9F84FDFF8B8910024A9F1AA
:10329000040B23460F2709F1040AABF1040EC9E021
:1032A0000125A5402A40AA427DD1674ED1F804C02D
:1032B000ACEB0608B44532D014DCBCF1030F3AD0B5
:1032C00009DCBCF1000F2AD0BCF1010F1CD0BCF10D
:1032D000020F31D11DE0BCF1110F17D0BCF1120F5C
:1032E0002AD119E0B8F5881F19D006DCB8F5803F5F
:1032F00015D0B8F5801F1FD111E0B8F5001F0ED012
:10330000B8F5041F18D10AE0CB6815E0CB681B1D87
:1033100012E0CB6808330FE0CB680C330CE08B680D
:103320002BB1012B4FF0080303D0456104E00423C7
:1033300002E0056100E00023FF2A01D8064601E013
:1033400000F104064FEA840501D9A5F12005D6F85D
:10335000008007FA05FC28EA0C0803FA05F548EA9C
:103360000508C6F800804D68ED0062D5374DAE699E
:1033700046F00106AE61AD6924F0030605F00105D3
:103380000095334D06EB050CDCF80850A607360F08
:1033900007FA06F825EA0805DFF8B880404503D1AA
:1033A0004FF0000817E044E0DFF8AC80404502D160
:1033B0004FF001080FE0DFF8A480404502D14FF044
:1033C000020808E0DFF89880404502D14FF003087A
:1033D00001E04FF0040808FA06F848EA0508CCF8BE
:1033E00008804D68D9F80060ED024D4601D51643BE
:1033F00000E096432E604D68DAF80060AD02554655
:1034000001D5164300E096432E604D68DBF800605E
:10341000AD035D4601D5164300E096432E604D682E
:10342000DEF80060ED03754601D5164300E09643D3
:103430002E60641C0D682A46E5407FF431AFBDE87C
:10344000F88F000008040140000011100010024035
:103450000000014000080140000C01400010014044
:10346000001401408068084000D001207047C26805
:1034700021EA02030A4043EA0241016170470AB1AE
:10348000016170470904FBE701488068704700004C
:103490002400002070B5040013D021684CF6CC4005
:1034A0000860216845F255500860D4E90001416088
:1034B0002168A0688860FFF7E7FF054641F23C36C7
:1034C0000DE0012070BD00BFFFF7DEFF401BB042E2
:1034D00005D92068C068800701D0032070BD20682E
:1034E000C0688007F0D121684AF6AA200860002051
:1034F00070BD00684AF6AA210160002070470000F4
:1035000002488168027811448160704724000020DD
:10351000074810B5016841F010010160032000F078
:10352000A1F80F2000F006F800F04AF8002010BDC6
:103530000020024030B505461C4887B0816941F43F
:1035400000618161806906A900F40060009001A813
:1035500000F0FEF900F02CFA1549164AB0FBF1F123
:103560001548491E0260416040F2E7320021C0E97F
:1035700003218160816100F074FC040012D10E48C7
:1035800000F09EFC04000DD1192000F03DF8102D34
:1035900007D200222946192000F044F807480560A8
:1035A00000E0012407B0204630BD000000100240BA
:1035B00040420F00002C0140800100202800002024
:1035C0000F4808B5816941F001018161816901F00D
:1035D00001010091C16941F08051C161C0690022BF
:1035E00000F0805000900F21901E00F01BF805485D
:1035F000416821F0E06141F00071416008BD0000C8
:103600000010024000000140002809DB00F01F020A
:10361000012191404009800000F1E020C0F8001134
:1036200070470000F0B40E4B1B680C46C3F3022336
:10363000C3F10705042D00D90425191D072901D25E
:10364000002300E0DB1E012606FA05F1491E214099
:1036500099409E40761E16403143F0BC02F015B9E9
:103660000CED00E0064900F0070208684FF6FF0382
:10367000184040EA0220034A1043086070470000E7
:103680000CED00E00000FA050149012008627047D6
:1036900000000E4210B501460020234C012922D023
:1036A000022939D010291DD161682268D20119D5AB
:1036B0001E48C1F38342C903805C0AD561681B4A76
:1036C000C1F34041921E515C194AB2FBF1F14843EB
:1036D00001E0184948436168490203D440000321CE
:1036E000B0FBF1F010BD226AC2F30121012903D120
:1036F000920701D5C80310BD022905D1626A92075D
:1037000002D549F6404010BD0329FCD12168890348
:10371000F9D54FF2244010BD00F04AF96168C1F3B9
:103720008131491C4900DBE700100240C87F0008D6
:1037300000127A0000093D002DE9F84305460078A3
:10374000354CC00754D0E0690026C00008D4E069B9
:1037500040F08050E061E069012600F08050009068
:103760002E480168C90512D40168804641F4807171
:103770000160FFF789FE074605E000BFFFF784FE02
:10378000C01B642823D8D8F80000C005F6D5206AED
:1037900010F4407021D0A98801F4407181421CD0FE
:1037A000206A1F49012220F440700A6000220A604A
:1037B0002062C00711D0FFF767FE074641F2883844
:1037C00008E000BFFFF760FEC11B414502D903209E
:1037D000BDE8F883206A8007F4D5206A696820F480
:1037E0004070084320621EB1E06920F08050E06123
:1037F0002878800705D56068A96820F44040084310
:1038000060602878C00605D56068E96820F480000B
:10381000084360600020DBE70010024000700040B9
:10382000400442422DE9F0470F46050061D0434E67
:10383000306800F00700B84209D2306820F0070075
:1038400038433060306800F00700B84251D1286832
:103850003B4C810712D5400703D5606840F4E06017
:1038600060602878000703D5606840F460506060AD
:103870006068A96820F0F000084360602878C007FD
:1038800028D06868012810D02168022810D0890744
:1038900000292EDA616821F0030101436160FFF71E
:1038A000F3FD804641F288390DE021688903EFE796
:1038B0008901EDE7FFF7E8FDA0EB0801494502D9D2
:1038C0000320BDE8F0876068696800F00C00B0EB89
:1038D000810FEFD1306800F00700B8420BD9306893
:1038E00020F0070038433060306800F00700B8422D
:1038F00001D00120E5E72878400705D56068E96830
:1039000020F4E060084360602878000706D560680E
:10391000296920F4605040EAC100606000F058F866
:103920006168084AC1F30311515CC8400649086048
:1039300006480068FFF7FEFD0020C2E700200240B5
:1039400000100240D87F000830000020280000202E
:103950000F2202600C4A536803F00303436053686C
:1039600003F0F0038360536803F4E063C3605268BC
:103970004FF4E06303EAD20202610448006800F0F9
:10398000070008607047000000100240002002405D
:103990000448054900684968044AC1F30221515CA2
:1039A000C84070473000002000100240E87F000847
:1039B0000448054900684968044AC1F3C221515CC2
:1039C000C84070473000002000100240E87F000827
:1039D0000E4A51680E4801F00C03042B11D0082B3D
:1039E0000FD10C48C1F38343C903C05C0AD55168A9
:1039F000084AC1F34041921E515C054A5043B0FB56
:103A0000F1F070470449484370470000001002403D
:103A100000127A00B67F000800093D002DE9F84F3A
:103A2000040070D02078C04DC00749D06868C0F34A
:103A30008100012807D06868C0F38100022809D1FD
:103A40006868C00306D52868800339D560680028F7
:103A5000E7D035E06068B0F5803F0BD010B1B0F52D
:103A6000A02F11D0286820F480302860286820F426
:103A7000802002E0286840F480302860606890B1BF
:103A8000FFF702FD06460AE0286840F4802028601F
:103A9000F0E700BFFFF7F8FC801B642873D82868A4
:103AA0008003F7D50CE0FFF7EFFC064605E000BF0A
:103AB000FFF7EAFC801B6428F0D828688003F7D45D
:103AC00020789A4E80074FF001094FF0000839D551
:103AD000686810F00C0F07D06868C0F381000228F6
:103AE00009D16868C00306D42868800714D5206906
:103AF000012808D110E02069B0B1C6F80090FFF7A6
:103B0000C3FC074605E00AE1FFF7BEFCC01B022824
:103B1000C4D828688007F7D52868616920F0F800C4
:103B200040EAC10028600DE0C6F80080FFF7ACFC59
:103B3000074604E0FFF7A8FCC01B022823D828682A
:103B40008007F7D4207800072CD57948A169D9B12E
:103B5000C0F80090FFF798FC074604E0FFF794FCDC
:103B6000C01B02280FD8686A8007F7D571484FF448
:103B7000FA510068B0FBF1F0009000BF0098411EC0
:103B80000091FAD20EE080E0C0F80080FFF77CFCE4
:103B9000074604E0FFF778FCC01B022875D8686A66
:103BA0008007F7D42078400760D5E8690027C00077
:103BB00008D4E86940F08050E861E869012700F026
:103BC000805000905C480168C90513D401688346A1
:103BD00041F480710160FFF757FC824606E000BFA8
:103BE000FFF752FCA0EB0A0064284ED8DBF8000077
:103BF000C005F5D5E06801280AD008B1052813D022
:103C0000286A20F001002862286A20F0040002E0FF
:103C1000286A40F001002862E06841F2883B98B1D0
:103C2000FFF732FC82460BE0286A40F0040028626D
:103C3000EEE700BFFFF728FCA0EB0A0159455AD870
:103C4000286A8007F6D50CE0FFF71EFC824605E0E7
:103C5000FFF71AFCA0EB0A0159454CD8286A8007E7
:103C6000F6D41FB1E86920F08050E861E06988B3BC
:103C70006968C1F38101022944D00228C6F8608036
:103C800004D0FFF701FC044638E034E0FFF7FCFB0A
:103C9000074604E0FFF7F8FBC01B02282BD8286872
:103CA0008001F7D4206AB0F5803F05D16868A1682B
:103CB00020F4003008436860D4E9080108436968CB
:103CC00021F4741108436860C6F86090FFF7DCFBCC
:103CD000044606E025E000BFFFF7D6FB001B0228E4
:103CE00009D828688001F7D51BE000BFFFF7CCFB9F
:103CF000001B022802D90320BDE8F88F2868800144
:103D0000F4D40EE00128F7D06868226A00F480310C
:103D1000914204D1616A00F47010884201D0012000
:103D2000EAE70020E8E700000010024000004242FD
:103D3000800442423000002000700040024850F8E9
:103D4000210080B270470000006C0040024800EB88
:103D5000810091B201607047006C004070B50400B2
:103D600003D0607C002610B105E0012070BD2674F0
:103D7000204600F03DF802206074204600F052F822
:103D8000042550BB204601F03BF930BB2068416858
:103D900021F007014160A06820B11448016821F0BA
:103DA000010101601148001F0168A26821F46071DF
:103DB000114301606068411C04D10120FFF76AFCD7
:103DC00058B1401E2268C0F303419160216880B25F
:103DD000C860204601F02EF908B16574C5E7E673A6
:103DE00001206073A0736074002070BD306C0040CF
:103DF00008B50068084988420DD1FFF745FC07481F
:103E0000C16941F00061C161C069054900F000600D
:103E100000900120086008BD00280040001002400A
:103E20003C04424270B504000AD02068416821F089
:103E300008014160FFF728FB05464FF47A7608E059
:103E4000012070BDFFF720FB401BB04201D90320C9
:103E500070BD206840680007F4D5002070BD704731
:103E6000704710B5040003D094F83D0010B107E08E
:103E7000012010BD002084F83C00204600F01EF810
:103E8000022084F83D00211D206801F039FA01204C
:103E900084F8460084F83E0084F83F0084F840002F
:103EA00084F8410084F8420084F8430084F8440018
:103EB00084F8450084F83D00002010BD70470000E4
:103EC00090F83D10012901D001207047022180F8AF
:103ED0003D100168CA6842F00102CA6000680B49DF
:103EE000884208D0B0F1804F05D00949884202D0FD
:103EF0000849884204D1816801F00701062903D0EE
:103F0000016841F00101016000207047002C014070
:103F1000000400400008004070472DE9F0410446CD
:103F20000068C66805694FF00007A90713D5B107F7
:103F300011D5F91E01610120207720688069800772
:103F4000204602D0FFF7E8FF04E000F07EF82046AC
:103F500000F07CF82777680716D5700714D521681C
:103F60006FF004000861022020772068806910F457
:103F7000407F204602D0FFF7CFFF04E000F065F855
:103F8000204600F063F82777280715D5300713D5AA
:103F900021686FF008000861042020772068C0695C
:103FA0008007204602D0FFF7B7FF04E000F04DF88D
:103FB000204600F04BF82777E80616D5F00614D512
:103FC00021686FF010000861082020772068C06920
:103FD00010F4407F204602D0FFF79EFF04E000F07F
:103FE00034F8204600F032F82777E80708D0F007C9
:103FF00006D021686FF001000861204600F028F823
:10400000280608D5300606D521686FF080000861C3
:104010002046FFF724FF680608D5700606D52168FC
:104020006FF040000861204600F01CF8A8060AD591
:10403000B00608D521686FF0200008612046BDE871
:10404000F041FFF70DBFBDE8F081704770470000F9
:1040500000680349884201D1FFF752BA7047000057
:10406000002C01407047704770470000F8B50168A8
:1040700004460868CA684B6910F00F0F4FF000053E
:1040800059D003F0010602F49077374365D0C10799
:1040900005D0D10503D5616C41F001016164410790
:1040A00005D5D90703D0616C41F002016164810735
:1040B00005D5D90703D0616C41F0040161640107A3
:1040C00007D502F02001314303D0616C41F00801B3
:1040D0006164616C00293AD0800604D5900602D54F
:1040E000204601F078F920684069616CC0F38010C7
:1040F000090700D460B3204601F046F92068406902
:10410000400621D52068143050E8001F21F04001FE
:1041100040E80012002AF5D1E06BA8B16D49416377
:10412000E06BFFF74BF8002811D0E06B416B01B05A
:10413000BDE8F040084783060FD593060DD520460D
:10414000BDE8F84001F047B92046FFF78DFFF8BD04
:104150002046FFF789FF6564F8BD266B2023012EFA
:104160007CD1C6067AD5D60678D50868486800900E
:1041700048694FF00206400640D5E16B0868406888
:104180000004000CE8D0A28D8242E5D9E085886960
:1041900020282DD020680C3050E8001F21F48071B9
:1041A00040E80012002AF5D12068143050E8001FC2
:1041B00021F0010140E80012002AF5D120681430F6
:1041C00050E8001F21F0400140E80012002AF5D11C
:1041D00084F84230256320680C3050E8001F21F03D
:1041E000100140E80012002AF5D1E06BFEF7C2FF93
:1041F0006663A08DE18D401A81B22AE0A08DE18D29
:10420000401A81B2E08D0028A6D00029A4D02268EF
:104210000C3252E8000F20F4907042E80007002FA3
:10422000F5D12068143050E8002F22F0010240E858
:104230000027002FF5D184F84230256320680C3028
:1042400050E8002F22F0100240E80023002BF5D1A7
:1042500066632046FFF707FFF8BDFFE705062BD58D
:10426000150629D594F841002128F5D1A068B0F5AC
:10427000805F01D12069B0B1206A411C21622168B0
:1042800000784860E08C401E0004000CE084E3D11C
:104290002068C16821F08001C1602068C16841F0D8
:1042A0004001C160D8E7206A0088C0F30800486078
:1042B000206A801C2062E5E74006CDD55006CBD5AC
:1042C000CA68204622F04002CA6084F8413000F0FB
:1042D0001BF9C1E77953000870B5040004D094F8C5
:1042E0004100002510B106E0012070BD84F8405067
:1042F000204600F023F8242084F841002068C1689B
:1043000021F40051C160204601F0C6F8206801691F
:1043100021F4904101612068416921F02A01416145
:104320002068C16841F40051C1606564202084F8B0
:10433000410084F842006563002070BD70B586B00E
:104340000024009401940294039403682B482A4E9D
:10435000022103220515B34221D1836943F480432E
:104360008361836903F480430493836943F0040306
:1043700083618069224E00F0040004900802CDE9B8
:104380000001039269463046FEF77CFFCDE90054F8
:10439000694630460294FEF775FF06B070BD194EAF
:1043A000B342FAD1C36943F48023C361C36903F400
:1043B00080230493836943F0080383618069CDE916
:1043C000005100F00800CDE903200F4D6946284652
:1043D000FEF758FFE814CDE9000469462846029428
:1043E000FEF750FF002207212720FFF71BF92720A7
:1043F000FFF70AF9D1E70000003801400010024041
:104400000008014000480040000C014090F8423094
:10441000202B01D00220704721B11AB10023036381
:1044200001F096B80120704700680B49884212D10C
:104430000A484188802901D30021418007490A7830
:104440004188074B0B44491C41801A7001220349E3
:104450000448FFF7DBBF704700480040AC00002075
:10446000B42B0020380100202DE9F843044690F8D1
:104470004100984616460D46202802D00220BDE88D
:10448000F88385B17EB100206064212084F841006A
:10449000FEF7FAFFA6848146E684A0682027B0F5DF
:1044A000805F02D003E00120E9E7206910B12E46C9
:1044B00000250EE000260CE08021204601F063F884
:1044C000A8B9C6B116F8010B21684860E08C401EFF
:1044D000E084E08C4B464FF00002CDF800800028CD
:1044E000EAD14FF04001204601F04DF840B184F888
:1044F00041700320C3E735F8020BC0F30800E3E77F
:1045000084F841700020BAE77047FEE74FF400419D
:104510000148FEF7A7BF0000000C014008B10122CE
:1045200000E000224FF480410148FEF7A8BF0000E0
:10453000000C014008B1012200E000224FF40041CC
:104540000148FEF79CBF0000000C014010B58CB084
:1045500001210E48FFF7F2FB42F23334A04212D0A1
:104560000A48FFF7FBFB08B1FEF7F3FD2C220849D0
:104570006846FCF769FA684600F00CF8224601210B
:104580000248FFF7E3FB0CB010BD0000DC00002088
:10459000F07F000810B5FCF764FB811CBDE81040FB
:1045A000014800F077BD0000DC000020064B10B58C
:1045B0001A5C0A4205D0012901D08A431A5401200D
:1045C00010BD002010BD0000B700002010B520B9BC
:1045D00010210448FEF746FF08B1002010BD01205D
:1045E00010BD0000000801402DE9F05F4F4C002293
:1045F000A51D6270607835F8101011B1491E25F8BC
:104600001010401C10F0FF006070F3D02078401CA8
:10461000C0B2207014286ED3444F2270FF1C7E1E3F
:1046200092461046627006F1030806F102094FF443
:104630007A7BC0B2315C3954FFF7C8FF617801283A
:104640004246705418F8013004D023F0010353544B
:1046500058B113E043F00103535417F801C0BCF103
:10466000000F0BD143F0020306E017F801C0BCF1C4
:10467000010F03D143F0040308F8013019F80130A9
:1046800043B1012B0ED0022B1ED0032B31D0042BB3
:1046900032D044E0012842D14FF4966025F8110051
:1046A00001203AE018B135F8110030B137E04FF48D
:1046B000967025F8110002202FE025F811B018F8A7
:1046C000013043F0200325E0012803D035F8110024
:1046D00040B124E018F80130032043F0100308F83B
:1046E00001301AE018F8013043F0080308F80130EF
:1046F00007E030B113E017E018B135F8110018B138
:104700000DE009F801A00AE025F811B018F8013011
:1047100043F0400308F80130042009F80100491C67
:1047200011F0FF00607084D0BDE8F09FB20000205F
:10473000012240210148FEF7A2BE0000000801400E
:1047400040210148FEF793BE0008014030B5304DCE
:10475000A1B0D5E90001CDE91901002119A801F0A6
:104760004CFD2C4C6061D5E90201CDE91B01002113
:104770001BA801F042FDA061D5E90401CDE91D01AE
:1047800000211DA801F039FDE061D5E90601CDE960
:104790001F0100211FA801F030FD2062142205F145
:1047A00020016846FCF750F90021684601F029FD18
:1047B0002060142205F1340105A8FCF745F9002119
:1047C00005A801F01EFD6060142205F148010AA849
:1047D000FCF73AF900210AA801F013FDA0601422A9
:1047E00005F15C010FA8FCF72FF900210FA801F0DB
:1047F00008FDE060142205F1700114A8FCF724F90B
:10480000002114A801F0FDFC206121B030BD0000A2
:10481000307F0008000000202DE9F04385B000251E
:104820003F480095019502950395816941F010017B
:104830008161816901F010010491816941F02001D9
:104840008161816901F020010491816941F00401D5
:104850008161816901F004010491816941F00801DD
:1048600081618069DFF8BC8000F0080004900122BB
:1048700040214046FEF703FE002280214046FEF71D
:10488000FEFDDFF8A49001224DF260014846FEF7DC
:10489000F6FD0326254801240096CDE9010469466A
:1048A0004046FEF7EFFC1020CDE900056946029472
:1048B0004046FEF7E7FC402002278DE8B10069463C
:1048C0004046FEF7DFFC80208DE831006946404617
:1048D0000394FEF7D7FC20038DE8B10069464846F3
:1048E000FEF7D0FC4CF26000009001AA112082E893
:1048F000510069464846FEF7C5FC062100220846DD
:10490000FEF790FE0620FEF77FFE0022052107201D
:10491000FEF788FE0720FEF777FE05B0BDE8F083BE
:104920000010024000080140000C0140000021106E
:10493000094810B5074901600621416040F6FF7142
:104940008160FEF7A7FD002803D0BDE81040FEF708
:1049500000BC10BD00300040D000002006480549D2
:1049600001604FF0FF3141604FF480718160FFF7CB
:10497000EDBD000000280040DC0000200C4810B510
:104980000A4901604FF4E1314160002181600C224D
:10499000C160C0E904128161C161FFF79DFC00287C
:1049A00003D0BDE81040FEF7D4BB10BD0038014075
:1049B000F00000200C4810B50A4901604FF4E131C5
:1049C0004160002181600C22C160C0E90412816154
:1049D000C161FFF781FC002803D0BDE81040FEF75D
:1049E000B8BB10BD0048004038010020FEE7FEE7DC
:1049F00010B50021074C0A46002004EBC1131A54DD
:104A0000401CC0B28028FAD3491CC9B20829F3D38C
:104A100010BD0000B42C0020F0B50B4424E0044687
:104A200085181DE07F2C19D8002917DB3F2915DCDC
:104A3000CE1701EB56764FEAE60C0D4F26F007062F
:104A400007EBCC172744A1EB060E97F800C0012610
:104A500006FA0EF62CEA060C87F800C0641C24B295
:104A6000A542DFDC491C09B28B42D8DCF0BD000056
:104A7000B42C002010B5012000F0B0F9BDE81040C2
:104A8000012000F0B3B970B500240646802525FA50
:104A900004F0304000D0012000F0A8F9012000F01F
:104AA0009DF9002000F09AF9641CE4B2082CEED3C2
:104AB000012000F093F9BDE87040002000F08EB9AD
:104AC00010B5012000F092F9012000F087F90020D4
:104AD00000F08CF9BDE81040002000F07FB910B55F
:104AE000002000F083F9012000F078F9BDE81040C3
:104AF000012000F07BB910B5FFF7BCFFAE2000F03D
:104B00007DF9D52000F07AF9802000F077F9A8200F
:104B100000F074F93F2000F071F9D32000F06EF935
:104B2000002000F06BF9402000F068F9A12000F0AF
:104B300065F9C82000F062F9DA2000F05FF9122070
:104B400000F05CF9812000F059F9CF2000F056F90F
:104B5000D92000F053F9F12000F050F9DB2000F0EB
:104B60004DF9302000F04AF9A42000F047F9A620C2
:104B700000F044F98D2000F041F9142000F03EF9D6
:104B8000AF2000F03BF9FFF733FFBDE8104000F025
:104B900011B90FB470B5C0B014460D46064648AA08
:104BA00068464799FBF7D8FB23466A4629463046B4
:104BB00000F092F840B070BC5DF814FB10B50C46E4
:104BC00040F0B00000F01AF9102040EA141000F094
:104BD00015F904F00F00BDE8104000F00FB9000017
:104BE00008B5082B0DD0062B0AD10A4B02EB420266
:104BF00003EB4202C03A00920823062200F00EF8AE
:104C000008BD054B03EB0212A2F5007210230092BF
:104C10000822F3E76C8600087C8000082DE9F04F3D
:104C20001F4616460D4682460024FFF7F5FE7F1EFE
:104C3000F81707EB50700121DFF898B001EBE0079F
:104C400043E000203DE000BF0AEB00037F2B36D895
:104C5000E91705EB5171CA1021F00701691A002DFF
:104C600003DA521E083112B209B202EB0409B9F19B
:104C7000070F0ED8099A04FB06F802440BEBC91E75
:104C800018F802201EF803C08A404CEA020C0EF805
:104C900003C009F10102072A11D80BEBC91202EB7C
:104CA0000308099A04FB06FC024498F880301CF8BB
:104CB0000220C1F10801CA40134388F88030401C2B
:104CC000C0B2B042C0D3641CE4B2A742B9DCBDE8B4
:104CD000F08F0000B42C00202DE9FF4F002583B099
:104CE0009B4690462C46AA46DFF8C09056E0100638
:104CF0008DF8042005F101050DD40398ADB22044D0
:104D00008DF805A000B25B460499FFF769FF04EB3C
:104D10000B0084B242E0A8B218F80010002941D07C
:104D2000401C8DF8051085B28DF806A0002606E01F
:104D3000384601A9FBF736FF68B1761CB6B2C6EB60
:104D4000C60000EB800101EB0900074618A1FBF744
:104D500029FF0028ECD1BBF1080F03D0BBF1060FEF
:104D60001CD111E0C6EBC60000EB800101EB09008D
:104D7000C01C009003981023204400B21A460499E6
:104D8000FFF74CFF103408E003980623204400B2DC
:104D90003F220499FFF724FFA41DA4B218F80520B0
:104DA000002AA4D107B0BDE8F08F0000A688000853
:104DB0000000000070B5084D002400212046FFF7D8
:104DC000FDFE05EBC410802100F029F8641CE4B25C
:104DD000082CF2D370BD0000B42C00200246402104
:104DE0000148FEF74CBB0000000C014002462021A8
:104DF0000148FEF744BB0000000C014010B504461A
:104E0000FFF75EFE7820FFF73EFE0020FFF73BFE37
:104E10002046FFF738FEBDE81040FFF760BE70B5D2
:104E20000D460646FFF74CFE7820FFF72CFE40208B
:104E3000FFF729FE002404E0305DFFF724FE641C28
:104E4000E4B2AC42F8D3BDE87040FFF748BE0000C2
:104E500008B54FF000094C46CDF80090FEF77CF9FC
:104E600002F02CFD0646009802F06AFE02460B4650
:104E70002EA0FBF783FADFF8E080384D4FF47A7A02
:104E8000FEF76AF902F01AFD07463146009002F07B
:104E9000D5FF20F00041287841450DDB48B90120BD
:104EA0002870384602F04CFE02460B462CA0FBF759
:104EB00065FA0024009E34E0002832D0641CE4B27D
:104EC000384602F03DFE02460B4625A0FBF756FA97
:104ED0000522214629A0FBF751FA052C21D3009881
:104EE000B0F17E5F14DD2D4800232B4A694600682F
:104EF00002F0E2F8012802D029A0FBF73FFA00985F
:104F000002F01EFE02460B4630A0FBF737FA02E025
:104F100034A0FBF733FAFDF709FD002485F8009073
:104F20002646504601F03EFFAAE70000CAD7B4CE9D
:104F3000C6F4B6AFA3ACBDF6BCC7C2BCB3F5CABC21
:104F4000C1F7C1BF20252E3366204C2CB2BBC9CF80
:104F5000B4AB0D0A000000006F12833AA0000020DD
:104F6000BFAACABCBCD3D3CDA3ACC0DBBCC6D6B52C
:104F7000CEAA20252E33660D0A000000BCD3D3CD67
:104F8000D6B5C1ACD0F8CEB4B1E42025642F2564E9
:104F900020C3EB0D0A00000040420F001400002067
:104FA000B4EDCEF3A3BACAFDBEDDCEDEB7A8B7A27C
:104FB000CBCDB5BDB6D3C1D0A3ACD2D1B3ACCAB101
:104FC000BBF2B6D3C1D0C2FA0D0A0000B1BEB4CE56
:104FD000BCD3D3CDC1F7C1BFCEAA252E33660D0AEF
:104FE00000000000B1BEB4CEBCD3D3CDC1F7C1BF69
:104FF000CEAA302CC8A1CFFBC9CFB4AB0D0A00009C
:1050000070B50446FEF740FA05464FF47A7606E09E
:10501000FEF73AFA401BB04201D9032070BD206868
:1050200040688006F4D52068416841F01001416075
:10503000002070BD70B504460068416821F0100181
:105040004160FEF721FA05464FF47A7607E000BF8B
:10505000FEF71AFA401BB04201D9032070BD206848
:1050600040688006F4D5002070BD006881698AB26E
:10507000C1698BB2816989B28A4203D0C06961F388
:105080001F4001E043EA0240A0F5E1407047FFF70E
:1050900081BA00002DE9F0410F4604460025FEF7D5
:1050A000F3F906464FF47A7805E000BFFEF7ECF915
:1050B000801B40451DD8206840688006F6D52068D2
:1050C000416841F0100141602168380C8861216815
:1050D000B8B2C8612068416821F010014160FEF754
:1050E000D3F90646474606E0FEF7CEF9801BB842E4
:1050F00001D9012503E0206840688006F4D52846E0
:10510000BDE8F0810548FEF7C5F94FF47A64204602
:1051100001F048FE0148FEF7ECF9F8E7D000002066
:1051200008B50020FDF783FBA5280CD022A0FBF7D3
:1051300025F9FDF72EFBA5210020FDF79FFB64203C
:1051400001F030FE02E025A0FBF718F900F0CAFBE1
:10515000014627A0FBF712F901F0ECF800202A4CD9
:105160002A4D4FF4FA76009000226946206802F03A
:1051700053F8012812D100F0A1FB0146009801F07C
:10518000ABFC18B1012803D021A002E023A000E06D
:1051900026A0FBF7F3F8052000F09FFB00F03CFC95
:1051A00028B1286801F005FD08B101F0E9FB30469F
:1051B00001F0F8FDD8E70000454550524F4D20CE94
:1051C000B4B3F5CABCBBAFA3ACD5FDD4DAB3F5CA52
:1051D000BCBBAF2E2E2E0D0A0000000045455052DC
:1051E0004F4D20D2D1B3F5CABCBBAF0D0A000000B1
:1051F000656570726F6D206461746120636F756E98
:10520000743A25640D0A00001400002018000020E4
:10521000D0B4C8EBB4EDCEF30D0A0000C1F7C1BFA6
:10522000B1A3B4E6B3C9B9A60D0A00004545505272
:105230004F4D20D2D1C2FA0D0A00000010B5502007
:1052400080F31188BFF34F8FBFF36F8F02F076F9B1
:1052500018B104494FF080500860002080F3118895
:1052600010BD000004ED00E070B594B02821684640
:10527000FBF746FC14210AA8FBF742FC0025012499
:105280000F950D2011951295009010954FF48030D8
:10529000CDE902540190049402260694CDE90760FA
:1052A0004FF4E01009906846FEF7B8FB08B172B6FB
:1052B000FEE70F20CDE90A064FF48060CDE90C50DF
:1052C00002210AA80E95FEF7ADFA08B172B6FEE704
:1052D0004FF48070CDE90F400FA8FEF72DFA00289B
:1052E00001D072B6FEE714B070BD704710B5FFF77D
:1052F0007BF9BDE810400148FEF70FBE8001002099
:10530000F0B50268194B1A4C1A4D4FF0804798427D
:1053100005D0B84203D0A04201D0A84203D122F068
:1053200070064A683243984205D0B84203D0A04282
:1053300001D0A84203D122F44074CA6822434C69C8
:1053400022F08002224302608A68C2620A68826296
:10535000984201D109690163012141610169C907CD
:1053600003D0016921F001010161F0BD002C014071
:10537000000400400008004010B5406A0021C185CB
:10538000C184FEF771FE10BD01680C3151E8002F99
:1053900022F4907241E80023002BF5D1016814310A
:1053A00051E8002F22F0010241E80023002BF5D143
:1053B000016B012909D101680C3151E8002F22F05D
:1053C000100241E80023002BF5D1202180F8421083
:1053D00000210163704708B590F84210222901D0DE
:1053E000022008BD82684FF480539A4201D10169BE
:1053F00021B1816A9A421BD04AB10AE00268816AEF
:105400005268C2F308020A80816A891C08E00269B6
:1054100072B10268526802F07F020A70816A491C08
:105420008162C18D491E0904090CC18503D01BE0AE
:1054300002685268F1E70168CA6822F02002CA6077
:105440000168CA6822F48072CA6001684A6922F061
:1054500001024A61202180F8421000214163026B61
:10546000012A03D0FEF7E0FF002008BD01630168B8
:105470000C3151E8002F22F0100241E80023002BEC
:10548000F5D101680A68D20602D50A684968009118
:10549000818DFEF7E8FDE7E770B504460068016915
:1054A000E26821F44051114301612169A068084379
:1054B000616908432168CA6841F20C639A43024358
:1054C000CA6020684169A26921F4407111434161B9
:1054D0001E492068884202D1FEF76AFA01E0FEF711
:1054E00057FA00EBC00101EB0012606864218000F4
:1054F000B2FBF0F3B3FBF1F36FF018067343B2FBAA
:10550000F0F5B2FBF0F605EB8305322303EB05154E
:10551000B5FBF1F5B6FBF1F605F0F00505EB061568
:10552000B2FBF0F6B2FBF0F0B0FBF1F06FF0180256
:10553000504306EB800003EB0010B0FBF1F0216854
:1055400000F00F002844886070BD00000038014062
:1055500081628285C28500214164222180F8421047
:10556000016921B10168CA6842F48072CA600168A9
:105570004A6942F001024A610068C16841F02001B5
:10558000C160002070472DE9F843984617460D4644
:105590000446089E24E0701C22D0FDF775FFA0EBA6
:1055A0000800B0421AD8CEB12068C168490717D5A3
:1055B000802D15D0402D13D00168C94309070FD4A1
:1055C00001680025406800902046FFF7DDFE0820B6
:1055D000606484F840500120BDE8F8830320FBE7B5
:1055E0002068006835EA000004D00020B842D2D01C
:1055F0000020F1E70120F9E70148FEF737BD000080
:10560000380100200EB500200090FDF75DFA00285B
:105610004AD03FA0FAF7B2FE00F050F9044600F07D
:1056200001FA84420AD23FA0FAF7A8FEFDF792F9E8
:1056300000283BD044A000BFFAF7A0FE00F03EF9DE
:10564000014646A0FAF79AFE42F2107400236A4619
:105650000121184601F0D8FF0098C0070CD0FDF7D3
:1056600057FC204601F09EFBFDF774F900281FD07F
:1056700035A000BFFAF782FE00F0CEF9002844D032
:10568000FDF746FCFDF7E4FB012813D039A0FAF73B
:1056900075FE424800231A466946006801F00CFD79
:1056A000012814D03EA013E043A0B3E747A0C3E70E
:1056B00046A0DFE74AA0FAF761FEFDF705FA20B140
:1056C00051A000BFFAF75AFEC0E755A0FAE75AA06A
:1056D000FAF754FE5D48224601A9006801F09CFDDE
:1056E0000128B3D101A8FDF76BFC0028AED058A06B
:1056F000FAF744FEFDF7E8F90028A7D148A0FAF729
:105700003DFE204601F04EFBA0E7FDF7F7FBF8E772
:10571000445455C4A3BFE9B3F5CABCBBAFCAA7B0D4
:10572000DC0D0A00525443CAB1BCE4D2ECB3A3A3CB
:10573000ACD5FDD4DAD0A3D7BC525443CAB1BCE433
:105740002E2E2E0D0A000000525443CAB1BCE4D0E4
:10575000A3D7BCCAA7B0DC0D0A000000B5B1C7B022
:10576000525443CAB1BCE4B4C1A3BA256C640D0A57
:1057700000000000445455C4A3BFE94D515454D215
:10578000D1C1ACBDD3A3ACD7BCB1B8C9CFB4ABCA3F
:10579000FDBEDD2E2E2E0D0A000000001C00002094
:1057A000B4EDCEF3A3BACEDEB7A8C9EAC7EBCAFD03
:1057B000BEDD0D0A00000000445455C4A3BFE9B388
:1057C000F5CABCBBAFB3C9B9A60D0A00525443CA4F
:1057D000B1BCE4D0A3D7BCB3C9B9A60D0A00000080
:1057E000445455C4A3BFE94D515454CEB4C1ACBDCB
:1057F000D3A3ACD5FDD4DAD6D8D0C2C1ACBDD32E9C
:105800002E2E0D0A00000000445455C4A3BFE9D653
:10581000D8D0C2C1ACBDD3CAA7B0DC0D0A0000000D
:10582000445455C4A3BFE9D6D8D0C2C1ACBDD3B38C
:10583000C9B9A60D0A000000D2D1C7EBC7F3B6C1A3
:10584000C8A1CAFDBEDD0D0A00000000180000203E
:10585000CAFDBEDDC9CFB4ABCAA7B0DC0D0A0000DB
:10586000FEE7490050EAC12018BF04204A0D18BFC6
:1058700040F0010040F2FF72B2EB515F08BF40F010
:105880000200012808BF052070470907090E0028FB
:1058900004DB00F1E02080F80014704700F00F00F6
:1058A00000F1E02080F8141D704730380A2801D23A
:1058B0000120704700207047704700000148FFF743
:1058C000D4BB0000DC000020042101EBD001400724
:1058D000800E00EB811080B2704701F063BAFDF7D3
:1058E0001ABC00007CB500F08AF90520FFF7F5FF2F
:1058F000164800F065F80520FFF7EFFF134D002074
:105900002D1FFC2128801248FBF7D8F800246E4692
:105910002046FFF7D9FF08226946FCF752FF002016
:10592000315CFF2907D00121204601F01BF92888AE
:10593000401C288003E0401CC0B20828F0D3641C3F
:10594000A4B2B4F5FC6FE3D328887CBDA800002086
:10595000B82A00207FB5194800254168491C4160DC
:1059600003A8039500F02CF8022822D0039C601CA9
:1059700019D0641C8DF80840200A8DF80900200C0D
:105980008DF80A00200E8DF80B00042202A9882051
:10599000FCF795FF0520FFF7A0FF01A8019500F097
:1059A0000FF830B902E0022004B070BD0198A042A7
:1059B00001D00120F8E70020F6E70000A400002055
:1059C00038B5040011D0042269468820FCF7F9FE9E
:1059D00000216846425CFF2A09D09DF80310009818
:1059E00061F31F602060002038BD022038BD491CD3
:1059F000C9B20429EED300202060012038BD000088
:105A000004490A685206FCD5024AC1B2121D11604F
:105A100070470000003801400148008870470000CE
:105A2000A4000020F0B5A5B02C2101A8FBF768F870
:105A30000B2222A11CA8FBF78AF8082222A11FA88A
:105A4000FBF785F818A8009019AB23AA21A11CA880
:105A5000FAF750FE23AE302221490CA8FAF7F4FFE2
:105A60000024651E0DF13007304657F82410FBF76F
:105A700099F828B1641C0C2CF6DB002025B0F0BD91
:105A8000601CFAD022A800901BAB1AAA15A11FA86F
:105A9000FAF730FE229801901B9802901A98039012
:105AA0001998CDE9040418980995A0F26C70069035
:105AB00001A8FBF7D6F8A0F5E140DFE74E6F7620AE
:105AC000313620323032350031393A33303A3236DD
:105AD00000000000253373202564202564000000A9
