:020000040800F2
:10000000C0440020450300081D4D00083747000884
:10001000294C00087D2A00088163000800000000C8
:10002000000000000000000000000000790200084D
:100030001D33000800000000BD020008855C0008B8
:100040005F0300085F0300085F0300085F03000808
:100050005F0300085F0300084F33000855330008B2
:100060005F0300085F0300085F0300085F030008E8
:100070005F0300085F0300085F0300085F030008D8
:100080005F0300085F0300085F0300085F030008C8
:100090005F0300085F0300085F0300085F030008B8
:1000A0005F030008355D00085F0300085F03000878
:1000B0005F0300085F0300085F0300085F03000898
:1000C0005F0300085F0300085F0300085F03000888
:1000D0005F0300085F0300085F0300084160000839
:1000E0005F0300085F0300085F03000800F002F8E8
:1000F00000F0B2F80AA090E8000C82448344AAF110
:100100000107DA4501D100F0A7F8AFF2090EBAE80D
:100110000F0013F0010F18BFFB1A43F0010318473B
:1001200030B9000050B900000A444FF0000C10F83C
:10013000013B13F0070408BF10F8014B1D1108BF65
:1001400010F8015B641E05D010F8016B641E01F805
:10015000016BF9D113F0080F1EBF10F8014BAD1C55
:100160000C1B09D16D1E58BF01F801CBFAD505E073
:1001700014F8016B01F8016B6D1EF9D59142D6D3CD
:10018000704700000023002400250026103A28BFF5
:1001900078C1FBD8520728BF30C148BF0B607047F9
:1001A0006E2900F03F87702901F0C18266290AF0AC
:1001B000488465290AF0458467290AF04284612948
:1001C0000AF0418403681B0A28BF41F080016929B5
:1001D00000F08A81642900F08781752900F084810C
:1001E0006F2901F04E82782901F08D82E92901F012
:1001F000E981E42901F0E681F52901F0E381EF29A5
:1002000001F04B82F82901F08C820368DB0928BFDA
:1002100041F08001632901F05881732901F05D816B
:10022000E32901F0F184F32901F0F68400207047FE
:100230001FB500F0A2FB01F0CDFA04000020002160
:1002400009F022FF401C60600020002109F006FF39
:10025000E0601FBD10B510BD01F032FF1146FFF781
:10026000E7FF06F0DCFE01F059FF03B4FFF7F2FFF1
:1002700003BC06F0BCF80000224B19680868B0E81F
:10028000F00F80F30988BFF36F8F4FF0000080F309
:1002900011884EF00D0E70470000000006480068FF
:1002A000006880F3088862B661B6BFF34F8FBFF372
:1002B0006F8F00DF00BF00BF08ED00E0EFF30980A3
:1002C000BFF36F8F0F4B1A6820E9F00F106008B56D
:1002D0004FF0500080F31188BFF34F8FBFF36F8F43
:1002E00009F054F84FF0000080F31188BDE8084091
:1002F00019680868B0E8F00F80F30988BFF36F8FC2
:10030000704700BF34000020EFF305807047000005
:100310000B49D1F800C04A685CF8043B10681844E7
:1003200042F8040B8C4528BFA1F1DC0C8A4228BF9F
:10033000A1F1DC02C1F800C04A6020F00040704723
:10034000543000200948804709480047FEE7FEE78F
:10035000FEE7FEE7FEE7FEE7FEE7FEE7FEE7FEE775
:1003600004480549054A064B70470000335D000804
:10037000ED000008C0300020C0440020C034002040
:10038000C0340020704710B54C1084EA530404D5E3
:100390004042C1F1000138BF491E1B4204D5524200
:1003A000C3F1000338BF5B1E00F05AFD14F0804F0C
:1003B00004D04042C1F1000138BF491E14F0004F83
:1003C00004D05242C3F1000338BF5B1E10BD0000D1
:1003D0007CB51D4616460C00009001D02044401EFE
:1003E000074B7B442A4669460190304601F043F8AA
:1003F00005461CB10020694601F050F828467CBD36
:10040000C11000000FB4044910B503AA029801F00E
:1004100069F810BC5DF814FB9C0000200FB41CB5FB
:10042000084B06AA7B4469460090059801F023F822
:1004300004460020694601F031F820461CBC5DF8F6
:1004400014FB00007510000070B504468569006853
:10045000C10601D5302600E02026C00707D070BDB8
:10046000D4E9012130469047206A401C20626D1E6D
:10047000F6D570BD70B5044685690078C00707D110
:1004800070BDD4E9012120209047206A401C2062E1
:100490006D1EF6D570BD70B50C460546012A05D017
:1004A0002878800600D5EA69002302E0012305E0F0
:1004B0005B1C934202D2E05C0028F9D1A869E618DF
:1004C000C01AA861286A184428622846FFF7BCFFB2
:1004D00004E0D5E9012114F8010B9047B442F8D3A8
:1004E0002846FFF7C7FF70BD2DE9F04106460024FE
:1004F00010687529314616A510D000F028FD002897
:1005000002DA404213A507E031688A0701D512A537
:1005100002E0490704D511A5012401E000F020FD07
:1005200000210A2206F1240709E0B0FBF2FCB0FB2F
:10053000F2F302FB1C00303078541846491C0028A6
:10054000F3D123462A463046BDE8F04100F011BD04
:10055000000000002D0000002B0000002000000023
:100560002DE9F05F894604464FF0000ADFF874B1C8
:10057000FB44C0F820A02046E1688847002874D0DA
:10058000252806D0D4E901219047206A401C20622A
:10059000F1E700265F462046E168884720280546A7
:1005A00007DB312D05D2781910F8200C08B106436D
:1005B000F1E7B00701D526F00406C4F81CA0002717
:1005C000C4F818A02A2D09D0284605F009FF38B331
:1005D00004EB8708303DC8F8185019E059F8041B9F
:1005E000204604EB87029161E1688847012F0546A8
:1005F00018D1E069002820DA26F020061DE0D8F89E
:10060000180000EB800005EB40003038C8F81800F7
:100610002046E1688847054605F0E2FE0028EED155
:10062000012F0AD02E2D08D12046E16888477F1C73
:100630000546022F46F02006C4DBA069002803DA35
:10064000404246F00106A061F00701D026F01006F6
:100650006C2D0BD0682D09D04C2D39D06A2D35D09A
:10066000742D35D07A2D33D016E038E0E1682F466E
:1006700020468847B842054609D16C2F26D04FF452
:100680008060E168064320468847054604E06C2FF9
:100690001AD04FF4807006430DB3A5F1410019281C
:1006A00002D8203546F400664A4629462046266090
:1006B0004E46FFF775FD80B101280BD0F61D26F0E0
:1006C000070000F1080956E74020E4E78020D8E75A
:1006D0000020D6E706F104094DE7284652E7206AD4
:1006E000BDE8F09F77B100000FB400B58DB010A940
:1006F000099000910B904FF0FF300A9000200C9071
:10070000064878440690064878446A4607900F9950
:1007100009A801F02BF80DB05DF814FB871000005C
:100720009F1000002DE9FF5F1D464FF0FF3B9146F3
:100730004FF000085F46D5E90146A96901987F1C82
:100740008847296A824688470028F6D1BAF1FF3FD8
:100750000CD0002E24F4C06419DD600614D5BAF163
:100760002B0F09D0BAF12D0F0ED103E0584604B07B
:10077000BDE8F09F44F48064A96901987F1C884714
:10078000761E8246002E02DDBAF1300F03D0B9F199
:10079000000F26D032E0A969761E01987F1C44F430
:1007A00000748847002E824605DDBAF1780F06D026
:1007B000BAF1580F03D0B9F1000F10D01EE0B9F113
:1007C000000F02D0B9F1100F18D1A969761E019857
:1007D0007F1C24F4007488478246102002E0082021
:1007E00000E00A20814609E0A96908FB0908761E95
:1007F00001987F1C44F4007488478246002E05DD72
:100800004946504600F09EFF0028EDDAE96901985C
:100810008847A00502D46FF00100A8E7E00725D1C2
:10082000600613D5600502D5C8F1000000E040461F
:1008300029680A1D2A600968220501D5087015E09B
:10084000220701D5088011E008600FE02868011D2B
:1008500029600068210502D580F8008006E02107A4
:1008600002D5A0F8008001E0C0F8008038467EE79D
:100870002DE9FF5F4FF000089946144646469169FE
:10088000D2E901A7DDF838B001988847054659EA52
:100890000B0005D009E0A1690198761C8847054640
:1008A000216A284688470028F5D1681C03D05FEAF2
:1008B000CA7005D015E04FF0FF3004B0BDE8F09FDE
:1008C0002068011D2160D0F800800AE05FEACA704C
:1008D00001D108F8015BA169761C01987F1E884749
:1008E0000546002F1ADD681C18D0B9F1000F0DD095
:1008F000E81705EBD060421120F01F0059F82210D4
:100900002A1A012090400142E0D107E0BBF1000F1C
:10091000DCD12846216A88470028D7D0E1690198B0
:100920008847BBF1000F07D1002E05DD5FEACA70D2
:1009300002D1002188F80010A068B84203DDBBF1A5
:10094000000F03D017B16FF00100B6E73046B4E7EF
:100950000B4910B5A1F17C020A4CC2E937123721CC
:1009600006E000EB104342F82130074B00FB034048
:100970000B1EA1F10101F4DC10BD0120E8E700002D
:10098000F42F0020E119D666CD0D010030B50546E3
:100990000B462A4613F8014B12F8010B08B1A0428E
:1009A000F8D01CB1002802D06D1CF1E7284630BDFC
:1009B00040EA010310B59B070FD1042A0DD310C8DC
:1009C00008C9121F9C42F8D020BA19BA884201D92E
:1009D000012010BD4FF0FF3010BD1AB1D30703D076
:1009E000521C07E0002010BD10F8013B11F8014B2C
:1009F0001B1B07D110F8013B11F8014B1B1B01D148
:100A0000921EF1D1184610BD10B5431C02E010F83B
:100A1000011B71B18107FAD14FF0013202C88C1A63
:100A20008C4314EAC211F9D0C01A0A0603D0C01EC2
:100A300010BDC01A10BD0A0401D0801E10BD0902ED
:100A4000FCD0401E10BD032A40F2308010F0030C91
:100A500000F0158011F8013BBCF1020F624498BF11
:100A600011F801CB00F8013B38BF11F8013BA2F1AE
:100A7000040298BF00F801CB38BF00F8013B11F029
:100A8000030300F02580083AC0F0088051F8043BC9
:100A9000083A51F804CBA0E80810F5E7121D5CBF36
:100AA00051F8043B40F8043BAFF30080D20724BF69
:100AB00011F8013B11F801CB48BF11F8012B24BFFD
:100AC00000F8013B00F801CB48BF00F8012B70474C
:100AD00010B5203AC0F00B80B1E81850203AA0E8D9
:100AE0001850B1E81850A0E81850BFF4F5AF5FEA0D
:100AF000027C24BFB1E81850A0E8185044BF18C9C0
:100B000018C0BDE810405FEA827C24BF51F8043B66
:100B100040F8043B08BF7047D20728BF31F8023BBA
:100B200048BF11F8012B28BF20F8023B48BF00F84E
:100B3000012B704702F0FF0343EA032242EA02421C
:100B400000F002B84FF000020429C0F0128010F04B
:100B5000030C00F01B80CCF1040CBCF1020F18BF99
:100B600000F8012BA8BF20F8022BA1EB0C0100F02C
:100B70000DB85FEAC17C24BF00F8012B00F8012BFF
:100B800048BF00F8012B70474FF0000200B5134634
:100B900094469646203922BFA0E80C50A0E80C509D
:100BA000B1F12001BFF4F7AF090728BFA0E80C504E
:100BB00048BF0CC05DF804EB890028BF40F8042B47
:100BC00008BF704748BF20F8022B11F0804F18BFB4
:100BD00000F8012B704710B5044610F0030F08BF52
:100BE00011F0030F40F015804FF0013E121FC0F2CC
:100BF0000E8051F8043BA3EB0E0C2CEA030C1CEA0C
:100C0000CE1C08BF40F8043BF0D0A1F1040102F172
:100C10000402521E08DB11F8013B002B00F8013BD7
:100C2000F7D11146FFF78EFF204610BD4FF0013C73
:100C300050F8042B51F8043B9A4221D1A2EB0C034B
:100C4000934313EACC1317D150F8042B51F8043B0B
:100C50009A4215D1A2EB0C03934313EACC130BD1A8
:100C600050F8042B51F8043B9A4209D1A2EB0C0333
:100C7000934313EACC13DBD04FF00000704700BF62
:100C8000D01A01BAB1FA81F101F0180122FA01F08B
:100C9000CB40C1F12001DBB2C0B2C01A2CFA01F383
:100CA000D11A914311EAC311E6D1704710B5036818
:100CB0001C1404EB21449BB289B2194494FBF2F357
:100CC00002FB134394FBF2F401EB034393FBF2F1B9
:100CD00002FB113193FBF2F301E05B1E114400298A
:100CE000FBDB016003EB044010BDF0B504464FF0A0
:100CF000FF3585B00068049060680290A06803909A
:100D0000E068019020690090666906F18040B0F1CA
:100D1000004F7CD83C22002104A8FFF7C7FF3C22EB
:100D2000014602A8FFF7C2FF1822014603A8FFF7F9
:100D3000BDFF411E40F2B55201A8FFF7B7FF0C22DC
:100D4000074668460021FFF7B1FF414B00EB8700E3
:100D5000304400267B4411E0511A01910099491C4E
:100D60000229009102D00C2908D105E0810705D0A5
:100D70000199491C019101E0401C00960099019ADB
:100D8000595C9142E8DD0099012906D11C2A04D161
:100D9000810702D00221CDE90016A0F146018B297E
:100DA0003CD2DDE90061002202E09F5C521C394424
:100DB000B242FADB012E02DD820700D0491E40F26A
:100DC000B55340F26D16C21700EB927292105A435F
:100DD00000F0030303FB062283070A4400D1521EDE
:100DE000039E02EB4203049F06EBC303029EC3EB88
:100DF000031306EB8303174E33441E149BB2C6EB5A
:100E00000616C3EB0313B60007EB830300E005E00F
:100E100006EB134666F31F43360C02D0284605B096
:100E2000F0BD80C4029E40C4039E40C4019E761C57
:100E300044F80C6B009E44E902600720521C92FBB0
:100E4000F0F600FB162084E823001846E7E70000D0
:100E5000D4A90000A039CEFD704770477047704795
:100E600053EA020C00F069802DE9F04B4FF00006C8
:100E7000002B1FBFB3FA83F503FA05F424FA05F635
:100E80005E4012BF1643B2FA82F502FA05F4C5F1CC
:100E900020051EBF22FA05FC44EA0C04203556EA60
:100EA000044C4FEA144418BF641C4FF000084FF084
:100EB0000009904271EB030C39D3002919BFB1FA34
:100EC00081F701FA07F6B0FA80F700FA07F6C7F1E2
:100ED00020071EBF20FA07FC46EA0C062037B6FBA7
:100EE000F4FCA7EB0507103F07F01F0BCBF1200622
:100EF0000CFA0BFB2CFA06F644BFB3460026202F53
:100F0000A4BF5E464FF0000B5BEA060C08BF4FF033
:100F1000010B19EB0B09ABFB027C48EB0608C01B6D
:100F200006FB02CC0BFB03CC71EB0C01C1E70B46BB
:100F3000024641464846BDE8F08B13B54FF000002D
:100F40004FF00001AFF30080BDE81C407047096816
:100F50004A0501D540B27047C905FCD500B27047BB
:100F600009684A0501D5C0B27047C905FCD580B2F1
:100F700070472DE9F0470D4699469246044600F128
:100F800024080168880604D5E06921F01001216079
:100F900000E00120A84201DD471B00E00027A16915
:100FA0007A1902EB0900081AA0612078C00602D461
:100FB0002046FFF749FA002608E0D4E901211AF893
:100FC00006009047206A401C761C20624E45F4DBE8
:100FD0002078C0060AD52046FFF736FA06E0D4E9A5
:100FE000012130209047206A401C2062381EA7F162
:100FF0000107F4DC07E0D4E9012118F80500904767
:10100000206A401C2062281EA5F10105F3DC204661
:10101000FFF730FA2078000602D50220BDE8F087FD
:101020000120FBE711680268006A530501D50870CA
:101030000AE0D30501D5088006E0130603D5C217E0
:10104000C1E9000200E008600120704770472DE907
:10105000FF4F0C461E464FF0FF378BB0D2E9000120
:10106000DDF860800A908A46C1F30A5505B93D460D
:10107000002108464FF00000BAF1000F00F44000D4
:1010800005DA00EB80004FF4400101EA50004FEA1E
:101090009059B9F1010F00DDB9460A9850EA4A00AB
:1010A0000ED044F61050A5F2FF3545432F14B8F189
:1010B000000F1ED07542291E1EDDC9F100021CE082
:1010C000B8F1010F4FF0000001D0302103E0F243EE
:1010D00005E02154401CB042FBDB304600220021D9
:1010E00021540B99C1F80880C1E900200FB0BDE878
:1010F000F08FBD1B6D1CDEE74A4600DA694206A888
:1011000000F048FF06AB93E8070003AB83E8070055
:1011100050460A9901F00BF88DE80700A0F5005041
:101120001F3800900398002D0ADD42F21F014A4645
:101130000844002303A90390684601F074FA09E00B
:10114000A0F500504A461F38002303A903906846C3
:1011500001F07EFA8DE807000004000C03D04FF088
:10116000FF30410800E01046B8F1000F03D0002224
:10117000009215461EE0751E05D400F02FFB30329C
:1011800062556D1EF9D5B3460122084302D00022F4
:101190007F1C04E02078302801D100227F1E002A25
:1011A000099784D01DE0112D07DA00F017FB3032CB
:1011B00062556D1C50EA0102F5D1084302D0009837
:1011C000C8B10EE00021681E05E0235C625C635438
:1011D0002254401E491C8142F7DBAB46A81B401E2F
:1011E0000990002004F80B000B98099AC0F80880B9
:1011F000C0E9002B7AE711264FF0000857E72DE9E8
:10120000F04F88460446D21D22F0070191B0D1E983
:101210000001CDE90A0105F0BFF802460B98C00FA6
:1012200001D02D2007E02068810701D52B2002E0A6
:10123000202101EAC000032A099001D0072A05DB1A
:1012400003464146204600F095FC0BE120788006DD
:1012500001D5E06900E00620B8F1650F814606D0AF
:10126000B8F1660F18D0B8F1670F70D131E00020E7
:10127000B9F1110F009001DB112301E009F1010325
:101280000AAA01A90CA8FFF7E2FEDDE90C7000260E
:1012900009F10105834647E001204B4600904FF0DD
:1012A00000470AAA01A90CA8FFF7D1FEDDE90DB09D
:1012B0000C995D46002610B909F101000D18B9EB33
:1012C000050003D4C0F1FF3609F10105A5EB0900C3
:1012D0002BE0B9F1010F01DA4FF001090020B9F15B
:1012E000110F0090484601DD112300E003460AAAD1
:1012F00001A90CA8FFF7ABFEDDE90C704D460026F6
:101300008346207800070AD4AB4500DA5D4601A881
:10131000012D04DD411911F8011C302907D04F457A
:1013200002DA17F1040F04DA012082460FE06D1E85
:10133000EEE7002F02DCED1B3E4403E0781CA842E0
:1013400000DD7D1CB81B00F1010A4FF0004720783A
:10135000000703D4AA4501DB4FF0FF3A0021B7F1A3
:10136000004F0DF143088DF8431024D002202B23A9
:10137000002F01DA7F422D230A21021EA0F1010075
:1013800000DC5FB197FBF1FC97FBF1F201FB1C7CE9
:1013900017460CF1300C08F801CDEEE7A8F101007A
:1013A00003702188090501D5452100E06521A0F1E0
:1013B000010800F8011C09980FA9A1EB0807FF1DFF
:1013C00000B10120411901EBEA70A1693844081A03
:1013D000401EA0612078C00602D42046FFF734F8F2
:1013E000099828B1D4E901219047206A401C206265
:1013F0002078C00622D52046FFF726F81EE0002EF2
:1014000004DBB34502DD01A8805D00E03020D4E9B3
:1014100001219047206A401C2062761CAAF101003D
:101420005FEA000A0AD100F0D5F9C0680168405CA3
:10143000D4E901219047206A401C2062281EA5F1B2
:101440000105DCDC07E0D4E9012118F8010B904725
:10145000206A401C2062381EA7F10107F3DC2046F9
:10146000FFF708F8032011B041E6000001694A1CAB
:1014700002610878704700B58FB0CDE901310021D5
:10148000059105497944CDE9031011466846FFF7F7
:1014900067F80FB000BD0000E5FFFFFF0A6802F823
:1014A000010B0A607047D1E900239A4202D2531C13
:1014B0000B601070704710B5436913B1AFF3008033
:1014C00001E0FEF7E8FF012010BD127800F12401D1
:1014D0000A7000224A700122EDE711684FF0FF32D6
:1014E000E9E70000074B70B50D467B44FFF7C3FFEB
:1014F0000446284600F0C0FD10B14FF0FF3070BD2B
:10150000204670BD7B5700002DE9FF5F15468A46D7
:101510000446DFF8AC80F8440027D8E900103E46C6
:10152000CDE9001010E03AF816106A4602A800F063
:10153000A7FD411C07D02178890603D5E269391837
:1015400091420DD80744761C2078800602D5E069C8
:10155000B84205DDAE42E6DB3AF816000028E2D1DB
:10156000A069C01BA0612046FEF76EFFD8E90010FD
:10157000CDE90010002017E03AF818106A4602A8DA
:1015800000F07EFDB0F1FF3F81460BD000250DF14C
:10159000080B05E0D4E901211BF8050090476D1CFC
:1015A0004D45F7D308F10100B0428046E4DB206AE4
:1015B000384420622046FEF75DFFBDE8FF9F000033
:1015C000E2A100002DE9F0418046D21D22F0070281
:1015D0000025D2E90002F52915A614D0011E72F1EA
:1015E000000106DA0023D0EB030063EB020211A630
:1015F00008E0D8F800108B0701D50FA602E04907D4
:1016000001D50EA601251146002408F1240704E0A7
:1016100000F0E4F830323A55641C50EA0102F7D188
:101620002B46324621464046BDE8F041FFF7A1BCBB
:10163000000000002D0000002B0000002000000032
:1016400030B4002100F1240408E002F00705D208BC
:10165000303542EA4372DB086554491C52EA0305FF
:10166000F3D10468002310A2250707D5A40600D4EF
:1016700021B1C46901230DA2641EC46130BCFFF70F
:1016800078BC10B5044621461068FFF769FC024695
:101690002046BDE810400023D2E7D21D22F007010A
:1016A000D1E90023CCE7000000000000300000007A
:1016B000F0B40D460188090502D5214C7C4402E0B6
:1016C0001F4C7C440E34002100F1240608E002F097
:1016D0000F071209E75D42EA03721B097754491CA0
:1016E00052EA0307F3D102780023120704D5702DC4
:1016F00006D009B1022311342246F0BCFFF739BCF1
:1017000001231034F8E770B504460D4621461068F1
:10171000FFF726FC024629462046BDE8704000231C
:10172000C6E7D21D22F00703D3E90023C0E7036810
:10173000126843F0200303600823C3610023B7E766
:1017400044A000003A2800D2303820F02002412A7C
:1017500001D3A2F13700884201D34FF0FF30704728
:10176000026811441378016018467047D16005493A
:101770007944516104497944116200211161114693
:1017800000F04EBAEDFFFFFFED000000426842B1ED
:10179000016811F8013B23B1521EC0E9001218463E
:1017A00070470121C160881E704742685AB1C36802
:1017B000016843B983688B4205D0491E521CC0E9B9
:1017C0000012002070474FF0FF307047004870470C
:1017D0005C300020004870477C30002030B5B0F10C
:1017E0000A024FEA900E71F100034EEA817EB0EBDF
:1017F0000E0061EB91014FEA101E4EEA017E10EBE4
:101800000E0041EB11114FEA102E4EEA016E10EB63
:101810000E0041EB11214FEA104E4EEA014E10EB43
:101820000E0041EB1141401841F100014FEAD00098
:1018300040EA41704FEAD10110EB80054FEA810484
:1018400044EA907444EB01046D1944EB0404521B08
:10185000A3414FF0000348BF0A3200D530BD401C01
:1018600041F1000130BD10B5044600F04FFC0068A6
:10187000005D00F0010010BD2DE9F04F04460D465B
:10188000D21D22F0070089B0D0E9009748463946BA
:1018900004F082FD0246F80F01D02D2307E02068F6
:1018A000810701D52B2302E0202101EAC0038DF836
:1018B00020300BB1012000E00020032A824601D035
:1018C000072A04DB2946204600F054F93FE120783E
:1018D000800601D40D2500E0E569C7F30A560D2DF9
:1018E00049DA00214FEA175B08464FF00000002F4D
:1018F00000F4400007DA00EB80004FF4400100EBF9
:10190000D07001EA60008115012901DD4FF0FF313F
:1019100000224FEA850CBCF1180F06D31346ACF138
:1019200018004FF08052C24003E04FF4801323FAB6
:101930000CF30CF10C0CBCF1200F04D3ACF1200C17
:1019400009FA0CF001E007FA0CF000294FF000480A
:1019500001DD18B90FE00ED140450CD319EB020997
:101960005F4121B9404502D19F4329EA0209BBEBFF
:10197000175F00D0761C2088000502D57B4878448C
:1019800002E07A487844193808AA302302F80A306D
:10199000037C0AF10101002E0AF1020A53546A463F
:1019A00002DC4FF0300101E04FF031014FF001084F
:1019B0008DF8001002D0A6F2FF3603E059EA470185
:1019C00000D06B4E002D02DC2178090704D54FF0C2
:1019D00002082E218DF80110C44600210BE0C7F348
:1019E00003433F01C35C491C6D1E02F80830052902
:1019F00008F1010801DA002DF1DC00210CE000EB18
:101A00001973491C1B786D1E082902F808304FEA2B
:101A1000091908F1010801DA002DF0DC21688B06B4
:101A200002D516E0A8F10108E04505DD02EB080348
:101A300013F8013C302BF5D0B8F1000F09DD02EBB3
:101A4000080313F8013C2E2B03D1090701D4A8F198
:101A50000108002D05DD3E2102F808106D1E08F179
:101A60000108407C002E02F8080008F1010804DAA1
:101A70002D20764202F8080002E02B2002F8080030
:101A80000A214FF47A70864208F101080BDB96FBBD
:101A9000F0F3303302F8083096FBF0F308F1010858
:101AA00000FB136601E0642E0CDB642096FBF0F370
:101AB000303302F8083096FBF0F308F1010800FB20
:101AC000136601E00A2E06DB96FBF1F0303002F8D7
:101AD000080008F1010896FBF1F001FB10603030BE
:101AE00002F80800A16908F1010808EB050202EB01
:101AF0000A00081AA0612078C00602D42046FEF72A
:101B0000A3FC216A08AE01EB0A00206204E0D4E9DC
:101B1000012116F8010B9047BAF1010AF7D220789B
:101B2000C00602D52046FEF78FFC6E4609E016F887
:101B3000010B3E280FD0D4E901219047206A401CB8
:101B40002062B8F10108F2D22046FEF793FC09B0FA
:101B50000320BDE8F08F206A2844206203E0D4E926
:101B60000121302090476D1EEBD3F8E7C99D00009E
:101B700002FCFFFF2DE9F0411F46044603260168E1
:101B8000072A01F4006004DB08B116A505E016A5DC
:101B900003E008B115A500E015A521F010002060B4
:101BA000A069C01EA0610FB1401EA0612046FEF7D3
:101BB0004BFC4FB1D4E9012138469047206A401CC4
:101BC0002062C01C206206E0206AFAE7D4E9012105
:101BD00015F8010B9047761EF8D22046FEF74AFC16
:101BE000BDE8F0814E414E006E616E00494E4600E8
:101BF000696E660010B5436913B1AFF3008001E070
:101C0000FFF782FC012010BD128800F124018284BC
:101C10000022C2840122EDE711684FF0FF32E9E7AC
:101C20002DE9F34F4FF0000A0C4656468DB00120C7
:101C30000C9001F10C000B9062690B980121904708
:101C4000051E2DD0252D2CD0216A8847C0B1626990
:101C50000B9801219047216A88470028F7D16269D3
:101C6000411E0B98904700E0761CA1690D988847AB
:101C7000216A88470028F7D1E1690D988847DBE79A
:101C8000A1690D988847A842074601D1761CD3E781
:101C9000E1690D9888477F1C02D1BAF1000F6FD01F
:101CA0006BE162690B9800273D46394690472A2828
:101CB00004D162690B98012190470125DFF8D08299
:101CC00062690B9801219047A0F130010A290AD2DC
:101CD0004745E5DC07EB870100EB4107303FDFD4E8
:101CE00045F01005ECE7E90601D46FF000476C28D9
:101CF0000AD04C2814D0682815D06A280DD0742832
:101D00001CD07A281AD01DE062690B9801219047F7
:101D10006C2802D045F0040514E045F002050DE002
:101D200045F020050AE062690B9801219047682878
:101D300002D045F0080505E045F4006562690B989E
:101D400001219047C4E9015765283DD019DC582886
:101D50007AD00CDC452837D004DC252826D0412851
:101D60009ED131E046282FD0472899D12CE05B281E
:101D700077D0612828D063287CD0642823D15AE00A
:101D8000F6E06F2848D008DC66281DD067281BD0F5
:101D9000692821D06E2816D127E0702845D07328F5
:101DA00068D0752847D078280DD14DE0A1690D98ED
:101DB0008847252805463FF469AFE1690D988847B3
:101DC0006D1C3FF46AAFD8E00D9923466A466FF068
:101DD0000100AFF30080C5E045F0400023464FF01E
:101DE00000026060A80736D43EE0E8077FF447AF02
:101DF0002068011D21600068290501D506701BE7D8
:101E0000290701D5068017E7A90703D5F117C0E90F
:101E1000006111E706600FE745F0400023464FF0F0
:101E200008026060A80716D41EE040F60E0125EAFD
:101E30000100606016E045F0400023464FF00A02C2
:101E40006060A80707D40FE045F040006060A80775
:101E500008D5234610220D996FF00100AFF30080E2
:101E600080E007E0102223460D996FF00100FEF795
:101E700059FC77E04FF0000963284F46C8464B46AF
:101E8000CB4602D05B2806D038E0E80601D401201A
:101E9000A060012732E06269D4F80CB00B980121F0
:101EA00090475E2807D14FF0010949466269D4F88E
:101EB0000CB00B989047216939B900210A4603AB51
:101EC00043F82120491C0829FADBD8B3216949B31A
:101ED00008F1010862690B98012190475D28F4D14F
:101EE000B9F1000F09D0002003A951F82020D243F6
:101EF00041F82020401C0828F7DB03AB20690028AC
:101F000020794FEA40701ED05B462246CDF8008013
:101F1000CDE901970D9900286FF0010020DAAFF3A9
:101F200000801FE0C11703AA00EBD1614B1121F023
:101F30001F0102EB8302411A13680120884003430A
:101F40001360C7E719E00D99224600286FF00100E1
:101F5000009702DAAFF3008004E0FEF789FC01E0AD
:101F6000AFF3008000280ADA401C06D10C9820B19B
:101F70004FF0FF300FB0BDE8F08F5046FAE7E907A9
:101F800001D10AF1010A064400200C9054E6000039
:101F9000CCCCCC0C2DE9F047814616468AB03548AA
:101FA00078440DC88DE80D0032487844801C03AC9D
:101FB0000DC884E80D0041F69B300844372190FBA2
:101FC000F1F290FBF1F5A5F1800501FB12041B3C39
:101FD00002D56442012000E00020DFF898A080468E
:101FE0000027FA44AAF1BE0A0EE0E0070AD0324602
:101FF000684607EB470101230AEB810100F028FB4B
:102000008DE8070064107F1C002CEED1194F7F442F
:10201000AE3F19E0E80715D007EB04100DF1180AE0
:1020200090E80E008AE80E00C068F04201D19819CD
:1020300008903246012306A903A800F009FB03AB70
:1020400083E807006D10641C002DE3D14FF00103FD
:1020500032466946B8F1000F03A802D000F0E3FA57
:1020600001E000F0F5FAC9E90001C9F808200AB05A
:10207000BDE8F08738980000007B00F080007047D2
:1020800070B516460C46054600F040F8036893F814
:102090000101012806D0FF2C0FD8185D68B101207E
:1020A0002C7070BDD3F807013246214603F20713A6
:1020B00003442846BDE8704018474FF0FF3070BD1C
:1020C0007546FFF783FBAE4605006946534620F090
:1020D0000700854618B020B5FEF742F9BDE820405C
:1020E0004FF000064FF000074FF000084FF0000BD4
:1020F00021F00701AC46ACE8C009ACE8C009ACE887
:10210000C009ACE8C0098D467047000010B5FFF764
:1021100061FB001D10BD00BF717F000010B50446BB
:10212000AFF300802046BDE81040FEF79EB85FEA9E
:10213000400C08BF91F0000F4FEA8C234FEAC122F8
:1021400043EA51514FEA1C5018BF00F5F0404FEAE6
:10215000300018BF41F000415FEA6C5C00F029805C
:10216000BCF1FF3F08BF40F080407047130C06BF32
:1021700012044FF0100C4FF0000C130E04BF1202AB
:102180000CF1080C130F04BF12010CF1040C930F97
:1021900004BF92000CF1020CD30F04BF52000CF1EB
:1021A000010C11464FF00002A0F11F00A0EB0C0043
:1021B000704711F0004F08BF704731F000413FF405
:1021C000D5AF0B0C06BF09044FF0100C4FF0000CFC
:1021D0000B0E04BF09020CF1080C0B0F04BF090120
:1021E0000CF1040C8B0F04BF89000CF1020CCB0F17
:1021F00004BF49000CF1010CCCF12003A0EB0C0052
:1022000022FA03F302FA0CF241EA030100F10100A1
:10221000704720F07F4C80EA030023F07F47ACEB4F
:10222000070303F57C5300F0004003F1FF032DE9A1
:1022300080494FEA154B09B44FEA144325EA0B4E87
:1022400024EA03480FF2042606EB132749083E78D8
:102250005FEA320203FB0667C7F5000707FB06F6D5
:102260004FEA54374FEAD64606F1020607FB066CE2
:10227000CCF1005C4FEA1C472CEA074C07FB06F444
:102280000CFB06F504EB15464FEA961634BF00200A
:102290004FF000404FEAD13706FB07FC4FEA1C4CD9
:1022A0000CFB0BF7D21B03FB0CF761EB07010CFBDC
:1022B0000EF7B0EB074072EB17420CFB08F734BF88
:1022C000A2EB0742B2EB074261EB17414FEA0C4425
:1022D0004FEA910706FB07FC4FEA1C4C0CFB0BF77F
:1022E000B0EBC74072EB573203FB0CF734BFA2EBE5
:1022F000C742B2EBC74261EB57310CFB0EF7B0EBB4
:10230000C70072EB57720CFB08F734BFA2EBC70291
:10231000B2EBC70261EB5771039F4FEA816141EA5B
:10232000921104EBCC044FEAD1374FEA826206FBEC
:1023300007FC42EA90124FEA80604FEA1C4C0CFB0B
:102340000BF7D21B03FB0CF761EB07010CFB0EF73D
:10235000B0EB074072EB17420CFB08F734BFA2EB5F
:102360000742B2EB074261EB17414FEA8C554FEA47
:10237000910704EB9C2406FB07FC4FEA1C4C0CFB6A
:102380000BF7B0EBC74072EB573203FB0CF734BFCF
:10239000A2EBC742B2EBC74261EB57310CFB0EF721
:1023A000B0EBC70072EB57720CFB08F734BFA2EB1F
:1023B000C702B2EBC70261EB577115EB4C254FEA30
:1023C000816141EA92114FEA82624FEAD13742EAD3
:1023D000901206FB07FC44F100044FEA80604FEACC
:1023E0001C4C0CFB0BF7D21B03FB0CF761EB07013A
:1023F0000CFB0EF7B0EB074072EB17420CFB08F733
:1024000034BFA2EB0742B2EB074261EB174115EB79
:102410001C154FEA813141EA92414FEA823242EA89
:1024200090424FEA80304FEA0C7644F1000448EACB
:1024300003434EEA0B484FF0000EB2EB080C71EB71
:10244000030724BF624639464EEB0E0E4FF0000BD9
:102450000018524149414BEB0B0BB2EB080C71EBEE
:1024600003077BF1000B24BF624639464EEB0E0E8C
:102470004FF0000B0018524149414BEB0B0BB2EBF4
:10248000080C71EB03077BF1000B24BF6246394651
:102490004EEB0E0E51EA020718BF46F0010616EB8E
:1024A0000E7655F1000254F1000103D5BDE8890113
:1024B000BDE80088BDE88901BDE80048B619524171
:1024C00041EB0101A3F10103704780807F7E7D7C99
:1024D0007B7A7978777676757473727171706F6EB6
:1024E0006E6D6C6C6B6A6A69686867666665646461
:1024F000636362616160605F5F5E5E5D5D5C5C5BEB
:102500005B5A5A5959585857575656555555545459
:10251000535352525251515050504F4F4F4E4E4DB7
:102520004D4D4C4C4C4B4B4B4A4A4A494949484803
:102530004847474747464646454545444444444343
:1025400043434342424242414141002B9C4630D4E6
:1025500077002BD01CB54FEA370703B44FF01000BB
:102560004FF01001BAF1000F06D0BCF1000FDCBF34
:1025700040F0080040F008014FF000000FBCBDE83B
:1025800010400BF1010BBBF1010F08BF5FEA170709
:1025900022BF12F1010211F101014FF0004143F19C
:1025A000000300F0004043EA00007047F9D35708E9
:1025B000D0E746EA064613F1400F4FEA16461FDD04
:1025C00013F1200FDFBF16430A46002120335B4280
:1025D000BED0C3F1200746EA064602FA07F74FEAE3
:1025E000164646EA0706C3F1200722FA03F201FA6B
:1025F00007F721FA03F14FF0000342EA0702A7E7C9
:1026000046EA020646EA06464FEA164646EA01064A
:10261000BCBF46EA0646360C4FF000034FF00002FE
:102620004FF0000194E72DE9804C9A46934670B430
:1026300091E8380007C831EA400C48BF34EA430C3F
:1026400003D5FFF7E6FDFFF780FFF0BCBDE8008C87
:102650002DE9804C9A46934670B491E8380007C83B
:1026600010F0804F08BF13F0804F03D100F005F841
:10267000FFF76BFFF0BCBDE8008C20F07F4780EADD
:10268000030023F07F4C07EB0C03A3F57C5300F011
:102690000040A3F1FE0392F0000F00F0B38095F02C
:1026A000000F00F077802DE901494FEA11404FEA11
:1026B000144621EA004800FB06FC24EA064708FB12
:1026C00006F607FB08F800FB07F718EB06484CEB8B
:1026D000164C4FEA124B18EB07484FEA15464CEBE5
:1026E000174022EA0B4E0BFB06FC25EA06470EFBC1
:1026F00006F607FB0EFE0BFB07F71EEB064E4CEB38
:10270000164C4FF000061EEB074E4CEB174B18EB28
:102710000B0840F1000018EB0E0B58EB000840F1DD
:1027200000008F1A4FF000013CBFC943661B14BF65
:10273000B5EB040C00213CBFC943F61B4FEA17441C
:102740004EEA8E0E27EA04454FEA1C4704FB076257
:102750002CEA074C05FB07F70CFB05F604FB0CFC09
:1027600016EB074642EB174216EB0C4642EB1C42B7
:102770001BEB060658EB0202414146EA9E0601D5D4
:10278000BDE80189B619524141EB0101A3F10103F2
:10279000BDE801894FEA14454FEA114724EA05468E
:1027A00021EA074C05FB07F406FB07F70CFB06F1D3
:1027B00005FB0CFC11EB074144EB17444FEA1247B1
:1027C00011EB0C4144EB1C4422EA074C05FB07F2D9
:1027D00006FB07F70CFB06F605FB0CFC16EB0746A1
:1027E00042EB174216EB0C4642EB1C456A1854F1BB
:1027F000000148BF7047B619524141EB0101A3F1F6
:102800000103704795F0000F37D04FEA11424FEAAD
:10281000144721EA024624EA074C02FB07F106FBB3
:1028200007F70CFB06F402FB0CFC14EB074441EB2E
:1028300017414FEA154714EB0C4441EB1C4125EAC4
:10284000074C02FB07F506FB07F70CFB06F602FB3D
:102850000CFC16EB074645EB174516EB0C4645EB13
:102860001C42121951F1000148BF7047B61952417C
:1028700041EB0101A3F1010370474FEA14454FEA10
:10288000114724EA054621EA074C05FB07F106FB40
:1028900007F70CFB06F24FF0000605FB0CFC12EBF1
:1028A000074241EB174112EB0C4251EB1C4148BF70
:1028B0007047921841EB0101A3F10103704730B555
:1028C00091B0FF2240216846FEF734F900244FF40E
:1028D000804540226946204600F087F8052003F035
:1028E0003AFE4034A4B2AC42F3D311B030BD2DE96E
:1028F000F04114000E4605462DD0B5F5804F2AD282
:1029000004F012FBA02004F0F2FA04F03AFB280ACB
:1029100004F0EDFA04F035FBE8B204F0E8FA04F054
:1029200030FB04F001FBA12004F0E1FA04F029FBE4
:102930000025671E09E0BD4201D0012000E0002013
:1029400004F0B2FA70556D1CADB2A542F3D3BDE8E8
:10295000F04104F001BBBDE8F08110B50446B0F5CC
:10296000804F01D3FF2010BD04F0DEFAA02004F058
:10297000BEFA04F006FB200A04F0B9FA04F001FBE9
:10298000E0B204F0B4FA04F0FCFA04F0CDFAA120AD
:1029900004F0ADFA04F0F5FA002004F085FA0446DC
:1029A00004F0DAFA204610BD70B50D460446B0F5C5
:1029B000804F19D204F0B8FAA02004F098FA04F07D
:1029C000E0FA200A04F093FA04F0DBFAE0B204F033
:1029D0008EFA04F0D6FA284604F089FA04F0D1FA07
:1029E000BDE8704004F0B8BA70BD70B515000E4671
:1029F00004462ED0402D2CD8B4F5804F29D224F097
:102A00003F00403080B26119814201D9001B85B27C
:102A100004F08AFAA02004F06AFA04F0B2FA200A5C
:102A200004F065FA04F0ADFAE0B204F060FA04F0E4
:102A3000A8FA002407E0305D04F059FA04F0A1FA86
:102A400018B9641CA4B2AC42F5D3BDE8704004F0E0
:102A500083BA70BD10B502F071FF044603F06CFD3F
:102A60001CB1054A011B914203D903F08AFC0120E5
:102A700010BD002010BD0000008D2700FEE7000003
:102A80000149002008607047C000002010B5802177
:102A90000348FEF757F803490020488010BD0000A6
:102AA000CC280020AC0000202DE9F04798B000258C
:102AB0002C462C2105A8FEF767F806E0642006F0F6
:102AC0008DFB6D1CEDB2022D77D843A143A000F021
:102AD0002FFB0028F2D1C82006F080FB0026B2466A
:102AE00042F2107901E0012419E03DA70FF2E80855
:102AF000FFF7CCFF00253846FDF786FF82B20A2398
:102B000039463A4801F0C6FD4F461435ADB200F0E3
:102B1000F3FB68B941463648FDF738FF40B1642001
:102B200006F05CFB33A13248FDF730FF68B10DE0E1
:102B3000142006F053FBBD42E7D3642006F04EFBA1
:102B4000761CF6B2022ED0D9CDE7012412AD15AB1A
:102B500014AA13A98DE82E0016AB10AA27A1801D78
:102B6000FDF7C2FD062800D001241098B0F5FD6FD6
:102B700000DC0124A0F26C710A911699A0F2E970B0
:102B8000491E099113990891149907911599069175
:102B90001299CDF834A00591102801D3012402E048
:102BA00005A802F090FE00250BE006E0642006F088
:102BB00015FB6D1CEDB2022D03D9012018B0BDE844
:102BC000F08705A112A000F0B3FA0028EED1322060
:102BD00006F004FB2046F1E74F4B00002B2B2B00A7
:102BE00041542B43434C4B3F0D0A00001002002080
:102BF000CC2800202B43434C4B3A000025642F2562
:102C0000642F25642C25643A25643A25640000006D
:102C100041542B454E544D0D0A00000038B5002498
:102C200000F06AFA01228049804801F005FD4FF466
:102C30007A75284606F0D2FA7DA00090804B942247
:102C400080A1002002F0A6FB06E000BF06F0C6FA55
:102C5000641CE4B2022C72D87EA17FA000F068FA56
:102C600000284FF06400F1D106F0B8FA7BA0009084
:102C7000734B9F2273A1002002F08CFB06E000BF83
:102C800006F0ACFA641CE4B2022CE4D871A177A07F
:102C900000F04EFA00284FF06400F1D106F09EFAE1
:102CA00074A00090664BAA2266A1002002F072FB7D
:102CB00006E000BF06F092FA641CE4B2022CCAD807
:102CC00064A171A000F034FA00284FF06400F1D143
:102CD00006F084FA71A00090594BB52259A100204A
:102CE00002F058FB06E000BF06F078FA641CE4B27C
:102CF000022CB0D857A16FA000F01AFA00284FF0AC
:102D00006400F1D106F06AFA6FA000904C4BC0222B
:102D10004CA1002002F03EFB06E000BF06F05EFA88
:102D2000641CE4B2022C69D84AA170A000F000FA39
:102D300000284FF06400F1D106F050FA00E05DE0A9
:102D400072A000903E4BCB223EA1002002F022FB5D
:102D500006E000BF06F042FA641CE4B2022C4DD833
:102D60003CA177A000F0E4F900284FF06400F1D115
:102D700006F034FA7EA00090314BD62231A100201B
:102D800002F008FB06E000BF06F028FA641CE4B27B
:102D9000022C33D82FA17EA000F0CAF900284FF0F2
:102DA0006400F1D106F01AFA80A00090244BE122D1
:102DB00024A1002002F0EEFA06E000BF06F00EFAB1
:102DC000641CE4B2022C19D822A181A000F0B0F951
:102DD00000284FF06400F1D106F000FA84A00090C2
:102DE000174BEC2217A1002002F0D4FA08E064206F
:102DF00006F0F4F9641CE4B2022C01D9012038BDBC
:102E000014A17EA000F094F90028F0D1284606F025
:102E1000E5F97CA000900A4BF7220AA1002002F0FD
:102E2000B9FA002038BD0000AC00002010020020DC
:102E3000312E20BDF8C8EBD6B8C1EEC4A3CABD0080
:102E40002CAD00082E2E5C4253505C453447445450
:102E5000552E63004F4B00002B2B2B00322E20B23F
:102E6000E2CAD44154D6B8C1EE00000041540D0A64
:102E700000000000332E20C9E8D6C3B2BBBBBAB4F1
:102E8000E6CAFDBEDD00000041542B4341434845E6
:102E9000454E3D4F46460D0A00000000342E2041AD
:102EA000542B574B4D4F44313D4D5154542E2E2EE3
:102EB0000000000041542B574B4D4F44313D4D51C4
:102EC00054540D0A00000000352E2041542B4D5162
:102ED00054545356313D382E3133372E3132342E3F
:102EE0003232302C313838332E2E2E0041542B4DB7
:102EF0005154545356313D382E3133372E313234FC
:102F00002E3232302C313838330D0A00362E204123
:102F1000542B4D515454434F4E4E3D6573703832CF
:102F20003636436C69656E742C746573742C31325B
:102F30003334353637382C36302C312E2E2E0000D7
:102F400041542B4D515454434F4E4E3D6573703890
:102F5000323636436C69656E742C746573742C312B
:102F6000323334353637382C3132302C310D0A00BB
:102F7000372E2041542B4D515454535542313D2F3F
:102F80006675656C2F646174612C302E2E2E0000E6
:102F900041542B4D515454535542313D2F66756564
:102FA0006C2F646174612C300D0A0000382E2041B2
:102FB000542B4D515454505542313D2F6675656C1C
:102FC0002F646174612C302C302E2E2E00000000F6
:102FD00041542B4D515454505542313D2F66756527
:102FE0006C2F646174612C302C300D0A00000000DD
:102FF000392E2041542B532E2E2E000041542B539A
:103000000D0A000031302E4454555F496E6974201A
:103010004F4B000070B50024254605E006F0DEF8B1
:10302000641CE4B2022C25D819A11AA000F080F883
:1030300000284FF06400F1D106F0D0F809E06420D8
:1030400006F0CCF8641CE4B2022C02D9002401255D
:1030500005E011A113A000F06BF80028EFD1642067
:1030600006F0BCF808E000BF06F0B8F8641CE4B253
:10307000022C01D9012070BD05A10EA000F058F866
:1030800000284FF06400EFD106F0A8F8284670BD84
:103090004F4B00002B2B2B00436F6E6E65637465E6
:1030A0006400000041542B534F434B4C4B313F0DB8
:1030B0000A00000041542B454E544D0D0A000000FB
:1030C00010B501221103024800F0DDFA002010BD06
:1030D000000C014010B500224FF48051054800F06B
:1030E000D2FA4FF4FA6006F079F8FFF7CFFC00202F
:1030F00010BD0000000C014070B501220B4D1403FF
:103100002146284600F0BFFA4FF4967006F066F8A4
:1031100000222146284600F0B6FA4FF4FA6006F085
:103120005DF8FFF7B3FC002070BD0000000C01400B
:1031300070B50E460546FFF7A9FC00242846FDF7AA
:1031400063FC82B20A2329460C4801F0A3FA42F23A
:1031500010751434A4B200F0CFF840B931460848D5
:10316000FDF714FC18B1FFF791FC002070BD14208E
:1031700006F034F8AC42ECD3012070BD1002002000
:10318000CC28002010B500F005F8012800D0002060
:1031900010BD000010B5044686B0006807F0CCF8FA
:1031A00002AB626883E8070025A000902E4B40F236
:1031B00003122EA1002002F0EDF8206807F0BCF801
:1031C00004228DE807002DA139486268FDF726F931
:1031D000374938A0CDE90001234B4FF4837223A176
:1031E000002002F0D7F832490846FFF7A1FF002877
:1031F0001DD133A000901C4B4FF484721BA1002002
:1032000002F0C8F8334800231A4605A9006806F002
:10321000D7F901280BD030A00090134B4FF48572E2
:1032200012A1022002F0B6F8012006B010BD322033
:1032300005F0D4FF80211E48FDF784FC0020F4E750
:10324000D2D1BDD3CAD5C9CFB4ABCAFDBEDD3A20F9
:10325000252E3366204C2C20CAB1BCE4B4C1A3BADD
:10326000256C64205300000035AD00082E2E5C4212
:1032700053505C4534474454552E63007B22746997
:103280006D657374616D70223A256C643030302C3A
:10329000226675656C5F746F74616C223A25662CCA
:1032A000226E756D626572223A25647D0D0A0000FA
:1032B0004C290020B7A2CBCDD4D8BAC925730000C1
:1032C000CAFDBEDDC9CFB4ABB3C9B9A6A3A1A3A142
:1032D000A3A1000020000020B4EDCEF3A3BACEDEFF
:1032E000B7A8B7A2CBCDB5BDC7EBC7F3C9BEB3FD79
:1032F000B6D3C1D00D0A00000748418839B14188D2
:103300008288914205D10021418008467047012002
:10331000704741888180FAE7AC000020704770B5A3
:103320004FF0E02300215C6900EBC0009A69C50002
:1033300098699042FCD002D2A2EB000202E0A4EB1A
:103340000006324411440246A942F1D370BD012067
:1033500000F090B8022000F08DB872B6FEE70000D1
:1033600010B5054C206806F0D6FED4E90223BDE86E
:10337000104006F0E3BE0000C000002010B590F839
:1033800021100022022905D00421816380F8202029
:10339000012010BD01680B6823F00E030B6001686B
:1033A0000B6823F001030B6090F84030C46B0121DF
:1033B00001FA03F3636080F8211080F820201046A2
:1033C00010BD000010B590F821100024022903D090
:1033D0000421816301243DE001680A6822F00E02A5
:1033E0000A6001680A6822F001020A601A4A01684C
:1033F000914201D1012121E0174A1432914201D1B9
:1034000010211BE0144A2832914201D1891515E0A0
:10341000114A3C32914201D189140FE00E4A5032D8
:10342000914202D14FF4803108E00B4A643291425C
:1034300002D14FF4801101E04FF08071064A083A42
:103440005160012180F82110002180F82010416B8B
:1034500001B18847204610BD0800024004490128F8
:1034600001D0022802D10868401C086070470000A3
:10347000C0000020044910B50A68024202D008606A
:10348000FFF7ECFF10BD0000140401402DE9F84FD8
:10349000DFF8B8910024A9F1040B23460F2709F1A6
:1034A000040AABF1040EC9E00125A5402A40AA4256
:1034B0007DD1674ED1F804C0ACEB0608B44532D0DC
:1034C00014DCBCF1030F3AD009DCBCF1000F2AD0A8
:1034D000BCF1010F1CD0BCF1020F31D11DE0BCF1D9
:1034E000110F17D0BCF1120F2AD119E0B8F5881FBF
:1034F00019D006DCB8F5803F15D0B8F5801F1FD174
:1035000011E0B8F5001F0ED0B8F5041F18D10AE07D
:10351000CB6815E0CB681B1D12E0CB6808330FE0C9
:10352000CB680C330CE08B682BB1012B4FF00803F8
:1035300003D0456104E0042302E0056100E00023BC
:10354000FF2A01D8064601E000F104064FEA84058F
:1035500001D9A5F12005D6F8008007FA05FC28EA74
:103560000C0803FA05F548EA0508C6F800804D681E
:10357000ED0062D5374DAE6946F00106AE61AD692A
:1035800024F0030605F001050095334D06EB050C0C
:10359000DCF80850A607360F07FA06F825EA0805F2
:1035A000DFF8B880404503D14FF0000817E044E051
:1035B000DFF8AC80404502D14FF001080FE0DFF8A2
:1035C000A480404502D14FF0020808E0DFF898805F
:1035D000404502D14FF0030801E04FF0040808FA1B
:1035E00006F848EA0508CCF808804D68D9F800606C
:1035F000ED024D4601D5164300E096432E604D681E
:10360000DAF80060AD02554601D5164300E0964356
:103610002E604D68DBF80060AD035D4601D51643B2
:1036200000E096432E604D68DEF80060ED037546BD
:1036300001D5164300E096432E60641C0D682A46AF
:10364000E5407FF431AFBDE8F88F00000804014089
:10365000000011100010024000000140000801406D
:10366000000C014000100140001401408068084037
:1036700000D001207047C26821EA02030A4043EAF1
:103680000241016170470AB1016170470904FBE71B
:1036900001488068704700002400002070B50400D5
:1036A00013D021684CF6CC400860216845F2555093
:1036B0000860D4E9000141602168A0688860FFF7D4
:1036C000E7FF054641F23C360DE0012070BD00BF2A
:1036D000FFF7DEFF401BB04205D92068C0688007B5
:1036E00001D0032070BD2068C0688007F0D1216838
:1036F0004AF6AA200860002070BD00684AF6AA2198
:10370000016000207047000002488168027811447F
:103710008160704724000020074810B5016841F01F
:1037200010010160032000F0A1F80F2000F006F85E
:1037300000F04AF8002010BD0020024030B50546D8
:103740001C4887B0816941F400618161806906A9E4
:1037500000F40060009001A800F010FA00F03EFABA
:103760001549164AB0FBF1F11548491E0260416047
:1037700040F2E7320021C0E903218160816100F05D
:1037800086FC040012D10E4800F0B0FC04000DD1FC
:10379000192000F03DF8102D07D2002229461920EB
:1037A00000F044F80748056000E0012407B0204617
:1037B00030BD00000010024040420F00002C0140CC
:1037C00058020020280000200F4808B5816941F008
:1037D00001018161816901F001010091C16941F03C
:1037E0008051C161C069002200F0805000900F211B
:1037F000901E00F01BF80548416821F0E06141F09F
:103800000071416008BD000000100240000001404E
:10381000002809DB00F01F020121914040098000CF
:1038200000F1E020C0F8001170470000F0B40E4B2A
:103830001B680C46C3F30223C3F10705042D00D90E
:103840000425191D072901D2002300E0DB1E0126F3
:1038500006FA05F1491E214099409E40761E164009
:103860003143F0BC02F0ACBD0CED00E0064900F0C5
:10387000070208684FF6FF03184040EA0220034A97
:1038800010430860704700000CED00E00000FA05EE
:10389000BFF34F8F05480168054A01F4E061114309
:1038A0000160BFF34F8F00BFFDE700000CED00E0AB
:1038B0000400FA05014901200862704700000E4229
:1038C00010B501460020234C012922D0022939D00D
:1038D00010291DD161682268D20119D51E48C1F393
:1038E0008342C903805C0AD561681B4AC1F3404129
:1038F000921E515C194AB2FBF1F1484301E01849AC
:1039000048436168490203D440000321B0FBF1F051
:1039100010BD226AC2F30121012903D1920701D50A
:10392000C80310BD022905D1626A920702D549F683
:10393000404010BD0329FCD121688903F9D54FF21D
:10394000244010BD00F04AF96168C1F38131491C7F
:103950004900DBE700100240D5AB000800127A00F6
:1039600000093D002DE9F84305460078354CC007B5
:1039700054D0E0690026C00008D4E06940F08050CF
:10398000E061E069012600F0805000902E48016857
:10399000C90512D40168804641F480710160FFF7C7
:1039A00077FE074605E000BFFFF772FEC01B6428E4
:1039B00023D8D8F80000C005F6D5206A10F440706E
:1039C00021D0A98801F4407181421CD0206A1F498E
:1039D000012220F440700A6000220A602062C007C1
:1039E00011D0FFF755FE074641F2883808E000BFC6
:1039F000FFF74EFEC11B414502D90320BDE8F88305
:103A0000206A8007F4D5206A696820F44070084372
:103A100020621EB1E06920F08050E06128788007C4
:103A200005D56068A96820F44040084360602878A4
:103A3000C00605D56068E96820F48000084360602E
:103A40000020DBE7001002400070004040044242CA
:103A50002DE9F0470F46050061D0434E306800F075
:103A60000700B84209D2306820F0070038433060C0
:103A7000306800F00700B84251D128683B4C8107FC
:103A800012D5400703D5606840F4E0606060287894
:103A9000000703D5606840F4605060606068A96802
:103AA00020F0F000084360602878C00728D06868DC
:103AB000012810D02168022810D0890700292EDAA9
:103AC000616821F0030101436160FFF7E1FD804679
:103AD00041F288390DE021688903EFE78901EDE7BC
:103AE000FFF7D6FDA0EB0801494502D90320BDE848
:103AF000F0876068696800F00C00B0EB810FEFD1CF
:103B0000306800F00700B8420BD9306820F0070099
:103B100038433060306800F00700B84201D001201F
:103B2000E5E72878400705D56068E96820F4E0609B
:103B3000084360602878000706D56068296920F48A
:103B4000605040EAC100606000F058F86168084ABF
:103B5000C1F30311515CC84006490860064800687B
:103B6000FFF7ECFD0020C2E70020024000100240F9
:103B7000E5AB000830000020280000200F22026082
:103B80000C4A536803F003034360536803F0F003E7
:103B90008360536803F4E063C36052684FF4E063EA
:103BA00003EAD20202610448006800F007000860DE
:103BB0007047000000100240002002400448054900
:103BC00000684968044AC1F30221515CC84070474B
:103BD0003000002000100240F5AB00080448054901
:103BE00000684968044AC1F3C221515CC84070476B
:103BF0003000002000100240F5AB00080E4A51686A
:103C00000E4801F00C03042B11D0082B0FD10C48E7
:103C1000C1F38343C903C05C0AD55168084AC1F3A4
:103C20004041921E515C054A5043B0FBF1F0704791
:103C300004494843704700000010024000127A0017
:103C4000C3AB000800093D002DE9F84F040070D017
:103C50002078C04DC00749D06868C0F381000128B2
:103C600007D06868C0F38100022809D16868C003E2
:103C700006D52868800339D560680028E7D035E08C
:103C80006068B0F5803F0BD010B1B0F5A02F11D017
:103C9000286820F480302860286820F4802002E022
:103CA000286840F480302860606890B1FFF7F0FC2D
:103CB00006460AE0286840F480202860F0E700BF4C
:103CC000FFF7E6FC801B642873D828688003F7D5CB
:103CD0000CE0FFF7DDFC064605E000BFFFF7D8FC6F
:103CE000801B6428F0D828688003F7D420789A4E87
:103CF00080074FF001094FF0000839D5686810F0CF
:103D00000C0F07D06868C0F38100022809D16868E9
:103D1000C00306D42868800714D52069012808D17B
:103D200010E02069B0B1C6F80090FFF7B1FC07467B
:103D300005E00AE1FFF7ACFCC01B0228C4D82868E4
:103D40008007F7D52868616920F0F80040EAC100D3
:103D500028600DE0C6F80080FFF79AFC074604E0F3
:103D6000FFF796FCC01B022823D828688007F7D4E9
:103D7000207800072CD57948A169D9B1C0F8009006
:103D8000FFF786FC074604E0FFF782FCC01B022811
:103D90000FD8686A8007F7D571484FF4FA51006868
:103DA000B0FBF1F0009000BF0098411E0091FAD2E4
:103DB0000EE080E0C0F80080FFF76AFC074604E0F0
:103DC000FFF766FCC01B022875D8686A8007F7D425
:103DD0002078400760D5E8690027C00008D4E8696A
:103DE00040F08050E861E869012700F080500090C1
:103DF0005C480168C90513D40168834641F48071A9
:103E00000160FFF745FC824606E000BFFFF740FC7B
:103E1000A0EB0A0064284ED8DBF80000C005F5D5F9
:103E2000E06801280AD008B1052813D0286A20F0DC
:103E300001002862286A20F0040002E0286A40F0AD
:103E400001002862E06841F2883B98B1FFF720FC4E
:103E500082460BE0286A40F004002862EEE700BFCB
:103E6000FFF716FCA0EB0A0159455AD8286A8007CB
:103E7000F6D50CE0FFF70CFC824605E0FFF708FCE6
:103E8000A0EB0A0159454CD8286A8007F6D41FB127
:103E9000E86920F08050E861E06988B36968C1F39F
:103EA0008101022944D00228C6F8608004D0FFF7BF
:103EB000EFFB044638E034E0FFF7EAFB074604E096
:103EC000FFF7E6FBC01B02282BD828688001F7D437
:103ED000206AB0F5803F05D16868A16820F4003001
:103EE00008436860D4E908010843696821F4741143
:103EF00008436860C6F86090FFF7CAFB044606E016
:103F000025E000BFFFF7C4FB001B022809D8286882
:103F10008001F7D51BE000BFFFF7BAFB001B0228AA
:103F200002D90320BDE8F88F28688001F4D40EE0A0
:103F30000128F7D06868226A00F48031914204D1E8
:103F4000616A00F47010884201D00120EAE7002085
:103F5000E8E70000001002400000424280044242B4
:103F60003000002000700040024850F8210080B26C
:103F700070470000006C0040024800EB810091B2E5
:103F800001607047006C004070B5040003D0607C95
:103F9000002610B105E0012070BD2674204600F017
:103FA0003DF802206074204600F052F8042550BB12
:103FB000204601F041FC30BB2068416821F0070138
:103FC0004160A06820B11448016821F0010101603E
:103FD0001148001F0168A26821F46071114301605B
:103FE0006068411C04D10120FFF76AFC58B1401EF3
:103FF0002268C0F303419160216880B2C860204606
:1040000001F034FC08B16574C5E7E6730120607304
:10401000A0736074002070BD306C004008B500686B
:10402000084988420DD1FFF745FC0748C16941F0B6
:104030000061C161C069054900F000600090012085
:10404000086008BD00280040001002403C044242C5
:1040500070B504000AD02068416821F00801416071
:10406000FFF716FB05464FF47A7608E0012070BD95
:10407000FFF70EFB401BB04201D9032070BD206842
:1040800040680007F4D5002070BD7047704710B538
:10409000040003D094F83D0010B107E0012010BDEA
:1040A000002084F83C00204600F01EF8022084F82E
:1040B0003D00211D206801F047FE012084F84600E4
:1040C00084F83E0084F83F0084F8400084F8410002
:1040D00084F8420084F8430084F8440084F84500E2
:1040E00084F83D00002010BD7047000090F83D109E
:1040F000012901D001207047022180F83D1001689C
:10410000CA6842F00102CA6000680B49884208D0C0
:10411000B0F1804F05D00949884202D00849884251
:1041200004D1816801F00701062903D0016841F03C
:104130000101016000207047002C01400004004094
:104140000008004070472DE9F04104460068C66849
:1041500005694FF00007A90713D5B10711D5F91E5E
:10416000016101202077206880698007204602D005
:10417000FFF7E8FF04E000F07EF8204600F07CF84E
:104180002777680716D5700714D521686FF00400EB
:104190000861022020772068806910F4407F204663
:1041A00002D0FFF7CFFF04E000F065F8204600F0F2
:1041B00063F82777280715D5300713D521686FF0E6
:1041C00008000861042020772068C0698007204625
:1041D00002D0FFF7B7FF04E000F04DF8204600F0F2
:1041E0004BF82777E80616D5F00614D521686FF04E
:1041F00010000861082020772068C06910F4407F13
:10420000204602D0FFF79EFF04E000F034F820467D
:1042100000F032F82777E80708D0F00706D02168C9
:104220006FF001000861204600F028F8280608D544
:10423000300606D521686FF0800008612046FFF740
:1042400024FF680608D5700606D521686FF0400087
:104250000861204600F01CF8A8060AD5B00608D56B
:1042600021686FF0200008612046BDE8F041FFF7AB
:104270000DBFBDE8F081704770470000006803493A
:10428000884201D1FFF740BA70470000002C01407E
:104290007047704770470000F8B501680446086829
:1042A000CA684B6910F00F0F4FF0000559D003F0AA
:1042B000010602F49077374365D0C10705D0D105D8
:1042C00003D5616C41F001016164410705D5D9074F
:1042D00003D0616C41F002016164810705D5D90703
:1042E00003D0616C41F004016164010707D502F05D
:1042F0002001314303D0616C41F008016164616CBD
:1043000000293AD0800604D5900602D5204601F057
:1043100086FD20684069616CC0F38010090700D4F5
:1043200060B3204601F054FD20684069400621D565
:104330002068143050E8001F21F0400140E80012CE
:10434000002AF5D1E06BA8B16D494163E06BFFF73E
:1043500039F8002811D0E06B416B01B0BDE8F040A6
:10436000084783060FD593060DD52046BDE8F840D3
:1043700001F055BD2046FFF78DFFF8BD2046FFF741
:1043800089FF6564F8BD266B2023012E7CD1C6060B
:104390007AD5D60678D508684868009048694FF005
:1043A0000206400640D5E16B086840680004000C36
:1043B000E8D0A28D8242E5D9E085886920282DD0F9
:1043C00020680C3050E8001F21F4807140E8001292
:1043D000002AF5D12068143050E8001F21F00101B7
:1043E00040E80012002AF5D12068143050E8001F80
:1043F00021F0400140E80012002AF5D184F8423053
:10440000256320680C3050E8001F21F0100140E8BF
:104410000012002AF5D1E06BFEF7B0FF6663A08DB5
:10442000E18D401A81B22AE0A08DE18D401A81B25F
:10443000E08D0028A6D00029A4D022680C3252E8D2
:10444000000F20F4907042E80007002FF5D120689B
:10445000143050E8002F22F0010240E80027002F1E
:10446000F5D184F84230256320680C3050E8002FE5
:1044700022F0100240E80023002BF5D166632046AD
:10448000FFF707FFF8BDFFE705062BD5150629D571
:1044900094F841002128F5D1A068B0F5805F01D1E2
:1044A0002069B0B1206A411C21622168007848600F
:1044B000E08C401E0004000CE084E3D12068C16859
:1044C00021F08001C1602068C16841F04001C160F5
:1044D000D8E7206A0088C0F308004860206A801C82
:1044E0002062E5E74006CDD55006CBD5CA68204608
:1044F00022F04002CA6084F8413000F01BF9C1E7A5
:10450000C15D000870B5040004D094F84100002596
:1045100010B106E0012070BD84F84050204600F044
:1045200023F8242084F841002068C16821F4005158
:10453000C160204601F0D4FC2068016921F490415B
:1045400001612068416921F02A0141612068C16848
:1045500041F40051C1606564202084F8410084F872
:1045600042006563002070BD70B586B000240094E1
:1045700001940294039403682B482A4E02210322DB
:104580000515B34221D1836943F480438361836974
:1045900003F480430493836943F0040383618069D7
:1045A000224E00F0040004900802CDE900010392BD
:1045B00069463046FEF76AFFCDE900546946304649
:1045C0000294FEF763FF06B070BD194EB342FAD1F4
:1045D000C36943F48023C361C36903F48023049354
:1045E000836943F0080383618069CDE9005100F0DD
:1045F0000800CDE903200F4D69462846FEF746FF27
:10460000E814CDE90004694628460294FEF73EFF0F
:10461000002207212720FFF709F92720FFF7F8F8E4
:10462000D1E70000003801400010024000080140BE
:1046300000480040000C014090F84230202B01D08F
:104640000220704721B11AB10023036301F0A4BC1A
:104650000120704700680B49884212D10A484188FE
:10466000802901D30021418007490A784188074BFE
:104670000B44491C41801A70012203490448FFF78A
:10468000DBBF704700480040AC000020CC28002071
:10469000100200202DE9F843044690F841009846A6
:1046A00016460D46202802D00220BDE8F88385B1C9
:1046B0007EB100206064212084F84100FEF7E8FF0D
:1046C000A6848146E684A0682027B0F5805F02D0EA
:1046D00003E00120E9E7206910B12E4600250EE035
:1046E00000260CE08021204601F071FCA8B9C6B17B
:1046F00016F8010B21684860E08C401EE084E08CD5
:104700004B464FF00002CDF800800028EAD14FF070
:104710004001204601F05BFC40B184F84170032069
:10472000C3E735F8020BC0F30800E3E784F84170F3
:104730000020BAE77047FEE74FF400410148FEF75A
:1047400095BF0000000C014008B1012200E00022EA
:104750004FF480410148FEF796BF0000000C014075
:1047600008B1012200E000224FF400410148FEF7A9
:104770008ABF0000000C014010B58CB001210E482A
:10478000FFF7F2FB42F23334A04212D00A48FFF79F
:10479000FBFB08B1FEF7E1FD2C2208496846FCF757
:1047A00097F9684600F00CF8224601210248FFF70D
:1047B000E3FB0CB010BD0000B401002030AC0008D9
:1047C00010B5FCF792FA811CBDE81040014801F0D9
:1047D0007DB80000B4010020064B10B51A5C0A42F7
:1047E00005D0012901D08A431A54012010BD0020B0
:1047F00010BD0000B700002010B520B910210448FA
:10480000FEF734FF08B1002010BD012010BD0000EC
:10481000000801402DE9F05F4F4C0022A51D627099
:10482000607835F8101011B1491E25F81010401CA1
:1048300010F0FF006070F3D02078401CC0B22070F0
:10484000142872D3444F2270FF1C7E1E92461046DD
:10485000627006F1030806F102094FF47A7BC0B2D8
:10486000315C3954FFF7C8FF617801284246705423
:1048700018F8013004D023F00103535458B113E069
:1048800043F00103535417F801C0BCF1000F0BD1E2
:1048900043F0020306E017F801C0BCF1010F03D199
:1048A00043F0040308F8013019F8013043B1012B3B
:1048B0000ED0022B1DD0032B30D0042B30D043E080
:1048C000012841D140F24C4025F81100012039E087
:1048D00018B135F8110028B136E0FA2025F811009A
:1048E00002202FE025F811B018F8013043F0200322
:1048F00025E0012803D035F8110040B124E018F874
:104900000130032043F0100308F801301AE018F8D2
:10491000013043F0080308F8013007E030B113E03C
:1049200020B135F8110020B10EE012E009F801A025
:104930000AE025F811B018F8013043F0400308F8F8
:104940000130042009F80100491C11F0FF006070DB
:1049500085D0BDE8F09F0000B20000200122402178
:104960000148FEF790BE00000008014000224021EF
:104970000148FEF788BE00000008014040210148C0
:10498000FEF779BE0008014030B5304DA1B0D5E941
:104990000001CDE91901002119A803F0A0FD2C4C5C
:1049A0006061D5E90201CDE91B0100211BA803F0DC
:1049B00096FDA061D5E90401CDE91D0100211DA8E6
:1049C00003F08DFDE061D5E90601CDE91F0100216D
:1049D0001FA803F084FD2062142205F1200168461F
:1049E000FCF776F80021684603F07DFD2060142274
:1049F00005F1340105A8FCF76BF8002105A803F0C8
:104A000072FD6060142205F148010AA8FCF760F805
:104A100000210AA803F067FDA060142205F15C01E3
:104A20000FA8FCF755F800210FA803F05CFDE0602B
:104A3000142205F1700114A8FCF74AF8002114A80B
:104A400003F051FD206121B030BD00002CAB000807
:104A5000000000202DE9F04385B000253F48009577
:104A6000019502950395816941F010018161816989
:104A700001F010010491816941F020018161816997
:104A800001F020010491816941F004018161816993
:104A900001F004010491816941F00801816180699C
:104AA000DFF8BC8000F0080004900122402140465D
:104AB000FEF7E9FD002280214046FEF7E4FDDFF825
:104AC000A49001224DF260014846FEF7DCFD03266A
:104AD000254801240096CDE9010469464046FEF7C9
:104AE000D5FC1020CDE90005694602944046FEF74A
:104AF000CDFC402002278DE8B10069464046FEF714
:104B0000C5FC80208DE83100694640460394FEF7DD
:104B1000BDFC20038DE8B10069464846FEF7B6FCAF
:104B20004CF26000009001AA112082E85100694611
:104B30004846FEF7ABFC062100220846FEF776FE4B
:104B40000620FEF765FE002205210720FEF76EFE17
:104B50000720FEF75DFE05B0BDE8F08300100240BF
:104B600000080140000C014000002110094810B568
:104B7000074901600621416040F6FF718160FEF740
:104B80008DFD002803D0BDE81040FEF7E6BB10BD48
:104B900000300040A80100200648054901604FF0A0
:104BA000FF3141604FF480718160FFF7E5BD000087
:104BB00000280040B40100200C4810B50A490160EB
:104BC0004FF4E1314160002181600C22C160C0E9F5
:104BD00004128161C161FFF795FC002803D0BDE894
:104BE0001040FEF7BABB10BD00380140C8010020DC
:104BF0000C4810B50A4901604FF4E13141600021D1
:104C000081600C22C160C0E904128161C161FFF7BB
:104C100079FC002803D0BDE81040FEF79EBB10BD14
:104C20000048004010020020FEE700007CB5244C44
:104C30000546E07898B123A12648FBF7EFFB002D4D
:104C40003BD0002508210020FFF7C6FD48B1E078E1
:104C5000401CC0B2E07001280BD9E57009E01EA12C
:104C6000EAE720210020FFF7B7FD10B1E078D8B1C6
:104C700023E000950195E078A0B114A16846FBF708
:104C8000CDFB00F04DF86846FBF7BEFE821C1648CF
:104C90000721006803F004FB00F028FB142004F057
:104CA0009DFACFE70EA1E9E710A00090154B40F266
:104CB000073215A1012000F06DFB06487CBD000005
:104CC000EC0000205550646174613A205B454E5DF4
:104CD000000000001C2F00205550646174613A20D0
:104CE0005B4449535D000000D4000020C9CFB4AB41
:104CF000D2D1B9D8B1D52DB4CBD1A1CFEEB2BBB101
:104D0000A3B4E600CDB600082E2E5C4253505C6181
:104D100070705F6D656E752E63000000FEE7000029
:104D200010B50021074C0A46002004EBC1131A54A9
:104D3000401CC0B28028FAD3491CC9B20829F3D359
:104D400010BD0000CC290020F0B50B4424E004463F
:104D500085181DE07F2C19D8002917DB3F2915DCA9
:104D6000CE1701EB56764FEAE60C0D4F26F00706FC
:104D700007EBCC172744A1EB060E97F800C00126DD
:104D800006FA0EF62CEA060C87F800C0641C24B262
:104D9000A542DFDC491C09B28B42D8DCF0BD000023
:104DA000CC29002010B57F2813D8002911DB3F291A
:104DB0000FDCCA1701EB5272D410064B22F0070227
:104DC00003EBC41318448A1A0378012191400B4362
:104DD000037010BDCC2900202DE9F0430446CD1806
:104DE00007988846A618274668BB681E0FFA80F900
:104DF00009E041463846FFF7D5FF49463846FFF7F8
:104E0000D1FF7F1C3FB2BE42F3DC761E474636B26E
:104E100009E039462046FFF7C5FF30463946FFF71F
:104E2000C1FF7F1C3FB2BD42F3DCBDE8F0834446C6
:104E300005E021463846FFF7B5FF641C24B2A542C1
:104E4000F7DC7F1C3FB2BE42F1DCEEE710B501207B
:104E500000F066FABDE81040012000F069BA70B5B4
:104E600000240646802525FA04F0304000D00120B9
:104E700000F05EFA012000F053FA002000F050FA32
:104E8000641CE4B2082CEED3012000F049FABDE81E
:104E90007040002000F044BA10B5012000F048FA3C
:104EA000012000F03DFA002000F042FABDE8104079
:104EB000002000F035BA10B5002000F039FA0120CA
:104EC00000F02EFABDE81040012000F031BA10B514
:104ED000FFF7BCFFAE2000F033FAD52000F030FA27
:104EE000802000F02DFAA82000F02AFA3F2000F0E0
:104EF00027FAD32000F024FA002000F021FA402005
:104F000000F01EFAA12000F01BFAC82000F018FAE9
:104F1000DA2000F015FA122000F012FA812000F0D9
:104F20000FFACF2000F00CFAD92000F009FAF12096
:104F300000F006FADB2000F003FA302000F000FA5F
:104F4000A42000F0FDF9A62000F0FAF98D2000F071
:104F5000F7F9142000F0F4F9AF2000F0F1F9FFF7B1
:104F6000DFFEBDE8104000F0C1B92DE9F84FDDE9E2
:104F70000B74DDF828C0B4EB5C0F01D94FEA5C0478
:104F8000B4EB570F00D97C0815192EB202EB0C05B3
:104F90002D1B6D1E1F440FFA85F91D19A7EB040880
:104FA000A8F101082DB20FFA88FAA7F1010EB0425C
:104FB00005DB484503DC994201DB8E4558DA02EBFC
:104FC0000C07A7F1010BA94205DB514503DC904218
:104FD00001DB83454CDA371A0FFA87FC6F1A3FB2B0
:104FE000CDF800C090420DDBB0420BDC994209DBEA
:104FF000A94207DC0CFB0CFC07FB07CC04FB04F804
:10500000C44535DDA0EB090C0FFA8CF848450DDBE3
:1050100083450BDB994209DBA94207DC08FB08F357
:1050200007FB073504FB04F39D4221DDA1EB0A03D6
:10503000009D1BB290420CDBB0420ADC514508DBFC
:105040008E4506DB6D4303FB035504FB04F29542DA
:105050000EDD48450FDB83450DDB51450BDB8E45EF
:1050600009DB08FB08F203FB03206443A04202DCD7
:105070000120BDE8F88F0020FBE700002DE9FE4F7E
:105080009A469346884681460C4601EB0A062BE079
:105090004D4609EB0B0723E0802D1FD2002C1DDBB2
:1050A0003F2C1BDC0C99CDF800B0CDE901A14346A3
:1050B0004A4621462846FFF758FF78B1E01704EB2F
:1050C0005070C2100A4920F0070001EBC2112944B8
:1050D000231A0A780120984042400A706D1C2DB2B4
:1050E000AF42D9DC641C24B2A642D1DCBDE8FE8FFD
:1050F000CC29002010B50C4640F0B00000F020F99B
:10510000102040EA141000F01BF904F00F00BDE875
:10511000104000F015B9000008B5082B0DD0062B83
:105120000AD10A4B02EB420203EB4202C03A009260
:105130000823062200F00EF808BD054B03EB02120F
:10514000A2F50072102300920822F3E741B3000891
:1051500051AD00082DE9F04F1F4616460D46824618
:105160000024FFF7F1FD7F1EF81707EB50700121B7
:10517000DFF898B001EBE00743E000203DE000BF1E
:105180000AEB00037F2B36D8E91705EB5171CA10E3
:1051900021F00701691A002D03DA521E083112B2FC
:1051A00009B202EB0409B9F1070F0ED8099A04FB02
:1051B00006F802440BEBC91E18F802201EF803C0C3
:1051C0008A404CEA020C0EF803C009F10102072ADA
:1051D00011D80BEBC91202EB0308099A04FB06FC79
:1051E000024498F880301CF80220C1F10801CA403E
:1051F000134388F88030401CC0B2B042C0D3641C56
:10520000E4B2A742B9DCBDE8F08F0000CC29002051
:105210002DE9FF4F002583B09B4690462C46AA46B9
:10522000DFF8C09056E010068DF8042005F1010566
:105230000DD40398ADB220448DF805A000B25B46B2
:105240000499FFF769FF04EB0B0084B242E0A8B2B7
:1052500018F80010002941D0401C8DF8051085B2C7
:105260008DF806A0002606E0384601A9FBF7DEFC13
:1052700068B1761CB6B2C6EBC60000EB800101EB4C
:105280000900074618A1FBF7D1FC0028ECD1BBF1BF
:10529000080F03D0BBF1060F1CD111E0C6EBC6000E
:1052A00000EB800101EB0900C01C00900398102363
:1052B000204400B21A460499FFF74CFF103408E06E
:1052C00003980623204400B23F220499FFF724FFED
:1052D000A41DA4B218F80520002AA4D107B0BDE887
:1052E000F08F00007BB500080000000070B50A4890
:1052F0000A4D0168491C0024016000212046FFF787
:10530000F9FE05EBC410802100F02BF8641CE4B218
:10531000082CF2D370BD0000F4000020CC2900203E
:10532000024640210148FEF7AEB90000000C0140E2
:10533000024620210148FEF7A6B90000000C0140FA
:1053400010B50446FFF7A8FD7820FFF788FD002080
:10535000FFF785FD2046FFF782FDBDE81040FFF70F
:10536000AABD70B50D460646FFF796FD7820FFF7FB
:1053700076FD4020FFF773FD002404E0305DFFF769
:105380006EFD641CE4B2AC42F8D3BDE87040FFF798
:1053900092BD00002DE9F0434C4C074689B02078BF
:1053A0001E469046894640B149480178494803293C
:1053B000006808D004290AD010E009B046A0BDE872
:1053C000F043FBF71FB800230122114604E0022F2F
:1053D00004D100230122022104F060FB4FF4FA7192
:1053E000E06804F039FA01286DD10FB9607890B106
:1053F00011AB8021109A6068FAF7EAFF04F040FCD4
:105400003BA510B103F008F905466FB1012F2BD071
:10541000022F43D149E0E06809B00023BDE8F04322
:105420001A46194604F0CCB86078012818D0607884
:10543000022815D0FEF72CF962682FA1CDF808805C
:105440002FA30791CDE905322BA72B462CA2CDE93E
:105450000009CDE903672C49A068FAF7DFFF1CE0DB
:1054600025A027A2009013E0607801280DD0FEF758
:105470000FF9626820A1CDF8088024A30791CDE937
:1054800005321DA72B4621A2E1E71BA01FA2009019
:10549000D4E901301FA1FAF7C1FF608014236288AC
:1054A0002348A168FFF7F6F8B5E7FEF7F1F8626860
:1054B00011A1CDF808801FA30791CDE905320EA7F1
:1054C0002B461CA2C3E709B0BDE8F0839801002079
:1054D000EC000020000000204C4F472053797374EB
:1054E000656D204E6F7420496E6974210D0A0000AD
:1054F0004E6F5461736B00001B5B306D0000000049
:105500001B5B33326D000000F0B900081B5B3333C6
:105510006D0000002A2A2025735B496E666F5D3A94
:105520007B202573207D2025732A2A0D0A00000088
:10553000C80100201B5B33316D00000070B51D4CAD
:10554000E06878B1642104F087F9012804D0BDE84F
:10555000704019A0FAF756BFE06803F019FE00206A
:10556000E0602070012003F0B3FFE06020B91DA0CF
:10557000FAF748FFFDF7F1FE4FF40075284603F0F7
:1055800023FBA060802003F01FFB6060A16801B1D5
:1055900020B91CA0FAF736FFFDF7DFFE2946A06808
:1055A000FBF7D0FA80216068FBF7CCFA012020706D
:1055B00070BD0000980100204C4F47204D75746568
:1055C0007820697320696E207573652C2063616E85
:1055D0006E6F74207265696E697469616C697A6551
:1055E000210D0A004C4F47204D7574657820437299
:1055F000656174696F6E204661696C6564210D0A8E
:10560000000000004C6F672042756666657220439B
:1056100072656174696F6E204661696C6564210D05
:105620000A00000086B04FF000094C46CDF81090FB
:10563000FDF796FE04F03EFD064604F07DFECDE942
:10564000020140A00090494B6A2249A10020FFF7C7
:10565000A1FEDFF82C814B4D4FF47A7AFDF780FEE6
:1056600004F028FD07463146049005F075F920F056
:1056700000412878414512DB70B901202870384676
:1056800004F05AFECDE902013FA00090374B792289
:1056900037A10020FFF77EFE0024049E4EE0002884
:1056A0004CD0641CE4B2384604F046FECDE9020159
:1056B0003CA000902D4B80222DA10020FFF76AFE18
:1056C0003EA1CDE9001405200290284B812228A19B
:1056D0000020FFF75FFE052C30D30498B0F17E5F09
:1056E0001EDD3D4800233B4A04A9006803F068FF23
:1056F000012807D039A000901C4B87221CA1022052
:10570000FFF748FE049804F017FECDE902013EA021
:105710000090164B892216A10020FFF73BFE07E000
:105720003EA00090114B8C2211A10020FFF732FE09
:10573000FDF7A6F9002485F800902646504603F0B0
:105740004DFD8BE7CAD7B4CEC6F4B6AFA3ACBDF659
:10575000BCC7C2BCB3F5CABCC1F7C1BF20252E333C
:1057600066204C2CB2BBC9CFB4AB00000DAC000816
:105770002E2E5C4253505C5461736B2E630000000C
:105780006F12833AA0000020BFAACABCBCD3D3CDFD
:10579000A3ACC0DBBCC6D6B5CEAA20252E3366206E
:1057A0004C000000BFAACABCBCD3D3CDA3ACC0DBA5
:1057B000BCC6D6B5CEAA20252E336600BCD3D3CD29
:1057C000D6B5C1ACD0F8CEB4B1E42025642F2564A1
:1057D00020C3EB0040420F0014000020B4EDCEF3D4
:1057E000A3BACAFDBEDDCEDEB7A8B7A2CBCDB5BD8C
:1057F000B6D3C1D0A3ACD2D1B3ACCAB1BBF2B6D38D
:10580000C1D0C2FA00000000B1BEB4CEBCD3D3CD2B
:10581000C1F7C1BFCEAA252E33660000B1BEB4CEFB
:10582000BCD3D3CDC1F7C1BFCEAA302CC8A1CFFB0A
:10583000C9CFB4AB0000000070B50446FDF728FFE7
:1058400005464FF47A7606E0FDF722FF401BB04292
:1058500001D9032070BD206840688006F4D5206817
:10586000416841F010014160002070BD70B50446F0
:105870000068416821F010014160FDF709FF05460D
:105880004FF47A7607E000BFFDF702FF401BB042FD
:1058900001D9032070BD206840688006F4D500203F
:1058A00070BD006881698AB2C1698BB2816989B2B1
:1058B0008A4203D0C06961F31F4001E043EA02401D
:1058C000A0F5E1407047FEF77BBF00002DE9F041F5
:1058D0000F4604460025FDF7DBFE06464FF47A78B6
:1058E00005E000BFFDF7D4FE801B40451DD82068B1
:1058F00040688006F6D52068416841F0100141609B
:105900002168380C88612168B8B2C8612068416894
:1059100021F010014160FDF7BBFE0646474606E058
:10592000FDF7B6FE801BB84201D9012503E02068CF
:1059300040688006F4D52846BDE8F08108B5042209
:1059400069464020FCF7D3FF9DF80000FF280BD1EB
:105950009DF80100FF2807D19DF80200FF2803D120
:105960009DF80300FF2801D0009808BD002008BD65
:105970007CB50C4606460EA0CDE900041546114B39
:105980001E2211A10120FFF705FD30467460FEF7CD
:10599000B9FD08B1FDF7E1FC002D07D002B02946A2
:1059A0003046BDE870400122FEF746BE7CBD0000D7
:1059B000D0DEB8C4B2A8CCD8C2CACEAAA3BA2564D5
:1059C00000000000B0AB00082E2E2F436F72652F31
:1059D0005372632F75736172742E630008B5174894
:1059E000FDF75CFE0020164C0090C8236A4601219A
:1059F000002004F0BFF90098C00710D0FEF7B6FFF2
:105A0000192003F0EBFBFEF7A9FF962003F0E6FB5D
:105A1000FEF7ACFF192003F0E1FBFEF79FFF0098B3
:105A2000800701D5FEF7A2FF0448FDF766FE207847
:105A30000228DAD1FEF7A2FFD7E70000A801002074
:105A4000EC0000201FB5FFF779FD0020FCF785FF73
:105A5000A52811D052A00090594BA32259A1012092
:105A6000FFF798FCFCF72BFFA5210020FCF79CFF1B
:105A7000642003F0B3FB07E056A00090504BA9222E
:105A800050A10020FFF786FC00F06AFD55A1CDE98A
:105A900000104B4BAC224BA10020FFF77BFCFCF726
:105AA000D9FF002438B15448012200940023114644
:105AB000006804F063F802F0BFFD0294039400F064
:105AC00005FE48B14DA000903D4BB9223DA10220FA
:105AD000FFF760FC01F02EF8504C4FF4FA750022ED
