:020000040800F2
:10000000983F0020CD020008034B00082B46000853
:10001000014B0008F1270008D95A00080000000031
:100020000000000000000000000000003502000891
:10003000E12F00080000000079020008F5540008D4
:10004000E7020008E7020008E7020008E7020008EC
:10005000E7020008E7020008133000081930000822
:10006000E7020008E7020008E7020008E7020008CC
:10007000E7020008E7020008E7020008E7020008BC
:10008000E7020008E7020008E7020008E7020008AC
:10009000E7020008E7020008E7020008E70200089C
:1000A000E7020008A5550008E7020008E70200087B
:1000B000E7020008E7020008E7020008E70200087C
:1000C000E7020008E7020008E7020008E70200086C
:1000D000E7020008E7020008E7020008B15800083C
:1000E000E7020008E7020008E702000800F002F853
:1000F00000F090F80AA090E8000C82448344AAF132
:100100000107DA4501D100F085F8AFF2090EBAE82F
:100110000F0013F0010F18BFFB1A43F0010318473B
:10012000D4870000F4870000103A24BF78C878C153
:10013000FAD8520724BF30C830C144BF04680C60ED
:10014000704700000023002400250026103A28BF35
:1001500078C1FBD8520728BF30C148BF0B60704739
:100160006E2900F08086702900F0D181662907F0A1
:10017000E685652907F0E385672907F0E0856129B1
:1001800007F0DF8503681B0A28BF41F08001692959
:1001900000F04281642900F03F81752900F03C8124
:1001A0006F2901F08681782900F09D81E92901F00D
:1001B0002181E42901F01E81F52901F01B81EF293D
:1001C00001F08381F82900F09C810368DB0928BFD6
:1001D00041F08001632901F09080732901F095803E
:1001E000E32901F0DB83F32901F0E083002070476D
:1001F0001FB501F0B9F904000020002107F054FAFE
:10020000401C60600020002107F038FAE0601FBD4C
:1002100010B510BD01F022FE1146FFF7E9FF05F011
:1002200091FE01F049FE03B4FFF7F2FF03BC05F0B5
:100230007FFC0000224B19680868B0E8F00F80F3DB
:100240000988BFF36F8F4FF0000080F311884EF0E4
:100250000D0E70470000000006480068006880F33B
:10026000088862B661B6BFF34F8FBFF36F8F00DFB0
:1002700000BF00BF08ED00E0EFF30980BFF36F8F10
:100280000F4B1A6820E9F00F106008B54FF05000CE
:1002900080F31188BFF34F8FBFF36F8F06F014FD0B
:1002A0004FF0000080F31188BDE808401968086825
:1002B000B0E8F00F80F30988BFF36F8F704700BF7D
:1002C00038000020EFF305807047000009488047A0
:1002D00009480047FEE7FEE7FEE7FEE7FEE7FEE728
:1002E000FEE7FEE7FEE7FEE704480549054A064B40
:1002F00070470000A3550008ED0000089839002061
:10030000983F0020983B0020983B00207047000059
:100310001CB50C46064B7B4469460090204600F015
:10032000CAFF04460020694600F0D8FF20461CBDE5
:10033000C30F00000FB4044910B503AA029800F0DF
:10034000E9FF10BC5DF814FBA00000200FB41CB541
:10035000084B06AA7B4469460090059800F0ABFF65
:1003600004460020694600F0B9FF20461CBC5DF839
:1003700014FB0000850F000070B504468569006815
:10038000C10601D5302600E02026C00707D070BD89
:10039000D4E9012130469047206A401C20626D1E3E
:1003A000F6D570BD70B5044685690078C00707D1E1
:1003B00070BDD4E9012120209047206A401C2062B2
:1003C0006D1EF6D570BD70B50C460546012A05D0E8
:1003D0002878800600D5EA69002302E0012305E0C1
:1003E0005B1C934202D2E05C0028F9D1A869E618B0
:1003F000C01AA861286A184428622846FFF7BCFF83
:1004000004E0D5E9012114F8010B9047B442F8D378
:100410002846FFF7C7FF70BD2DE9F04106460024CE
:1004200010687529314616A510D000F0B1FC0028DF
:1004300002DA404213A507E031688A0701D512A508
:1004400002E0490704D511A5012401E000F0A9FC50
:1004500000210A2206F1240709E0B0FBF2FCB0FB00
:10046000F2F302FB1C00303078541846491C002877
:10047000F3D123462A463046BDE8F04100F09ABC4D
:10048000000000002D0000002B00000020000000F4
:10049000F0B40D460188090502D5214C7C4402E0E8
:1004A0001F4C7C440E34002100F1240608E002F0C9
:1004B0000F071209E75D42EA03721B097754491CD2
:1004C00052EA0307F3D102780023120704D5702DF6
:1004D00006D009B1022311342246F0BC00F06ABCF8
:1004E00001231034F8E770B504460D462146106824
:1004F00000F057FC024629462046BDE87040002324
:10050000C6E7D21D22F00703D3E90023C0E7036842
:10051000126843F0200303600823C3610023B7E798
:10052000CB8200002DE9F05F894604464FF0000AB7
:10053000DFF874B1FB44C0F820A02046E16888478A
:10054000002874D0252806D0D4E901219047206ADC
:10055000401C2062F1E700265F462046E16888479C
:100560002028054607DB312D05D2781910F8200C1C
:1005700008B10643F1E7B00701D526F00406C4F838
:100580001CA00027C4F818A02A2D09D0284605F081
:10059000C8FA38B304EB8708303DC8F8185019E0A2
:1005A00059F8041B204604EB87029161E1688847F3
:1005B000012F054618D1E069002820DA26F0200630
:1005C0001DE0D8F8180000EB800005EB4000303843
:1005D000C8F818002046E1688847054605F0A1FAEA
:1005E0000028EED1012F0AD02E2D08D12046E16837
:1005F00088477F1C0546022F46F02006C4DBA06911
:10060000002803DA404246F00106A061F00701D05D
:1006100026F010066C2D0BD0682D09D04C2D39D04A
:100620006A2D35D0742D35D07A2D33D016E038E0D0
:10063000E1682F4620468847B842054609D16C2F0D
:1006400026D04FF48060E16806432046884705467F
:1006500004E06C2F1AD04FF4807006430DB3A5F15F
:100660004100192802D8203546F400664A4629463A
:10067000204626604E46FFF773FD80B101280BD05F
:10068000F61D26F0070000F1080956E74020E4E7D0
:100690008020D8E70020D6E706F104094DE7284678
:1006A00052E7206ABDE8F09F5B8200000FB400B5FE
:1006B0008DB010A9099000910B904FF0FF300A9077
:1006C00000200C90064878440690064878446A4614
:1006D00007900F9909A800F017FF0DB05DF814FB03
:1006E0005F0E0000770E00002DE9FF5F1D464FF002
:1006F000FF3B91464FF000085F46D5E90146A969E6
:1007000001987F1C8847296A824688470028F6D1CD
:10071000BAF1FF3F0CD0002E24F4C06419DD60064E
:1007200014D5BAF12B0F09D0BAF12D0F0ED103E079
:10073000584604B0BDE8F09F44F48064A96901986C
:100740007F1C8847761E8246002E02DDBAF1300FEC
:1007500003D0B9F1000F26D032E0A969761E0198C6
:100760007F1C44F400748847002E824605DDBAF1F0
:10077000780F06D0BAF1580F03D0B9F1000F10D09E
:100780001EE0B9F1000F02D0B9F1100F18D1A9691C
:10079000761E01987F1C24F400748847824610203E
:1007A00002E0082000E00A20814609E0A96908FB70
:1007B0000908761E01987F1C44F40074884782461D
:1007C000002E05DD4946504600F08AFE0028EDDA8D
:1007D000E96901988847A00502D46FF00100A8E7F5
:1007E000E00725D1600613D5600502D5C8F10000E9
:1007F00000E0404629680A1D2A600968220501D5E3
:10080000087015E0220701D5088011E008600FE0AC
:100810002868011D29600068210502D580F8008044
:1008200006E0210702D5A0F8008001E0C0F80080B2
:1008300038467EE72DE9FF5F4FF0000899461446E1
:1008400046469169D2E901A7DDF838B0019888479A
:10085000054659EA0B0005D009E0A1690198761C0C
:1008600088470546216A284688470028F5D1681C34
:1008700003D05FEACA7005D015E04FF0FF3004B036
:10088000BDE8F09F2068011D2160D0F800800AE0DB
:100890005FEACA7001D108F8015BA169761C019872
:1008A0007F1E88470546002F1ADD681C18D0B9F155
:1008B000000F0DD0E81705EBD060421120F01F00AB
:1008C00059F822102A1A012090400142E0D107E095
:1008D000BBF1000FDCD12846216A88470028D7D019
:1008E000E16901988847BBF1000F07D1002E05DDB3
:1008F0005FEACA7002D1002188F80010A068B842EF
:1009000003DDBBF1000F03D017B16FF00100B6E7B4
:100910003046B4E730B505460B462A4613F8014B7E
:1009200012F8010B08B1A042F8D01CB1002802D087
:100930006D1CF1E7284630BD10B5431C02E010F8ED
:10094000011B71B18107FAD14FF0013202C88C1A34
:100950008C4314EAC211F9D0C01A0A0603D0C01E93
:1009600010BDC01A10BD0A0401D0801E10BD0902BE
:10097000FCD0401E10BD032A40F2308010F0030C62
:1009800000F0158011F8013BBCF1020F624498BFE2
:1009900011F801CB00F8013B38BF11F8013BA2F17F
:1009A000040298BF00F801CB38BF00F8013B11F0FA
:1009B000030300F02580083AC0F0088051F8043B9A
:1009C000083A51F804CBA0E80810F5E7121D5CBF07
:1009D00051F8043B40F8043BAFF30080D20724BF3A
:1009E00011F8013B11F801CB48BF11F8012B24BFCE
:1009F00000F8013B00F801CB48BF00F8012B70471D
:100A000010B5203AC0F00B80B1E81850203AA0E8A9
:100A10001850B1E81850A0E81850BFF4F5AF5FEADD
:100A2000027C24BFB1E81850A0E8185044BF18C990
:100A300018C0BDE810405FEA827C24BF51F8043B37
:100A400040F8043B08BF7047D20728BF31F8023B8B
:100A500048BF11F8012B28BF20F8023B48BF00F81F
:100A6000012B704702F0FF0343EA032242EA0242ED
:100A700000F002B84FF000020429C0F0128010F01C
:100A8000030C00F01B80CCF1040CBCF1020F18BF6A
:100A900000F8012BA8BF20F8022BA1EB0C0100F0FD
:100AA0000DB85FEAC17C24BF00F8012B00F8012BD0
:100AB00048BF00F8012B70474FF0000200B5134605
:100AC00094469646203922BFA0E80C50A0E80C506E
:100AD000B1F12001BFF4F7AF090728BFA0E80C501F
:100AE00048BF0CC05DF804EB890028BF40F8042B18
:100AF00008BF704748BF20F8022B11F0804F18BF85
:100B000000F8012B704710B5044610F0030F08BF22
:100B100011F0030F40F015804FF0013E121FC0F29C
:100B20000E8051F8043BA3EB0E0C2CEA030C1CEADC
:100B3000CE1C08BF40F8043BF0D0A1F1040102F143
:100B40000402521E08DB11F8013B002B00F8013BA8
:100B5000F7D11146FFF78EFF204610BD4FF0013C44
:100B600050F8042B51F8043B9A4221D1A2EB0C031C
:100B7000934313EACC1317D150F8042B51F8043BDC
:100B80009A4215D1A2EB0C03934313EACC130BD179
:100B900050F8042B51F8043B9A4209D1A2EB0C0304
:100BA000934313EACC13DBD04FF00000704700BF33
:100BB000D01A01BAB1FA81F101F0180122FA01F05C
:100BC000CB40C1F12001DBB2C0B2C01A2CFA01F354
:100BD000D11A914311EAC311E6D1704710B50368E9
:100BE0001C1404EB21449BB289B2194494FBF2F328
:100BF00002FB134394FBF2F401EB034393FBF2F18A
:100C000002FB113193FBF2F301E05B1E114400295A
:100C1000FBDB016003EB044010BDF0B504464FF070
:100C2000FF3585B00068049060680290A06803906A
:100C3000E068019020690090666906F18040B0F19B
:100C4000004F7CD83C22002104A8FFF7C7FF3C22BC
:100C5000014602A8FFF7C2FF1822014603A8FFF7CA
:100C6000BDFF411E40F2B55201A8FFF7B7FF0C22AD
:100C7000074668460021FFF7B1FF414B00EB8700B4
:100C8000304400267B4411E0511A01910099491C1F
:100C90000229009102D00C2908D105E0810705D076
:100CA0000199491C019101E0401C00960099019AAC
:100CB000595C9142E8DD0099012906D11C2A04D132
:100CC000810702D00221CDE90016A0F146018B294F
:100CD0003CD2DDE90061002202E09F5C521C3944F5
:100CE000B242FADB012E02DD820700D0491E40F23B
:100CF000B55340F26D16C21700EB927292105A4330
:100D000000F0030303FB062283070A4400D1521EAE
:100D1000039E02EB4203049F06EBC303029EC3EB58
:100D2000031306EB8303174E33441E149BB2C6EB2A
:100D30000616C3EB0313B60007EB830300E005E0E0
:100D400006EB134666F31F43360C02D0284605B067
:100D5000F0BD80C4029E40C4039E40C4019E761C28
:100D600044F80C6B009E44E902600720521C92FB81
:100D7000F0F600FB162084E823001846E7E70000A1
:100D8000247B0000A039CEFD704770477047704744
:100D900009684A0501D540B27047C905FCD500B2C3
:100DA000704709684A0501D5C0B27047C905FCD52E
:100DB00080B270472DE9F0470D46994692460446A9
:100DC00000F124080168880604D5E06921F01001CB
:100DD000216000E00120A84201DD471B00E0002760
:100DE000A1697A1902EB0900081AA0612078C006EF
:100DF00002D42046FFF7C0FA002608E0D4E901211A
:100E00001AF806009047206A401C761C20624E4566
:100E1000F4DB2078C0060AD52046FFF7ADFA06E0DD
:100E2000D4E9012130209047206A401C2062381EFE
:100E3000A7F10107F4DC07E0D4E9012118F8050067
:100E40009047206A401C2062281EA5F10105F3DCB2
:100E50002046FFF7A7FA2078000602D50220BDE859
:100E6000F0870120FBE711680268006A530501D58D
:100E700008700AE0D30501D5088006E0130603D503
:100E8000C217C1E9000200E0086001207047704706
:100E90002DE9FF4F0C461E464FF0FF378BB0D2E9CD
:100EA0000001DDF860800A908A46C1F30A5505B951
:100EB0003D46002108464FF00000BAF1000F00F453
:100EC000400005DA00EB80004FF4400101EA5000D9
:100ED0004FEA9059B9F1010F00DDB9460A9850EA7E
:100EE0004A000ED044F61050A5F2FF3545432F14AA
:100EF000B8F1000F1ED07542291E1EDDC9F1000297
:100F00001CE0B8F1010F4FF0000001D0302103E0E8
:100F1000F24305E02154401CB042FBDB3046002286
:100F2000002121540B99C1F80880C1E900200FB0BD
:100F3000BDE8F08FBD1B6D1CDEE74A4600DA694252
:100F400006A800F0F1FE06AB93E8070003AB83E8C8
:100F5000070050460A9900F0B8FF8DE80700A0F599
:100F600000501F3800900398002D0ADD42F21F0147
:100F70004A460844002303A90390684601F021FA79
:100F800009E0A0F500504A461F38002303A903904A
:100F9000684601F02BFA8DE807000004000C03D02E
:100FA0004FF0FF30410800E01046B8F1000F03D0C9
:100FB0000022009215461EE0751E05D400F0D8FAF6
:100FC000303262556D1EF9D5B3460122084302D076
:100FD00000227F1C04E02078302801D100227F1EEF
:100FE000002A099784D01DE0112D07DA00F0C0FA1D
:100FF000303262556D1C50EA0102F5D1084302D02F
:101000000098C8B10EE00021681E05E0235C625C18
:1010100063542254401E491C8142F7DBAB46A81B97
:10102000401E0990002004F80B000B98099AC0F8A4
:101030000880C0E9002B7AE711264FF0000857E737
:101040002DE9F04F88460446D21D22F0070191B0E9
:10105000D1E90001CDE90A0104F03FFD02460B98F9
:10106000C00F01D02D2007E02068810701D52B207B
:1010700002E0202101EAC000032A099001D0072ADA
:1010800005DB03464146204600F03EFC0BE120789C
:10109000800601D5E06900E00620B8F1650F8146C1
:1010A00006D0B8F1660F18D0B8F1670F70D131E0F3
:1010B0000020B9F1110F009001DB112301E009F1CB
:1010C00001030AAA01A90CA8FFF7E2FEDDE90C70F2
:1010D000002609F10105834647E001204B460090B8
:1010E0004FF000470AAA01A90CA8FFF7D1FEDDE9DD
:1010F0000DB00C995D46002610B909F101000D18DC
:10110000B9EB050003D4C0F1FF3609F10105A5EBE9
:1011100009002BE0B9F1010F01DA4FF001090020BD
:10112000B9F1110F0090484601DD112300E003469C
:101130000AAA01A90CA8FFF7ABFEDDE90C704D4629
:1011400000268346207800070AD4AB4500DA5D46C6
:1011500001A8012D04DD411911F8011C302907D027
:101160004F4502DA17F1040F04DA012082460FE03E
:101170006D1EEEE7002F02DCED1B3E4403E0781C01
:10118000A84200DD7D1CB81B00F1010A4FF00047AA
:101190002078000703D4AA4501DB4FF0FF3A002175
:1011A000B7F1004F0DF143088DF8431024D0022011
:1011B0002B23002F01DA7F422D230A21021EA0F1EA
:1011C000010000DC5FB197FBF1FC97FBF1F201FB42
:1011D0001C7C17460CF1300C08F801CDEEE7A8F1A5
:1011E000010003702188090501D5452100E0652132
:1011F000A0F1010800F8011C09980FA9A1EB08074C
:10120000FF1D00B10120411901EBEA70A1693844CA
:10121000081A401EA0612078C00602D42046FFF7BD
:10122000ABF8099828B1D4E901219047206A401C05
:1012300020622078C00622D52046FFF79DF81EE0E8
:10124000002E04DBB34502DD01A8805D00E0302004
:10125000D4E901219047206A401C2062761CAAF143
:1012600001005FEA000A0AD100F07EF9C068016857
:10127000405CD4E901219047206A401C2062281E6E
:10128000A5F10105DCDC07E0D4E9012118F8010B28
:101290009047206A401C2062381EA7F10107F3DC4A
:1012A0002046FFF77FF8032011B041E601694A1C90
:1012B00002610878704700B58FB0CDE90131002197
:1012C000059105497944CDE9031011466846FFF7B9
:1012D00029F90FB000BD0000E5FFFFFF0A6802F822
:1012E000010B0A60704710B5436913B1AFF300807A
:1012F00001E0FFF768F8012010BD127800F1240129
:101300000A7000224A700122EDE711684FF0FF32A7
:10131000E9E70000074B70B50D467B44FFF7CBFFB4
:101320000446284600F072FD10B14FF0FF3070BD4A
:10133000204670BD734900002DE9FF5F15468A46BF
:101340000446DFF8AC80F8440027D8E900103E4698
:10135000CDE9001010E03AF816106A4602A800F035
:1013600059FD411C07D02178890603D5E269391857
:1013700091420DD80744761C2078800602D5E0699A
:10138000B84205DDAE42E6DB3AF816000028E2D1AD
:10139000A069C01BA0612046FEF7EEFFD8E900104F
:1013A000CDE90010002017E03AF818106A4602A8AC
:1013B00000F030FDB0F1FF3F81460BD000250DF16C
:1013C000080B05E0D4E901211BF8050090476D1CCE
:1013D0004D45F7D308F10100B0428046E4DB206AB6
:1013E000384420622046FEF7DDFFBDE8FF9F000085
:1013F0005A7400002DE9F0418046D21D22F0070208
:101400000025D2E90002F52915A614D0011E72F1BB
:10141000000106DA0023D0EB030063EB020211A601
:1014200008E0D8F800108B0701D50FA602E04907A5
:1014300001D50EA601251146002408F1240704E079
:1014400000F096F830323A55641C50EA0102F7D1A8
:101450002B46324621464046BDE8F041FFF7AABC84
:10146000000000002D0000002B0000002000000004
:1014700030B4002100F1240408E002F00705D2088E
:10148000303542EA4372DB086554491C52EA0305D1
:10149000F3D10468002310A2250707D5A40600D4C1
:1014A00021B1C46901230DA2641EC46130BCFFF7E1
:1014B00081BC10B5044621461068FFF772FC024655
:1014C0002046BDE810400023D2E7D21D22F00701DC
:1014D000D1E90023CCE7000000000000300000004C
:1014E0003A2800D2303820F02002412A01D3A2F15C
:1014F0003700884201D34FF0FF3070470268114433
:101500001378016018467047D160054979445161EC
:1015100004497944116200211161114600F04ABA70
:10152000EDFFFFFFE5000000426842B1016811F8DD
:10153000013B23B1521EC0E9001218467047012139
:10154000C160881E704742685AB1C368016843B9D8
:1015500083688B4205D0491E521CC0E9001200204E
:1015600070474FF0FF3070470048704754390020F3
:1015700030B5B0F10A024FEA900E71F100034EEA65
:10158000817EB0EB0E0061EB91014FEA101E4EEA36
:10159000017E10EB0E0041EB11114FEA102E4EEAC6
:1015A000016E10EB0E0041EB11214FEA104E4EEA96
:1015B000014E10EB0E0041EB1141401841F10001CA
:1015C0004FEAD00040EA41704FEAD10110EB8005AC
:1015D0004FEA810444EA907444EB01046D1944EB32
:1015E0000404521BA3414FF0000348BF0A3200D548
:1015F00030BD401C41F1000130BD10B5044600F083
:1016000053FC0068005D00F0010010BD2DE9F04FB3
:1016100004460D46D21D22F0070089B0D0E900979C
:101620004846394604F059FA0246F80F01D02D23F6
:1016300007E02068810701D52B2302E0202101EA81
:10164000C0038DF820300BB1012000E00020032AF8
:10165000824601D0072A04DB2946204600F054F9CF
:101660003FE12078800601D40D2500E0E569C7F34D
:101670000A560D2D49DA00214FEA175B08464FF054
:101680000000002F00F4400007DA00EB80004FF468
:10169000400100EBD07001EA60008115012901DDF5
:1016A0004FF0FF3100224FEA850CBCF1180F06D332
:1016B0001346ACF118004FF08052C24003E04FF4E3
:1016C000801323FA0CF30CF10C0CBCF1200F04D3A3
:1016D000ACF1200C09FA0CF001E007FA0CF000293B
:1016E0004FF0004801DD18B90FE00ED140450CD392
:1016F00019EB02095F4121B9404502D19F4329EA14
:101700000209BBEB175F00D0761C2088000502D5CC
:101710007B48784402E07A487844193808AA302394
:1017200002F80A30037C0AF10101002E0AF1020AD4
:1017300053546A4602DC4FF0300101E04FF03101B2
:101740004FF001088DF8001002D0A6F2FF3603E03A
:1017500059EA470100D06B4E002D02DC21780907C1
:1017600004D54FF002082E218DF80110C446002147
:101770000BE0C7F303433F01C35C491C6D1E02F835
:101780000830052908F1010801DA002DF1DC0021FB
:101790000CE000EB1973491C1B786D1E082902F838
:1017A00008304FEA091908F1010801DA002DF0DCD0
:1017B00021688B0602D516E0A8F10108E04505DD99
:1017C00002EB080313F8013C302BF5D0B8F1000F01
:1017D00009DD02EB080313F8013C2E2B03D10907A6
:1017E00001D4A8F10108002D05DD3E2102F8081002
:1017F0006D1E08F10108407C002E02F8080008F177
:10180000010804DA2D20764202F8080002E02B20BD
:1018100002F808000A214FF47A70864208F10108A4
:101820000BDB96FBF0F3303302F8083096FBF0F355
:1018300008F1010800FB136601E0642E0CDB642054
:1018400096FBF0F3303302F8083096FBF0F308F122
:10185000010800FB136601E00A2E06DB96FBF1F09F
:10186000303002F8080008F1010896FBF1F001FBA6
:101870001060303002F80800A16908F1010808EB97
:10188000050202EB0A00081AA0612078C00602D403
:101890002046FEF771FD216A08AE01EB0A002062C6
:1018A00004E0D4E9012116F8010B9047BAF1010ACE
:1018B000F7D22078C00602D52046FEF75DFD6E46C1
:1018C00009E016F8010B3E280FD0D4E9012190471A
:1018D000206A401C2062B8F10108F2D22046FEF7CF
:1018E00061FD09B00320BDE8F08F206A2844206222
:1018F00003E0D4E90121302090476D1EEBD3F8E7D7
:10190000B570000002FCFFFF2DE9F0411F460446C0
:1019100003260168072A01F4006004DB08B116A55C
:1019200005E016A503E008B115A500E015A521F016
:1019300010002060A069C01EA0610FB1401EA06110
:101940002046FEF719FD4FB1D4E9012138469047F2
:10195000206A401C2062C01C206206E0206AFAE770
:10196000D4E9012115F8010B9047761EF8D22046E4
:10197000FEF718FDBDE8F0814E414E006E616E002D
:10198000494E4600696E660010B5436913B1AFF366
:10199000008001E0FFF7D0FC012010BD128800F1AB
:1019A000240182840022C2840122EDE711684FF0F5
:1019B000FF32E9E72DE9F34F4FF0000A0C46564697
:1019C0008DB001200C9001F10C000B9062690B9816
:1019D00001219047051E2DD0252D2CD0216A884746
:1019E000C0B162690B9801219047216A884700289D
:1019F000F7D16269411E0B98904700E0761CA169FF
:101A00000D988847216A88470028F7D1E1690D9829
:101A10008847DBE7A1690D988847A842074601D1AE
:101A2000761CD3E7E1690D9888477F1C02D1BAF193
:101A3000000F6FD06BE162690B9800273D46394675
:101A400090472A2804D162690B980121904701250B
:101A5000DFF8D08262690B9801219047A0F1300134
:101A60000A290AD24745E5DC07EB870100EB41076D
:101A7000303FDFD445F01005ECE7E90601D46FF004
:101A800000476C280AD04C2814D0682815D06A2842
:101A90000DD074281CD07A281AD01DE062690B98EA
:101AA000012190476C2802D045F0040514E045F070
:101AB00002050DE045F020050AE062690B9801215E
:101AC0009047682802D045F0080505E045F4006518
:101AD00062690B9801219047C4E9015765283DD000
:101AE00019DC58287AD00CDC452837D004DC2528AE
:101AF00026D041289ED131E046282FD0472899D1C1
:101B00002CE05B2877D0612828D063287CD064281B
:101B100023D15AE0F6E06F2848D008DC66281DD0B3
:101B200067281BD0692821D06E2816D127E070289D
:101B300045D0732868D0752847D078280DD14DE05E
:101B4000A1690D988847252805463FF469AFE169EA
:101B50000D9888476D1C3FF46AAFD8E00D99234675
:101B60006A466FF00100AFF30080C5E045F0400029
:101B700023464FF000026060A80736D43EE0E80735
:101B80007FF447AF2068011D21600068290501D559
:101B900006701BE7290701D5068017E7A90703D5BB
:101BA000F117C0E9006111E706600FE745F040005A
:101BB00023464FF008026060A80716D41EE040F6E6
:101BC0000E0125EA0100606016E045F04000234662
:101BD0004FF00A026060A80707D40FE045F040000C
:101BE0006060A80708D5234610220D996FF0010008
:101BF000AFF3008080E007E0102223460D996FF0DC
:101C00000100FEF771FD77E04FF0000963284F46B1
:101C1000C8464B46CB4602D05B2806D038E0E806E3
:101C200001D40120A060012732E06269D4F80CB031
:101C30000B98012190475E2807D14FF001094946D2
:101C40006269D4F80CB00B989047216939B900212A
:101C50000A4603AB43F82120491C0829FADBD8B314
:101C6000216949B308F1010862690B980121904785
:101C70005D28F4D1B9F1000F09D0002003A951F873
:101C80002020D24341F82020401C0828F7DB03AB7A
:101C90002069002820794FEA40701ED05B4622461A
:101CA000CDF80080CDE901970D9900286FF0010073
:101CB00020DAAFF300801FE0C11703AA00EBD16167
:101CC0004B1121F01F0102EB8302411A136801201E
:101CD000884003431360C7E719E00D9922460028A6
:101CE0006FF00100009702DAAFF3008004E0FEF726
:101CF000A1FD01E0AFF3008000280ADA401C06D104
:101D00000C9820B14FF0FF300FB0BDE8F08F504677
:101D1000FAE7E90701D10AF1010A064400200C9014
:101D200054E60000CCCCCC0C2DE9F0478146164699
:101D30008AB0354878440DC88DE80D0032487844A3
:101D4000801C03AC0DC884E80D0041F69B300844AC
:101D5000372190FBF1F290FBF1F5A5F1800501FB35
:101D600012041B3C02D56442012000E00020DFF891
:101D700098A080460027FA44AAF1BE0A0EE0E007C8
:101D80000AD03246684607EB470101230AEB81017E
:101D900000F02CFB8DE8070064107F1C002CEED1B6
:101DA000194F7F44AE3F19E0E80715D007EB041048
:101DB0000DF1180A90E80E008AE80E00C068F042A3
:101DC00001D1981908903246012306A903A800F012
:101DD0000DFB03AB83E807006D10641C002DE3D1FD
:101DE0004FF0010332466946B8F1000F03A802D054
:101DF00000F0E7FA01E000F0F9FAC9E90001C9F8DA
:101E000008200AB0BDE8F087246B0000007B00F0DA
:101E10008000704770B516460C46054600F044F841
:101E2000036893F80101012806D0FF2C0FD8185D34
:101E300068B101202C7070BDD3F8070132462146ED
:101E400003F2071303442846BDE8704018474FF0DB
:101E5000FF3070BD00487047343900207546FFF7E9
:101E6000F9FFAE4605006946534620F00700854657
:101E700018B020B5FEF738FABDE820404FF0000654
:101E80004FF000074FF000084FF0000B21F0070162
:101E9000AC46ACE8C009ACE8C009ACE8C009ACE8A5
:101EA000C0098D467047000010B5FFF75DFB001DAF
:101EB00010BD00BFF557000010B50446AFF3008019
:101EC0002046BDE81040FEF7AEB95FEA400C08BFFF
:101ED00091F0000F4FEA8C234FEAC12243EA51519F
:101EE0004FEA1C5018BF00F5F0404FEA300018BF11
:101EF00041F000415FEA6C5C00F02980BCF1FF3FDB
:101F000008BF40F080407047130C06BF12044FF02A
:101F1000100C4FF0000C130E04BF12020CF1080C51
:101F2000130F04BF12010CF1040C930F04BF9200B5
:101F30000CF1020CD30F04BF52000CF1010C11463E
:101F40004FF00002A0F11F00A0EB0C00704711F051
:101F5000004F08BF704731F000413FF4D5AF0B0C84
:101F600006BF09044FF0100C4FF0000C0B0E04BF1D
:101F700009020CF1080C0B0F04BF09010CF1040C51
:101F80008B0F04BF89000CF1020CCB0F04BF49007A
:101F90000CF1010CCCF12003A0EB0C0022FA03F3AE
:101FA00002FA0CF241EA030100F10100704720F04F
:101FB0007F4C80EA030023F07F47ACEB070303F577
:101FC0007C5300F0004003F1FF032DE980494FEA04
:101FD000154B09B44FEA144325EA0B4E24EA034893
:101FE0000FF2042606EB132749083E785FEA320217
:101FF00003FB0667C7F5000707FB06F64FEA5437F1
:102000004FEAD64606F1020607FB066CCCF1005CEF
:102010004FEA1C472CEA074C07FB06F40CFB06F5BD
:1020200004EB15464FEA961634BF00204FF00040EF
:102030004FEAD13706FB07FC4FEA1C4C0CFB0BF7B1
:10204000D21B03FB0CF761EB07010CFB0EF7B0EBA7
:10205000074072EB17420CFB08F734BFA2EB0742B4
:10206000B2EB074261EB17414FEA0C444FEA91078C
:1020700006FB07FC4FEA1C4C0CFB0BF7B0EBC74010
:1020800072EB573203FB0CF734BFA2EBC742B2EB43
:10209000C74261EB57310CFB0EF7B0EBC70072EB98
:1020A00057720CFB08F734BFA2EBC702B2EBC702B2
:1020B00061EB5771039F4FEA816141EA921104EB92
:1020C000CC044FEAD1374FEA826206FB07FC42EAB2
:1020D00090124FEA80604FEA1C4C0CFB0BF7D21BAE
:1020E00003FB0CF761EB07010CFB0EF7B0EB0740AD
:1020F00072EB17420CFB08F734BFA2EB0742B2EBBE
:10210000074261EB17414FEA8C554FEA910704EB08
:102110009C2406FB07FC4FEA1C4C0CFB0BF7B0EBB6
:10212000C74072EB573203FB0CF734BFA2EBC74238
:10213000B2EBC74261EB57310CFB0EF7B0EBC700B7
:1021400072EB57720CFB08F734BFA2EBC702B2EB7D
:10215000C70261EB577115EB4C254FEA816141EAEB
:1021600092114FEA82624FEAD13742EA901206FB9F
:1021700007FC44F100044FEA80604FEA1C4C0CFB62
:102180000BF7D21B03FB0CF761EB07010CFB0EF7FF
:10219000B0EB074072EB17420CFB08F734BFA2EB21
:1021A0000742B2EB074261EB174115EB1C154FEAF2
:1021B000813141EA92414FEA823242EA90424FEA4B
:1021C00080304FEA0C7644F1000448EA03434EEABB
:1021D0000B484FF0000EB2EB080C71EB030724BF65
:1021E000624639464EEB0E0E4FF0000B001852417E
:1021F00049414BEB0B0BB2EB080C71EB03077BF186
:10220000000B24BF624639464EEB0E0E4FF0000B1A
:102210000018524149414BEB0B0BB2EB080C71EB30
:1022200003077BF1000B24BF624639464EEB0E0ECE
:1022300051EA020718BF46F0010616EB0E7655F17B
:10224000000254F1000103D5BDE88901BDE8008812
:10225000BDE88901BDE80048B619524141EB0101D2
:10226000A3F10103704780807F7E7D7C7B7A797843
:10227000777676757473727171706F6E6E6D6C6C4B
:102280006B6A6A69686867666665646463636261ED
:102290006160605F5F5E5E5D5D5C5C5B5B5A5A596E
:1022A00059585857575656555555545453535252DA
:1022B0005251515050504F4F4F4E4E4D4D4D4C4C32
:1022C0004C4B4B4B4A4A4A4949494848484747477B
:1022D00047464646454545444444444343434342B8
:1022E000424242414141002B9C4630D477002BD0E2
:1022F0001CB54FEA370703B44FF010004FF0100140
:10230000BAF1000F06D0BCF1000FDCBF40F00800AE
:1023100040F008014FF000000FBCBDE810400BF189
:10232000010BBBF1010F08BF5FEA170722BF12F1D3
:10233000010211F101014FF0004143F1000300F0EF
:10234000004043EA00007047F9D35708D0E746EA57
:10235000064613F1400F4FEA16461FDD13F1200F1A
:10236000DFBF16430A46002120335B42BED0C3F1D3
:10237000200746EA064602FA07F74FEA164646EAFB
:102380000706C3F1200722FA03F201FA07F721FA40
:1023900003F14FF0000342EA0702A7E746EA02060C
:1023A00046EA06464FEA164646EA0106BCBF46EA3A
:1023B0000646360C4FF000034FF000024FF00001CC
:1023C00094E72DE9804C9A46934670B491E8380022
:1023D00007C831EA400C48BF34EA430C03D5FFF785
:1023E000E6FDFFF780FFF0BCBDE8008C2DE9804CD6
:1023F0009A46934670B491E8380007C810F0804FB1
:1024000008BF13F0804F03D100F005F8FFF76BFF12
:10241000F0BCBDE8008C20F07F4780EA030023F089
:102420007F4C07EB0C03A3F57C5300F00040A3F1B5
:10243000FE0392F0000F00F0B38095F0000F00F063
:1024400077802DE901494FEA11404FEA144621EA0D
:10245000004800FB06FC24EA064708FB06F607FBDB
:1024600008F800FB07F718EB06484CEB164C4FEA50
:10247000124B18EB07484FEA15464CEB174022EA7F
:102480000B4E0BFB06FC25EA06470EFB06F607FB88
:102490000EFE0BFB07F71EEB064E4CEB164C4FF0F7
:1024A00000061EEB074E4CEB174B18EB0B0840F1E8
:1024B000000018EB0E0B58EB000840F100008F1ADB
:1024C0004FF000013CBFC943661B14BFB5EB040CC1
:1024D00000213CBFC943F61B4FEA17444EEA8E0E5B
:1024E00027EA04454FEA1C4704FB07622CEA074C25
:1024F00005FB07F70CFB05F604FB0CFC16EB074687
:1025000042EB174216EB0C4642EB1C421BEB060655
:1025100058EB0202414146EA9E0601D5BDE8018919
:10252000B619524141EB0101A3F10103BDE8018954
:102530004FEA14454FEA114724EA054621EA074CC1
:1025400005FB07F406FB07F70CFB06F105FB0CFC8B
:1025500011EB074144EB17444FEA124711EB0C41D2
:1025600044EB1C4422EA074C05FB07F206FB07F785
:102570000CFB06F605FB0CFC16EB074642EB17427C
:1025800016EB0C4642EB1C456A1854F1000148BF9B
:102590007047B619524141EB0101A3F101037047A5
:1025A00095F0000F37D04FEA11424FEA144721EA65
:1025B000024624EA074C02FB07F106FB07F70CFB77
:1025C00006F402FB0CFC14EB074441EB17414FEA05
:1025D000154714EB0C4441EB1C4125EA074C02FB68
:1025E00007F506FB07F70CFB06F602FB0CFC16EBE7
:1025F000074645EB174516EB0C4645EB1C421219F6
:1026000051F1000148BF7047B619524141EB010139
:10261000A3F1010370474FEA14454FEA114724EA3A
:10262000054621EA074C05FB07F106FB07F70CFB03
:1026300006F24FF0000605FB0CFC12EB074241EBE3
:10264000174112EB0C4251EB1C4148BF70479218E6
:1026500041EB0101A3F10103704730B591B0FF22B6
:1026600040216846FEF7FEF900244FF480454022E1
:102670006946204600F087F8052003F073FA4034DD
:10268000A4B2AC42F3D311B030BD2DE9F041150036
:102690000F4604462DD0B4F5804F2AD203F0EAFB52
:1026A000A02003F0CAFB03F012FC200A03F0C5FBD4
:1026B00003F00DFCE0B203F0C0FB03F008FC03F0F4
:1026C000D9FBA12003F0B9FB03F001FC00246E1E2E
:1026D00009E0B44201D0012000E0002003F08AFBB1
:1026E0003855641CA4B2AC42F3D3BDE8F04103F00A
:1026F000D9BBBDE8F08110B50446B0F5804F01D3D9
:10270000FF2010BD03F0B6FBA02003F096FB03F002
:10271000DEFB200A03F091FB03F0D9FBE0B203F0EB
:102720008CFB03F0D4FB03F0A5FBA12003F085FB99
:1027300003F0CDFB002003F05DFB044603F0B2FB89
:10274000204610BD70B50D460446B0F5804F19D235
:1027500003F090FBA02003F070FB03F0B8FB200A0D
:1027600003F06BFB03F0B3FBE0B203F066FB03F096
:10277000AEFB284603F061FB03F0A9FBBDE8704007
:1027800003F090BB70BD70B515000E4604462ED008
:10279000402D2CD8B4F5804F29D224F03F00403092
:1027A00080B26119814201D9001B85B203F062FB3E
:1027B000A02003F042FB03F08AFB200A03F03DFB5C
:1027C00003F085FBE0B203F038FB03F080FB00244C
:1027D00007E0305D03F031FB03F079FB18B9641CAE
:1027E000A4B2AC42F5D3BDE8704003F05BBB70BD52
:1027F000FEE700000149002008607047C00000208B
:1028000010B580210348FEF735F9034900204880C0
:1028100010BD0000B4330020B00000202DE9F047C7
:1028200096B0002426462C2104A8FEF745F906E0C0
:10283000642004F0C1F9641CE4B2022C77D843A1EF
:1028400043A000F0F5FA0028F2D1C82004F0B4F952
:102850000025AA4642F2107901E0012619E03DA7C1
:102860000FF2E808FFF7CCFF00243846FEF764F8C3
:1028700082B20A2339463A4801F086FE4F461434A4
:10288000A4B200F09BFB68B941463648FEF742F817
:1028900040B1642004F090F933A13248FEF73AF8D1
:1028A00068B10DE0142004F087F9BC42E7D364203E
:1028B00004F082F96D1CEDB2022DD0D9CDE70126CE
:1028C0000FAC10AB11AA12A98DE81E0013AB14AA0D
:1028D00027A1801DFDF7EAFE062800D001261498E6
:1028E000B0F5FD6F00DC0126A0F26C71099113991F
:1028F000A0F2E970491E0891129907911199069169
:10290000109905910F99CDF830A00491102801D3AA
:10291000012602E004A802F0D9FC00240BE006E046
:10292000642004F049F9641CE4B2022C03D90120AC
:1029300016B0BDE8F08705A112A000F079FA0028D2
:10294000EED1322004F038F93046F1E74F4B000069
:102950002B2B2B0041542B43434C4B3F0D0A0000C3
:1029600038010020B43300202B43434C4B3A000085
:1029700025642F25642F25642C25643A25643A2587
:102980006400000041542B454E544D0D0A000000D8
:1029900070B5002400F030FA01226249624801F06B
:1029A000C5FD4FF47A75284604F006F95FA0FDF7DF
:1029B000C1FC05E004F000F9641CE4B2022C71D8FB
:1029C0005FA160A000F034FA00284FF06400F1D15C
:1029D00004F0F2F85CA0FDF7ADFC05E004F0ECF8C3
:1029E000641CE4B2022CEAD855A15BA000F020FAE6
:1029F00000284FF06400F1D104F0DEF858A0FDF794
:102A000099FC05E004F0D8F8641CE4B2022C79D8F3
:102A10004BA158A000F00CFA00284FF06400F1D14F
:102A200004F0CAF858A0FDF785FC05E004F0C4F8EE
:102A3000641CE4B2022C65D841A159A000F0F8F959
:102A400000284FF06400F1D104F0B6F859A0FDF76A
:102A500071FC05E004F0B0F8641CE4B2022C51D81B
:102A600037A15EA000F0E4F900284FF06400F1D136
:102A700004F0A2F861A0FDF75DFC05E004F09CF80D
:102A8000641CE4B2022C3DD82DA16AA000F0D0F95C
:102A900000284FF06400F1D104F08EF871A0FDF72A
:102AA00049FC06E02EE004F087F8641CE4B2022C36
:102AB00028D823A174A000F0BBF900284FF06400CF
:102AC000F1D104F079F877A0FDF734FC05E004F0CB
:102AD00073F8641CE4B2022C14D819A17AA000F097
:102AE000A7F900284FF06400F1D104F065F87EA04A
:102AF000FDF720FC08E0642004F05EF8641CE4B2FA
:102B0000022C01D9012070BD0DA17BA000F090F92D
:102B10000028F0D1284604F04FF879A0FDF70AFC10
:102B2000002070BDB000002038010020312E20BDF3
:102B3000F8C8EBD6B8C1EEC4A3CABD0D0A000000A8
:102B40004F4B00002B2B2B00322E20B2E2CAD44177
:102B500054D6B8C1EE0D0A0041540D0A0000000021
:102B6000322E20C9E8D6C3B2BBBBBAB4E6CAFDBE9A
:102B7000DD0D0A0041542B4341434845454E3D4F2E
:102B800046460D0A00000000332E2041542B574BBF
:102B90004D4F44313D4D5154542E2E2E0D0A000000
:102BA00041542B574B4D4F44313D4D5154540D0A18
:102BB00000000000342E2041542B4D5154545356E4
:102BC000313D382E3133372E3132342E3232302CE3
:102BD000313838332E2E2E0D0A00000041542B4D73
:102BE0005154545356313D382E3133372E3132340F
:102BF0002E3232302C313838330D0A00352E204138
:102C0000542B4D515454434F4E4E3D6573703832E2
:102C10003636436C69656E742C746573742C31326E
:102C20003334353637382C36302C312E2E2E0D0AD3
:102C30000000000041542B4D515454434F4E4E3D23
:102C400065737038323636436C69656E742C746502
:102C500073742C31323334353637382C36302C31CE
:102C60000D0A0000362E2041542B4D51545453551B
:102C700042313D2F6675656C2F646174612C302E76
:102C80002E2E0D0A0000000041542B4D5154545378
:102C90005542313D2F6675656C2F646174612C302F
:102CA0000D0A0000372E2041542B4D5154545055DD
:102CB00042313D2F6675656C2F646174612C302C38
:102CC000302E2E2E0D0A000041542B4D51545450DD
:102CD0005542313D2F6675656C2F646174612C30EF
:102CE0002C300D0A00000000382E2041542B532EAA
:102CF0002E2E0D0A0000000041542B530D0A000037
:102D0000392E204454555F496E6974204F4B0D0A8B
:102D10000000000070B50024254605E003F04CFFDC
:102D2000641CE4B2022C24D819A11AA000F080F887
:102D300000284FF06400F1D103F03EFF09E0642069
:102D400003F03AFF641CE4B2022C02D900240125EE
:102D500005E011A113A000F06BF80028EFD164206A
:102D600003F02AFF07E003F027FF641CE4B2022C03
:102D700001D9012070BD06A10EA000F059F800286D
:102D80004FF06400EFD103F017FF284670BD00003C
:102D90004F4B00002B2B2B00436F6E6E65637465E9
:102DA0006400000041542B534F434B4C4B313F0DBB
:102DB0000A00000041542B454E544D0D0A000000FE
:102DC00010B500224FF48051024800F0ACFA002008
:102DD00010BD0000000C014010B501221103054890
:102DE00000F0A1FA4FF47A7003F0E6FEFFF708FD59
:102DF000002010BD000C014070B50C4D4FF4805404
:102E000000222146284600F08EFA4FF4967003F017
:102E1000D3FE01222146284600F085FA4FF4FA70CD
:102E200003F0CAFEFFF7ECFC002070BD000C01406F
:102E300070B50E460546FFF7E3FC00242846FDF773
:102E40007BFD82B20A2329460C4801F09DFB42F229
:102E500010751434A4B200F0B1F840B931460848F6
:102E6000FDF758FD18B1FFF7CBFC002070BD142012
:102E700003F0A2FEAC42ECD3012070BD380100206B
:102E8000B433002010B500F005F8012800D0002070
:102E900010BD00001FB50446006804F05DFD6268C7
:102EA000009202460B461BA0FDF744FA206804F08E
:102EB00053FD04228DE8070020A12D486268FDF72C
:102EC00045FA2B492BA0FDF735FA29490846FFF7AB
:102ED000AFFF88B92AA0FDF72DFA2F4800231A4624
:102EE00003A9006803F0F2FF012805D02BA0FDF72D
:102EF00021FA012004B010BD322003F05DFE8021D4
:102F00001B48FDF7B7FD1A4880218030FDF7B2FD60
:102F10000020EFE7D2D1BDD3CAD5C9CFB4ABCAFD2B
:102F2000BEDD3A20252E3366204C2C20CAB1BCE4ED
:102F3000B4C1A3BA256C6420530D0A007B227469C6
:102F40006D657374616D70223A256C643030302C7D
:102F5000226675656C5F746F74616C223A25662C0D
:102F6000226E756D626572223A25647D0D0A00003D
:102F700034340020B7A2CBCDD4D8BAC92573000011
:102F8000CAFDBEDDC9CFB4ABB3C9B9A6A3A1A3A185
:102F9000A3A10D0A0000000024000020B4EDCEF330
:102FA000A3BACEDEB7A8B7A2CBCDB5BDC7EBC7F3EA
:102FB000C9BEB3FDB6D3C1D00D0A00000748418891
:102FC00039B141888288914205D10021418008466B
:102FD00070470120704741888180FAE7B0000020E7
:102FE000704770B54FF0E0240021636900EBC0002A
:102FF000A269C500A0699042FCD002D2A2EB0002F7
:1030000002E0A3EB0006324411440246A942F1D388
:1030100070BD012000F090B8022000F08DB872B6AB
:10302000FEE7000010B5054C206804F084FBD4E9ED
:103030000223BDE8104004F091BB0000C000002056
:1030400010B590F821100022022905D004218163D7
:1030500080F82020012010BD01680B6823F00E03CA
:103060000B6001680B6823F001030B6090F840309F
:10307000012404FA03F1C36B596080F8214080F801
:103080002020104610BD000010B590F8211000243B
:10309000022903D00421816301243DE001680A680C
:1030A00022F00E020A6001680A6822F001020A603A
:1030B0001A4A0168914201D1012121E0174A1432D4
:1030C000914201D110211BE0144A2832914201D1D2
:1030D000891515E0114A3C32914201D189140FE063
:1030E0000E4A5032914202D14FF4803108E00B4A2F
:1030F0006432914202D14FF4801101E04FF08071AF
:10310000064A083A5160012180F82110002180F818
:103110002010416B01B18847204610BD08000240D5
:103120000449012801D0022802D10868401C086027
:1031300070470000C0000020044910B50A68024230
:1031400002D00860FFF7ECFF10BD0000140401403E
:103150002DE9F84FDFF8A4910024A9F1040B2346D0
:103160004FF00F0809F1040AABF1040EBEE001278D
:10317000A7403A40BA4272D1DFF884C14D68A5EB4E
:103180000C0665452BD00DDC032D34D005DC35B3A2
:10319000012D19D0022D2FD11BE0112D16D0122D8B
:1031A0002AD119E0B6F5881F19D006DCB6F5803FA4
:1031B00015D0B6F5801F1FD111E0B6F5001F0ED057
:1031C000B6F5041F18D10AE0CB6815E0CB681B1DCB
:1031D00012E0CB6808330FE0CB680C330CE08B684F
:1031E0002BB1012B4FF0080303D0476104E0042307
:1031F00002E0076100E00023FF2A01D8064601E053
:1032000000F104064FEA840501D9A5F120053768CD
:1032100008FA05FC27EA0C0703FA05F547EA050753
:1032200037604D68ED0060D5364DAE6946F0010659
:10323000AE61AD6924F0030605F001050095324D3D
:103240007719BE68A5072D0F08FA05FC26EA0C06BB
:10325000DFF8B8C0604503D14FF0000C17E044E040
:10326000DFF8ACC0604502D14FF0010C0FE0DFF891
:10327000A4C0604502D14FF0020C08E0DFF898C00E
:10328000604502D14FF0030C01E04FF0040C0CFA42
:1032900005FC4CEA060CC7F808C04D68D9F8006078
:1032A000ED024D4601D5164300E096432E604D6871
:1032B000DAF80060AD02554601D5164300E09643AA
:1032C0002E604D68DBF80060AD035D4601D5164306
:1032D00000E096432E604D68DEF80060ED03754611
:1032E00001D5164300E096432E60641C0A6832FA4A
:1032F00004F57FF43CAFBDE8F88F000008040140FE
:1033000000001110001002400000014000080140C0
:10331000000C01400010014000140140806808408A
:1033200000D0012070470AB1016170470904FBE732
:1033300001488068704700002800002070B5040034
:1033400013D021684CF6CC400860216845F25550F6
:103350000860D4E9000141602168A0688860FFF737
:10336000E7FF054641F23C360CE0012070BDFFF757
:10337000DFFF401BB04205D92068C068800701D03C
:10338000032070BD2068C0688007F0D121684AF62C
:10339000AA200860002070BD00684AF6AA210160DA
:1033A00000207047024881680278114481607047AC
:1033B00028000020074810B5016841F010010160A5
:1033C000032000F0A1F80F2000F006F800F04AF802
:1033D000002010BD0020024030B505461C4887B0D3
:1033E000816941F400618161806905A900F4006090
:1033F0000690684600F002FA00F030FA1549164AC5
:10340000B0FBF1F11548491E026040F2E732C2609C
:1034100000220261C0E90112826100F0B2FD0400E5
:1034200012D10E4800F0DCFD04000DD1192000F08F
:103430003DF8102D07D200222946192000F044F84B
:103440000748056000E0012407B0204630BD0000B9
:103450000010024040420F00002C0140800100207B
:103460002C0000200F4808B5816941F001018161FD
:10347000816901F001010091C16941F08051C16190
:10348000C069002200F0805000900F21901E00F0D3
:103490001BF80549486820F0E06040F00070486083
:1034A00008BD00000010024000000140002809DBB8
:1034B00000F01F02012191404009800000F1E0204E
:1034C000C0F8001170470000F0B40E4B1B68C3F346
:1034D0000223C3F10704042C00D904241D1D072D69
:1034E00001D2002300E0DB1E012606FA04F56D1E62
:1034F0000D409D409E40761E164045EA0601F0BCF8
:1035000002F0FFBA0CED00E0064A00F00701106877
:103510004FF6FF03184040EA0120034908431060BA
:10352000704700000CED00E00000FA0501490120A1
:103530000862704700000E4210B501460020234C7F
:10354000012922D0022939D010291DD161682268B1
:10355000D20119D51E48C1F38342C903805C0AD544
:1035600061681B4AC1F34041921E515C194AB2FB8B
:10357000F1F1484301E0184948436168490203D426
:1035800040000321B0FBF1F010BD226AC2F301211B
:10359000012903D1920701D5C80310BD022905D125
:1035A000626A920702D549F6404010BD0329FCD15A
:1035B00021688903F9D54FF2244010BD00F04EF97F
:1035C0006168C1F38131491C4900DBE7001002400A
:1035D000F47D000800127A0000093D002DE9F8434F
:1035E00004460078344FC00752D0F8690025C00067
:1035F00008D4F86940F08050F861F869012500F0BE
:10360000805000902D480168C90511D4016880469A
:1036100041F480710160FFF78BFE064604E0FFF77E
:1036200087FE801B642822D8D8F80000C005F6D594
:10363000386A10F4407020D0A18801F440718142B2
:103640001BD0386A1E49012220F440700A60002213
:103650000A603862C00710D0FFF76AFE064641F2E2
:10366000883807E0FFF764FE811B414502D903203B
:10367000BDE8F883386A8007F4D5386A616820F4B9
:103680004070084338621DB1F86920F08050F8613D
:103690002078800705D57868A16820F44040084369
:1036A00078602078C00605D57868E16820F480004D
:1036B000084378600020DBE7001002400070004003
:1036C000400442422DE9F0470D46040067D0DFF880
:1036D0001881D8F8000000F00700A8420CD2D8F8F2
:1036E000001021F007012943C8F80010D8F80000A5
:1036F00000F00700A84252D120683C4E810712D545
:10370000400703D5706840F4E060706020780007DF
:1037100003D5706840F4605070607068A16820F054
:10372000F000084370602078C00727D06068012847
:1037300010D03168022810D0890700292FDA71686B
:1037400021F0030101437160FFF7F2FD074641F2EA
:1037500088390CE031688903EFE78901EDE7FFF76D
:10376000E7FDC11B494502D90320BDE8F087706819
:10377000616800F00C00B0EB810FF0D1D8F80010B8
:10378000404601F00701A9420BD9016821F0070169
:1037900029430160006800F00700A84201D0012021
:1037A000E3E72078400705D57068E16820F4E06021
:1037B000084370602078000706D57068216920F4FE
:1037C000605040EAC100706000F058F87168084A23
:1037D000C1F30311515CC8400649086006480068FF
:1037E000FFF7FAFD0020C0E7002002400010024071
:1037F000047E0008340000202C0000200F2202600C
:103800000C4A536803F003034360536803F0F0036A
:103810008360536803F4E063C36052684FF4E0636D
:1038200003EAD20202610448006800F00700086061
:103830007047000000100240002002400448054983
:1038400000684968044AC1F30221515CC8407047CE
:103850003400002000100240147E0008044805498E
:1038600000684968044AC1F3C221515CC8407047EE
:103870003400002000100240147E00080E4B5968EE
:103880000E4801F00C02042A11D0082A0FD10C486E
:10389000C1F38342C903805C0AD55968084AC1F361
:1038A0004041921E515C054A5043B0FBF1F0704715
:1038B00004494843704700000010024000127A009B
:1038C000E27D000800093D002DE9F84F04006FD0AB
:1038D0002078BE4DC00747D06868C0F3810001283A
:1038E00007D06868C0F38100022809D16868C00366
:1038F00006D52868800337D560680028E7D033E014
:103900006068B0F5803F0BD010B1B0F5A02F11D09A
:10391000286820F480302860286820F4802002E0A5
:10392000286840F480302860606888B1FFF700FDA7
:10393000064609E0286840F480202860F0E7FFF799
:10394000F7FC801B642873D828688003F7D50BE048
:10395000FFF7EEFC064604E0FFF7EAFC801B642854
:10396000F1D828688003F7D42078DFF864828007D4
:103970004FF0010A4FF0000939D5686810F00C0FBC
:1039800007D06868C0F38100022809D16868C003C5
:1039900006D42868800714D52069012808D110E0D2
:1039A0002069B0B1C8F800A0FFF7C2FC064605E0E8
:1039B00007E1FFF7BDFC801B0228C4D828688007F8
:1039C000F7D52868616920F0F80040EAC100286056
:1039D0000DE0C8F80090FFF7ABFC064604E0FFF7E7
:1039E000A7FC801B022823D828688007F7D42078FA
:1039F00000072CD57748A169D9B1C0F800A0FFF71E
:103A000097FC064604E0FFF793FC801B02280FD8C2
:103A1000686A8007F7D570484FF4FA510068B0FB28
:103A2000F1F0009000BF0098411E0091FAD20EE024
:103A30007CE0C0F80090FFF77BFC064604E0FFF74F
:103A400077FC801B022871D8686A8007F7D4207839
:103A500040075BD5E8690027C00008D4E86940F05A
:103A60008050E861E869012700F0805000905B48D1
:103A70000168C90511D40168834641F48071016071
:103A8000FFF756FC064604E0FFF752FC801B642853
:103A90004CD8DBF80000C005F6D5E06801280AD054
:103AA00008B1052813D0286A20F001002862286A8E
:103AB00020F0040002E0286A40F001002862E0687B
:103AC00041F2883B88B1FFF733FC064609E0286ADB
:103AD00040F004002862EEE7FFF72AFC811B5945FD
:103AE0005BD8286A8007F7D50BE0FFF721FC064674
:103AF00004E0FFF71DFC811B59454ED8286A80075A
:103B0000F7D41FB1E86920F08050E861E069A8B3FC
:103B10006968C1F38101022946D00228484606D0CF
:103B2000C8F86000FFF704FC044639E035E047467A
:103B3000C8F86000FFF7FCFB064604E0FFF7F8FB5F
:103B4000801B022829D828688001F7D4206AB0F5A4
:103B5000803F05D16868A16820F4003008436860A0
:103B6000D4E908010843696821F4741108436860C6
:103B7000C7F860A0FFF7DCFB044605E023E0FFF791
:103B8000D7FB001B022808D828688001F7D51AE067
:103B9000FFF7CEFB001B022802D90320BDE8F88FF7
:103BA00028688001F4D40EE00128F7D06868226A02
:103BB00000F48031914204D1616A00F470108842AF
:103BC00001D00120EAE70020E8E7000000100240F1
:103BD0000000424280044242340000200070004055
:103BE000F8B505004FF0000016460C46009006D0D0
:103BF0002CB100226946284600F019F808B10120CE
:103C0000F8BD287B2070E87BE070697B6170A97B40
:103C1000A17056B101F07FFAE070607801F07BFA94
:103C20006070A07801F077FAA0700020F8BD2DE94F
:103C3000F04791460C465FEA00084AD084B3D8F8B2
:103C400000004068400744D4404601F02EFB4FF48A
:103C50006162B0FBF2F10546B0FBF2F002FB1053DB
:103C60003C20B3FBF0F36370B5FBF2F302FB13529D
:103C7000B2FBF0F300FB1320A070182931D31820F9
:103C8000B1FBF0F6B1FBF0F200FB121020704046E1
:103C900001F004FB411C04D0A84202D9471B02E0FA
:103CA00017E04FF0FF37A6EB061000EB4000C0EB2B
:103CB000001005EBC0152946404601F074FB40B9E1
:103CC000781C01D0791900E03946404601F057FBD5
:103CD00010B10120BDE8F0873146404601F026FAD8
:103CE00000E02170B9F1000F0BD0207801F013FA39
:103CF0002070607801F00FFA6070A07801F00BFA84
:103D0000A0700020E6E7000070B5040003D0607CDE
:103D1000002610B105E0012070BD2674204600F099
:103D20003DF802206074204600F00CF9042550BBD9
:103D3000204601F052FA30BB2068416821F00701AB
:103D40004160A06820B11448016821F001010160C0
:103D50001148001F0168A26821F4607111430160DD
:103D60006068411C04D10120FFF7E6FB58B1401EFA
:103D70002268C0F303419160216880B2C860204688
:103D800001F045FA08B16574C5E7E6730120607378
:103D9000A0736074002070BD306C004008B50068EE
:103DA000084988420DD1FFF7C1FB0748C16941F0BE
:103DB0000061C161C069054900F000600090012008
:103DC000086008BD00280040001002403C04424248
:103DD0002DE9F0410D4604003BD0C5B3207C0128FD
:103DE0003AD04FF0010884F8108002206074E8781F
:103DF00072B301F087F9E073687801F083F96073BA
:103E0000A87801F07FF9A073C2B2617BE07B01F07A
:103E10008BFA20732870204601F047FA4FF4616155
:103E2000B0FBF1F1002518292DD91822B1FBF2F1D0
:103E3000A1EB011101EB4101C1EB011100EBC11636
:103E40003146204601F0AFFA0427C8B90BE000E084
:103E500004E00120BDE8F0810220FBE7E073687810
:103E60006073A878CFE7204601F018FA411C0AD009
:103E7000B04208D206490144204601F080FA10B150
:103E800067742574E5E784F8118025740020E1E764
:103E9000805101002DE9F0410D46040024D01DB3EE
:103EA000207C012823D04FF0010884F810800220E4
:103EB0006074F2B1287801F025F94FF4616100FBDC
:103EC00001F6687801F01EF9C0EB001006EB8006E1
:103ED000A87801F017F935182946204601F063FA51
:103EE0000026042718BB10E00120BDE8F081022065
:103EF000FBE729784FF4616041436878C0EB00101C
:103F000001EB8000A9784518E6E72068416821F0B8
:103F100005014160204601F0C1F9411C0AD0A842C8
:103F200008D207490144204601F029FA10B167740C
:103F30002674D9E784F8118026740020D5E70000A4
:103F40008051010070B504000AD02068416821F05A
:103F500008014160FFF7ECF905464FF47A7608E076
:103F6000012070BDFFF7E4F9401BB04201D90320E6
:103F700070BD206840680007F4D5002070BD704710
:103F8000704710B5040003D094F83D0010B107E06D
:103F9000012010BD002084F83C00204600F01EF8EF
:103FA000022084F83D00211D206801F005FB01205E
:103FB00084F8460084F83E0084F83F0084F840000E
:103FC00084F8410084F8420084F8430084F84400F7
:103FD00084F8450084F83D00002010BD70470000C3
:103FE00090F83D10012901D001207047022180F88E
:103FF0003D100168CA6842F00102CA6000680B49BE
:10400000884208D0B0F1804F05D00949884202D0DB
:104010000849884204D1816801F00701062903D0CC
:10402000016841F00101016000207047002C01404F
:10403000000400400008004070472DE9F0410446AC
:104040000068C66805694FF00007A90713D5B107D6
:1040500011D5F91E01610120207720688069800751
:10406000204602D0FFF7E8FF04E000F07EF820468B
:1040700000F07CF82777680716D5700714D52168FB
:104080006FF004000861022020772068806910F436
:10409000407F204602D0FFF7CFFF04E000F065F834
:1040A000204600F063F82777280715D5300713D589
:1040B00021686FF008000861042020772068C0693B
:1040C0008007204602D0FFF7B7FF04E000F04DF86C
:1040D000204600F04BF82777E80616D5F00614D5F1
:1040E00021686FF010000861082020772068C069FF
:1040F00010F4407F204602D0FFF79EFF04E000F05E
:1041000034F8204600F032F82777E80708D0F007A7
:1041100006D021686FF001000861204600F028F801
:10412000280608D5300606D521686FF080000861A2
:104130002046FFF724FF680608D5700606D52168DB
:104140006FF040000861204600F01CF8A8060AD570
:10415000B00608D521686FF0200008612046BDE850
:10416000F041FFF70DBFBDE8F081704770470000D8
:1041700000680349884201D1FFF714B97047000075
:10418000002C01407047704770470000F8B5016887
:1041900004460868CA684B6910F00F0F4FF000051D
:1041A00059D003F0010602F49077374365D0C10778
:1041B00005D0D10503D5616C41F00101616441076F
:1041C00005D5D90703D0616C41F002016164810714
:1041D00005D5D90703D0616C41F004016164010782
:1041E00007D502F02001314303D0616C41F0080192
:1041F0006164616C00293AD0800604D5900602D52E
:10420000204601F044FA20684069616CC0F38010D8
:10421000090700D460B3204601F012FA2068406913
:10422000400621D52068143050E8001F21F04001DD
:1042300040E80012002AF5D1E06BA8B16D49416356
:10424000E06BFEF721FF002811D0E06B416B01B05D
:10425000BDE8F040084783060FD593060DD52046EC
:10426000BDE8F84001F013BA2046FFF78DFFF8BD16
:104270002046FFF789FF6564F8BD266B2023012ED9
:104280007CD1C6067AD5D60678D5086848680090ED
:1042900048694FF00206400640D5E16B0868406867
:1042A0000004000CE8D0A28D8242E5D9E08588693F
:1042B00020282DD020680C3050E8001F21F4807198
:1042C00040E80012002AF5D12068143050E8001FA1
:1042D00021F0010140E80012002AF5D120681430D5
:1042E00050E8001F21F0400140E80012002AF5D1FB
:1042F00084F84230256320680C3050E8001F21F01C
:10430000100140E80012002AF5D1E06BFEF798FE9C
:104310006663A08DE18D401A81B22AE0A08DE18D07
:10432000401A81B2E08D0028A6D00029A4D02068D0
:104330000C3050E8002F22F4907240E80027002F44
:10434000F5D12068143050E8002F22F0010240E837
:104350000027002FF5D184F84230256320680C3007
:1043600050E8002F22F0100240E80023002BF5D186
:1043700066632046FFF707FFF8BDFFE705062BD56C
:10438000150629D594F841002128F5D1A068B0F58B
:10439000805F01D12069B0B1206A411C216221688F
:1043A00000784860E08C401E0004000CE084E3D1FB
:1043B0002068C16821F08001C1602068C16841F0B7
:1043C0004001C160D8E7206A0088C0F30800486057
:1043D000206A801C2062E5E74006CDD55006CBD58B
:1043E000CA68204622F04002CA6084F8413000F0DA
:1043F0001BF9C1E73156000870B5040004D094F8E9
:104400004100002510B106E0012070BD84F8405045
:10441000204600F023F8242084F841002068C16879
:1044200021F40051C160204601F092F92068016931
:1044300021F4904101612068416921F02A01416124
:104440002068C16841F40051C1606564202084F88F
:10445000410084F842006563002070BD70B586B0ED
:104460000024009401940294039401682B482A4E7E
:10447000022203230515B14221D1816941F4804113
:104480008161816901F480410491816941F00401F5
:1044900081618069224E00F0040004901002CDE991
:1044A0000002694603933046FEF752FECDE9005400
:1044B000694630460294FEF74BFE06B070BD194EB9
:1044C000B142FAD1C16941F48021C161C16901F4ED
:1044D00080210491816941F0080181618069CDE901
:1044E000005200F00800CDE903300F4D6946284620
:1044F000FEF72EFEE814CDE9000469462846029432
:10450000FEF726FE002207212720FEF7DDFF2720E9
:10451000FEF7CCFFD1E70000003801400010024058
:104520000008014000480040000C014090F8423073
:10453000202B01D00220704721B11AB10023036360
:1045400001F062B90120704700680B49884212D11E
:104550000A494888802801D300204880074802780B
:104560004888074B0344401C48801A7001220349C5
:104570000448FFF7DBBF704700480040B000002050
:10458000B4330020380100202DE9F843044690F8A8
:1045900041001F4615460E46202802D00220BDE8E5
:1045A000F8838EB185B100206064212084F8410039
:1045B000FEF7BEFEA5848146E584A0684FF0200882
:1045C000B0F5805F02D003E00120E8E7206910B178
:1045D000354600260EE000250CE08021204601F043
:1045E0002EF9A0B9BDB115F8010B21684860E08C27
:1045F000401EE084E08C4B464FF0000200970028FC
:10460000EBD14FF04001204601F019F940B184F898
:1046100041800320C3E736F8020BC0F30800E4E74B
:1046200084F841800020BAE77047FEE74FF400416C
:104630000148FEF773BE0000000C014008B10122E2
:1046400000E000224FF480410148FEF76CBE0000FC
:10465000000C014008B1012200E000224FF40041AB
:104660000148FEF760BE0000000C0140064B10B58B
:104670001A5C0A4205D0012901D08A431A5401204C
:1046800010BD002010BD0000BB00002010B520B9F7
:1046900010210448FEF742FE08B1002010BD0120A1
:1046A00010BD0000000801402DE9F05F4C4A0027D2
:1046B000941D5770507834F8101011B1491E24F829
:1046C0001010401C10F0FF005070F3D01078401C08
:1046D000C0B2107014286ED3414E1770F61C57707C
:1046E000A6F10108B51C4FF47A7A4FF0040B9146FD
:1046F00099F8010018F800103154FFF7C7FF99F836
:104700000110012808F801006A5C04D022F00102BF
:104710006A5440B10DE042F001026A54735C43B93F
:1047200042F0020204E0735C012B02D142F0040269
:104730006A54DFF8ACC00CF1040C1CF8012042B143
:10474000012A0ED0022A1CD0032A2DD0042A2DD0F3
:104750003DE001283BD14FF4FA6024F8110001201C
:104760001AE018B134F8110028B130E0C82024F85C
:104770001100022010E024F811A0685C40F0200035
:1047800022E0012803D034F8110040B11FE0685C3A
:1047900040F01000685403200CF8010017E0685C3A
:1047A00040F00800685407E030B110E020B134F860
:1047B000110020B10BE010E00CF8017007E024F8C4
:1047C00011A0685C40F0400068540CF801B0491C2E
:1047D00011F0FF0089F801008AD0BDE8F09F0000C9
:1047E000B6000020012240210148FEF79CBD0000D8
:1047F00000080140002240210148FEF794BD00005E
:10480000000801400A48FEF799FD4FF4967441F202
:104810005C25FFF7EFFF204602F0CEF9FFF7E2FF3D
:10482000284602F0C9F90248FEF7B6FDF1E700009C
:10483000D000002030B5354DA7B0D5E90001CDE955
:104840001E0100211EA801F079FC314CA061D5E9C0
:104850000201CDE92001002120A801F06FFCE061F8
:10486000D5E90401CDE92201002122A801F066FC6E
:104870002062D5E90601CDE92401002124A801F038
:104880005DFC6062142205F120016846FCF7B8F86F
:104890000021684601F056FC2060142205F1340125
:1048A00005A8FCF7ADF8002105A801F04BFC6060FD
:1048B000142205F148010AA8FCF7A2F800210AA871
:1048C00001F040FCA060142205F15C010FA8FCF788
:1048D00097F800210FA801F035FCE060142205F1E3
:1048E000700114A8FCF78CF8002114A801F02AFC30
:1048F0002061142205F1840119A8FCF781F8002138
:1049000019A801F01FFC606127B030BD487D000888
:10491000000000202DE9F04385B0002441480094B8
:10492000019402940394816941F0100181618169CD
:1049300001F010010491816941F0200181618169D8
:1049400001F020010491816941F0040181618169D4
:1049500001F004010491816941F0080181618069DD
:10496000DFF8C48000F00800049001224021404696
:10497000FEF7D9FC002280214046FEF7D4FCDFF888
:10498000AC9001224DF260014846FEF7CCFC0327B3
:10499000274801250097CDE9010569464046FEF705
:1049A000D7FB10208DE8310069464046FEF7D0FB6A
:1049B00040200226CDE90005CDE902466946404681
:1049C000FEF7C6FB8020CDE9000569464046CDE9EB
:1049D0000245FEF7BDFB2803CDE90005CDE90246FF
:1049E00069464846FEF7B4FB4CF26000009001AA0D
:1049F000112082E8A10069464846FEF7A9FB06217E
:104A000000220846FEF760FD0620FEF74FFD00225B
:104A100005210720FEF758FD0720FEF747FD05B0EA
:104A2000BDE8F0830010024000080140000C014086
:104A300000002110094810B50749016006214160B6
:104A400040F6FF718160FEF779FC002803D0BDE8D5
:104A50001040FEF7E4BA10BD00300040D000002046
:104A60000A4810B5084901604FF0FF3141604FF42A
:104A700080718160FFF748F9002803D0BDE810403D
:104A8000FEF7CDBA10BD000000280040DC00002079
:104A90000C4810B50A4901604FF4E1314160002132
:104AA00081600C22C160C0E904128161C161FFF71D
:104AB000A3FC002803D0BDE81040FEF7B0BA10BD3B
:104AC00000380140F00000200C4810B50A49016090
:104AD0004FF4E1314160002181600C22C160C0E9E6
:104AE00004128161C161FFF787FC002803D0BDE893
:104AF0001040FEF794BA10BD004800403801002075
:104B0000FEE7FEE710B50021074C0A46002004EB43
:104B1000C1131A54401CC0B28028FAD3491CC9B230
:104B20000829F3D310BD000034350020F0B501EBA7
:104B3000030C20E00446871819E07F2C15D80029C3
:104B400013DB3F2911DCCB1701EB5376F5100B4B30
:104B500026F0070603EBC5132344A1EB060E1D78D0
:104B6000012606FA0EF6B5431D70641C24B2A74256
:104B7000E3DC491C09B28C45DCDCF0BD3435002097
:104B800010B5012000F0AEF9BDE81040012000F0A2
:104B9000B1B970B500240546802626FA04F02840F5
:104BA00000D0012000F0A6F9012000F09BF90020C0
:104BB00000F098F9641CE4B2082CEED3012000F058
:104BC00091F9BDE87040002000F08CB910B50120CB
:104BD00000F090F9012000F085F9002000F08AF93A
:104BE000BDE81040002000F07DB910B5002000F0B5
:104BF00081F9012000F076F9BDE81040012000F0B5
:104C000079B910B5FFF7BCFFAE2000F07BF9D520D5
:104C100000F078F9802000F075F9A82000F072F912
:104C20003F2000F06FF9D32000F06CF9002000F075
:104C300069F9402000F066F9A12000F063F9C8206E
:104C400000F060F9DA2000F05DF9122000F05AF966
:104C5000812000F057F9CF2000F054F9D92000F05E
:104C600051F9F12000F04EF9DB2000F04BF9302033
:104C700000F048F9A42000F045F9A62000F042F920
:104C80008D2000F03FF9142000F03CF9AF2000F037
:104C900039F9FFF737FFBDE8104000F00FB90FB446
:104CA00070B5C0B014460D46064648AA68464799F6
:104CB000FBF72EFB23466A462946304600F08EF865
:104CC00040B070BC5DF814FB10B50C4640F0B0006D
:104CD00000F018F9102040EA141000F013F904F065
:104CE0000F00BDE8104000F00DB9000008B5082B1A
:104CF0000DD0062B0AD10A4B02EB420203EB420213
:104D0000C03A00920823062200F00EF808BD054BB9
:104D100003EB0212A2F50072102300920822F3E7BF
:104D20003C8400084C7E00082DE9FF4F1F461646C4
:104D30000D460024DDF834A00098FFF7F7FE7F1E33
:104D4000F81707EB50700121DFF88CB001EBE00E93
:104D50003DE0002037E000990B187F2B31D8E91790
:104D600005EB5171CA1021F00701691A002D03DA11
:104D7000521E083112B209B22244072A0ED804FB8F
:104D800006F70AEB00080BEBC21917F8087019F8C0
:104D900003C08F404CEA070C09F803C0571C072FCB
:104DA0000FD80BEBC21204FB06F70AEB000C1A44F7
:104DB00017F80C7012F8803FC1F10801CF403B4357
:104DC0001370401CC0B2B042C5D3641CE4B2A64507
:104DD000BFDCBDE8FF8F0000343500202DE9FF4F18
:104DE000002683B09846934681463446DFF8C4A037
:104DF00058E010068DF8042006F101060ED40020BC
:104E00008DF8050009EB0400B6B200B243460499E0
:104E1000FFF76CFF04EB080084B243E0B0B21BF86C
:104E20000010002942D0401C86B200208DF80510E9
:104E30008DF80600054606E0384601A9FBF78EFE10
:104E400068B16D1CADB2C5EBC50000EB800101EB94
:104E50000A00074618A1FBF781FE0028ECD1B8F143
:104E6000080F03D0B8F1060F1CD111E0C5EBC50047
:104E700000EB800101EB0A00C01C009009EB04006C
:104E8000102300B21A460499FFF74EFF103408E0D1
:104E900009EB040000B206233F220499FFF726FF26
:104EA000A41DA4B21BF80620002AA2D107B0BDE8B9
:104EB000F08F0000768600080000000070B5084DF5
:104EC000002400212046FFF7FFFE05EBC4108021DF
:104ED00000F029F8641CE4B2082CF2D370BD000085
:104EE00034350020024640210148FEF71CBA00007C
:104EF000000C0140024620210148FEF714BA0000D0
:104F0000000C014010B50446FFF760FE7820FFF763
:104F100040FE0020FFF73DFE2046FFF73AFEBDE8C9
:104F20001040FFF762BE70B50D460646FFF74EFE15
:104F30007820FFF72EFE4020FFF72BFE002404E030
:104F4000305DFFF726FE641CE4B2AC42F8D3BDE846
:104F50007040FFF74ABE000008B500273C460097A6
:104F6000FEF760F802F0B6FB0546009802F0F4FC8C
:104F700002460B462EA0FBF7DDF9DFF8E080384E45
:104F80004FF47A79FEF74EF802F0A4FB2946009020
:104F900002F060FE20F00040414602F02AFE307828
:104FA0000DD848B901203070009802F0D5FC0246B7
:104FB0000B462CA0FBF7BEF90024009D33E000282F
:104FC00031D0641CE4B2009802F0C6FC02460B46E5
:104FD00024A0FBF7AFF90522214629A0FBF7AAF987
:104FE000052C20D30098B0F17E5F14DD2C480023FF
:104FF0002A4A6946006801F069FF012802D029A009
:10500000FBF798F9009802F0A7FC02460B4630A087
:10501000FBF790F902E034A0FBF78CF9FDF7EAFB0F
:10502000002437702546484601F0C6FDAAE7000077
:10503000CAD7B4CEC6F4B6AFA3ACBDF6BCC7C2BC2B
:10504000B3F5CABCC1F7C1BF20252E3366204C2C56
:10505000B2BBC9CFB4AB0D0A000000006F12833A97
:10506000A4000020BFAACABCBCD3D3CDA3ACC0DB74
:10507000BCC6D6B5CEAA20252E33660D0A00000088
:10508000BCD3D3CDD6B5C1ACD0F8CEB4B1E42025D5
:10509000642F256420C3EB0D0A00000040420F007E
:1050A00018000020B4EDCEF3A3BACAFDBEDDCEDEFB
:1050B000B7A8B7A2CBCDB5BDB6D3C1D0A3ACD2D122
:1050C000B3ACCAB1BBF2B6D3C1D0C2FA0D0A00006C
:1050D000B1BEB4CEBCD3D3CDC1F7C1BFCEAA252EAD
:1050E00033660D0A00000000B1BEB4CEBCD3D3CDF0
:1050F000C1F7C1BFCEAA302CC8A1CFFBC9CFB4AB7A
:105100000D0A0000010901EB810100F00F0000EB26
:105110004100C0B27047002102E00A38C0B2491C09
:105120000A28FAD2090740EA116070472DE9F041D8
:1051300004460025C07B627BA37B42E0012A16D097
:10514000032A14D0052A12D0072A10D0082A0ED01C
:105150000A2A0CD00C2A0AD0042A10D0062A0ED013
:10516000092A0CD00B2A0AD0022A0DD028E01F2BC6
:105170000CD30C2A05D101221346401C20E01E2B23
:1051800004D30123521C1BE01C2B02D203F10103A8
:1051900016E011D183B29E0710D16426B3FBF6F757
:1051A00006FB173636B94FF4C876B3FBF6F706FBA5
:1051B00017331BB91D2303E01D2B01D1032201234B
:1051C0006D1C8D42BAD3D1B2E0736173DAB2A273AF
:1051D00000F0AAF82073BDE8F08170B50546FEF72F
:1051E000A7F804464FF47A7606E0FEF7A1F8001B14
:1051F000B04201D9032070BD286840688006F4D50C
:105200002868416841F010014160002070BD70B510
:1052100005460068416821F010014160FEF788F8FA
:1052200004464FF47A7606E0FEF782F8001BB0429F
:1052300001D9032070BD286840688006F4D500209D
:1052400070BD00007CB50025044600952A466946DD
:1052500011480195FEF7EBFC28B9002201A90E4880
:10526000FEF7BEFC08B101207CBD9DF8070064304C
:1052700060619DF80500401E20619DF80600E06019
:105280009DF80000A0609DF8010060609DF802009C
:105290002562206000207CBDDC0000200068016ADF
:1052A000406A80B240EA01407047006881698AB272
:1052B000C1698BB2816989B28A4203D0C06961F346
:1052C0001F40704743EA0240704700001CB5044687
:1052D000002000900190207A8DF8000020798DF850
:1052E000010020788DF80200002269460D48FEF783
:1052F000D1FD08B1FDF793FE207D002264388DF8C2
:105300000700207C01A9401C8DF80500207B8DF84A
:1053100006000448FEF75CFD002801D0FDF77FFE83
:105320001CBD0000DC000020F0B56426C1EBC10309
:105330000925B700072403EB01130329B3FBF5F19B
:1053400000F5FA60114401440AD2401EB0FBF6F2A7
:1053500001EB9001B0FBF7F0891A0844001D08E04A
:10536000B0FBF6F201EB9001B0FBF7F0891A0844AC
:10537000801CB0FBF4F104FB1100C0B2F0BD70B5AD
:105380000D4606460024FFF728FF48B93168280C6F
:1053900008623168A8B248623046FFF738FF00B1B2
:1053A0000124204670BD70B50D4606460024FFF767
:1053B00014FF48B93168280C88613168A8B2C86107
:1053C0003046FFF724FF00B10124204670BD0120C4
:1053D00000F0A8FEFBE7000008B50020FDF78BF900
:1053E000A5280CD022A0FAF7A5FFFDF736F9A521D4
:1053F0000020FDF7A7F9642001F0DEFB02E025A004
:10540000FAF798FF00F0B2FB014627A0FAF792FFE7
:1054100000F0B0FE00202A4C2A4D4FF4FA7600909E
:1054200000226946206801F003FE012812D100F035
:1054300080FB0146009801F065FA18B1012803D0FD
:1054400021A002E023A000E026A0FAF773FF0520C8
:1054500000F088FB00F028FC28B1286801F0C3FAAE
:1054600008B101F09FF9304601F0A6FBD8E7000033
:10547000454550524F4D20CEB4B3F5CABCBBAFA387
:10548000ACD5FDD4DAB3F5CABCBBAF2E2E2E0D0AB7
:1054900000000000454550524F4D20D2D1B3F5CA0F
:1054A000BCBBAF0D0A000000656570726F6D2064B3
:1054B00061746120636F756E743A25640D0A000093
:1054C000180000201C000020D0B4C8EBB4EDCEF3CF
:1054D0000D0A0000C1F7C1BFB1A3B4E6B3C9B9A6B4
:1054E0000D0A0000454550524F4D20D2D1C2FA0D51
:1054F0000A00000010B5502080F31188BFF34F8FD1
:10550000BFF36F8F01F026FF18B104494FF08050B0
:105510000860002080F3118810BD000004ED00E059
:1055200070B594B028216846FBF7C6FA14210AA882
:10553000FBF7C2FA00240F940D20009001A91094EB
:10554000119412944FF48030012581E831000495C4
:1055500002260695CDE907604FF4E01009906846F1
:10556000FEF7B2F908B172B6FEE70F20CDE90A06E0
:105570004FF48060CDE90C4002210AA80E94FEF79A
:10558000A1F808B172B6FEE74FF48070CDE90F5074
:105590000FA8FEF723F8002801D072B6FEE714B07A
:1055A00070BD704710B5FFF77FF8BDE810400148A7
:1055B000FEF743BD80010020F0B50268194C1A4D7A
:1055C0001A4E4FF08047A04205D0B84203D0A842FF
:1055D00001D0B04203D122F070034A681A43A042BE
:1055E00005D0B84203D0A84201D0B04203D122F482
:1055F0004073CA681A434B6922F080021A43026062
:105600008A68C2620A688262A04201D109690163A4
:10561000012141610169C90703D0016921F001013C
:105620000161F0BD002C0140000400400008004072
:1056300010B5406A0021C185C184FEF7A5FD10BDEB
:1056400001680C3151E8002F22F4907241E80023E8
:10565000002BF5D10168143151E8002F22F001022E
:1056600041E80023002BF5D1016B012909D1016824
:105670000C3151E8002F22F0100241E80023002BEA
:10568000F5D1202180F8421000210163704708B550
:1056900090F84210222901D0022008BD81684FF401
:1056A0008053994201D1026922B1826A99421BD08A
:1056B00049B10AE00268816A5268C2F308020A80AE
:1056C000816A891C08E0016971B10168496801F0CB
:1056D0007F011170816A491C8162C18D491E0904D4
:1056E000090CC18503D01BE001684968F1E7016836
:1056F000CA6822F02002CA600168CA6822F4807277
:10570000CA6001684A6922F001024A61202180F8DA
:10571000421000214163026B012A03D0FEF714FFFF
:10572000002008BD016301680C3151E8002F22F010
:10573000100241E80023002BF5D101680A68D20667
:1057400002D50A6849680091818DFEF71CFDE7E7E4
:1057500070B5044600680169E26821F440511143C4
:105760000161A16820690143606901432068C26842
:1057700041F20C639A430A43C26020684169A269FE
:1057800021F44071114341611E492068884202D1D1
:10579000FEF764F801E0FEF751F800EBC00101EB01
:1057A0000011606864228000B1FBF0F3B3FBF2F3F8
:1057B0006FF018067343B1FBF0F5B1FBF0F605EBA3
:1057C0008305322303EB0515B5FBF2F5B6FBF2F6C4
:1057D00005F0F00505EB0615B1FBF0F6B1FBF0F0B6
:1057E000B0FBF2F06FF01801484306EB800003EBCA
:1057F0000010B0FBF2F0216800F00F002844886030
:1058000070BD00000038014081628285C2850021A0
:105810004164222180F84210016921B10168CA68FF
:1058200042F48072CA6001684A6942F001024A612A
:105830000068C16841F02001C160002070472DE977
:10584000F8431F4690460D460446089E23E0701C10
:1058500021D0FDF76DFDC01BB0421AD8CEB1206833
:10586000C168490717D5802D15D0402D13D0016888
:10587000C94309070FD401680025406800902046FD
:10588000FFF7DEFE0820606484F840500120BDE888
:10589000F8830320FBE72068006835EA000004D0A5
:1058A00000204045D3D00020F1E70120F9E70000B7
:1058B0000148FEF76BBC0000380100200EB5002047
:1058C0000090FDF765F8002866D03EA0FAF732FD9B
:1058D00000F02FF9014640A0FAF72CFD4FF4FA70C2
:1058E00001F06AF900F025F9044600F0E3F984427A
:1058F00009D23FA0FAF71EFDFCF790FF00284DD01B
:1059000044A0FAF717FD00F014F9014632A0FAF7A7
:1059100011FD42F2107400236A460121184601F07D
:105920007FFD0098C00706D0FCF778FF002837D02D
:1059300038A0FAF7FFFC00F0B7F900283ED0FDF7D9
:105940004BFAFDF7E7F901282CD0374800231A4617
:105950006946006801F0BAFA012802D033A0FAF7CC
:10596000E9FC3848224601A9006801F061FB0128E2
:10597000D1D101A8FDF786FA0028CCD032A0FAF7E1
:10598000D9FCFDF705F80028C5D133A0FAF7D2FC01
:10599000204601F011F9BEE735A097E739A0B0E73E
:1059A00038A0C6E73CA0FAF7C5FCFCF7F1FF18B138
:1059B00043A0FAF7BFFCAEE727A0FAE7FDF700FA2D
:1059C000E6E70000445455C4A3BFE9B3F5CABCBB25
:1059D000AFCAA7B0DC0D0A00B5B1C7B0525443CA74
:1059E000B1BCE4B4C1A3BA256C640D0A0000000088
:1059F000525443CAB1BCE4D2ECB3A3A3ACD5FDD49A
:105A0000DAD0A3D7BC525443CAB1BCE42E2E2E0D1B
:105A10000A000000525443CAB1BCE4D0A3D7BCCAA8
:105A2000A7B0DC0D0A00000020000020B4EDCEF38A
:105A3000A3BACEDEB7A8C9EAC7EBCAFDBEDD0D0A20
:105A4000000000001C000020CAFDBEDDC9CFB4ABC1
:105A5000CAA7B0DC0D0A0000445455C4A3BFE9D660
:105A6000D8D0C2C1ACBDD3B3C9B9A60D0A000000DD
:105A7000445455C4A3BFE9B3F5CABCBBAFB3C9B95D
:105A8000A60D0A00525443CAB1BCE4D0A3D7BCB39C
:105A9000C9B9A60D0A000000445455C4A3BFE94D7E
:105AA000515454CEB4C1ACBDD3A3ACD5FDD4DAD6D9
:105AB000D8D0C2C1ACBDD32E2E2E0D0A00000000DE
:105AC000445455C4A3BFE9D6D8D0C2C1ACBDD3CAD3
:105AD000A7B0DC0D0A000000FEE7490050EAC12033
